{"contracts/PerformanceAgreementNFT.sol":{"PerformanceAgreementNFT":{"abi":[{"inputs":[],"stateMutability":"nonpayable","type":"constructor"},{"inputs":[],"name":"ECDSAInvalidSignature","type":"error"},{"inputs":[{"internalType":"uint256","name":"length","type":"uint256"}],"name":"ECDSAInvalidSignatureLength","type":"error"},{"inputs":[{"internalType":"bytes32","name":"s","type":"bytes32"}],"name":"ECDSAInvalidSignatureS","type":"error"},{"inputs":[{"internalType":"address","name":"sender","type":"address"},{"internalType":"uint256","name":"tokenId","type":"uint256"},{"internalType":"address","name":"owner","type":"address"}],"name":"ERC721IncorrectOwner","type":"error"},{"inputs":[{"internalType":"address","name":"operator","type":"address"},{"internalType":"uint256","name":"tokenId","type":"uint256"}],"name":"ERC721InsufficientApproval","type":"error"},{"inputs":[{"internalType":"address","name":"approver","type":"address"}],"name":"ERC721InvalidApprover","type":"error"},{"inputs":[{"internalType":"address","name":"operator","type":"address"}],"name":"ERC721InvalidOperator","type":"error"},{"inputs":[{"internalType":"address","name":"owner","type":"address"}],"name":"ERC721InvalidOwner","type":"error"},{"inputs":[{"internalType":"address","name":"receiver","type":"address"}],"name":"ERC721InvalidReceiver","type":"error"},{"inputs":[{"internalType":"address","name":"sender","type":"address"}],"name":"ERC721InvalidSender","type":"error"},{"inputs":[{"internalType":"uint256","name":"tokenId","type":"uint256"}],"name":"ERC721NonexistentToken","type":"error"},{"inputs":[],"name":"InvalidShortString","type":"error"},{"inputs":[{"internalType":"address","name":"owner","type":"address"}],"name":"OwnableInvalidOwner","type":"error"},{"inputs":[{"internalType":"address","name":"account","type":"address"}],"name":"OwnableUnauthorizedAccount","type":"error"},{"inputs":[{"internalType":"string","name":"str","type":"string"}],"name":"StringTooLong","type":"error"},{"inputs":[{"internalType":"uint256","name":"value","type":"uint256"},{"internalType":"uint256","name":"length","type":"uint256"}],"name":"StringsInsufficientHexLength","type":"error"},{"anonymous":false,"inputs":[{"indexed":true,"internalType":"uint256","name":"tokenId","type":"uint256"},{"indexed":true,"internalType":"address","name":"artistWallet","type":"address"},{"indexed":true,"internalType":"address","name":"venueWallet","type":"address"},{"indexed":false,"internalType":"string","name":"venueName","type":"string"},{"indexed":false,"internalType":"uint64","name":"startTime","type":"uint64"},{"indexed":false,"internalType":"uint256","name":"paymentAmountUsdCents","type":"uint256"}],"name":"AgreementCreated","type":"event"},{"anonymous":false,"inputs":[{"indexed":true,"internalType":"uint256","name":"tokenId","type":"uint256"},{"indexed":true,"internalType":"address","name":"venueWallet","type":"address"},{"indexed":true,"internalType":"address","name":"artistWallet","type":"address"}],"name":"AgreementSignedAndMinted","type":"event"},{"anonymous":false,"inputs":[{"indexed":true,"internalType":"address","name":"owner","type":"address"},{"indexed":true,"internalType":"address","name":"approved","type":"address"},{"indexed":true,"internalType":"uint256","name":"tokenId","type":"uint256"}],"name":"Approval","type":"event"},{"anonymous":false,"inputs":[{"indexed":true,"internalType":"address","name":"owner","type":"address"},{"indexed":true,"internalType":"address","name":"operator","type":"address"},{"indexed":false,"internalType":"bool","name":"approved","type":"bool"}],"name":"ApprovalForAll","type":"event"},{"anonymous":false,"inputs":[{"indexed":false,"internalType":"uint256","name":"_fromTokenId","type":"uint256"},{"indexed":false,"internalType":"uint256","name":"_toTokenId","type":"uint256"}],"name":"BatchMetadataUpdate","type":"event"},{"anonymous":false,"inputs":[],"name":"EIP712DomainChanged","type":"event"},{"anonymous":false,"inputs":[{"indexed":false,"internalType":"uint256","name":"_tokenId","type":"uint256"}],"name":"MetadataUpdate","type":"event"},{"anonymous":false,"inputs":[{"indexed":true,"internalType":"address","name":"previousOwner","type":"address"},{"indexed":true,"internalType":"address","name":"newOwner","type":"address"}],"name":"OwnershipTransferred","type":"event"},{"anonymous":false,"inputs":[{"indexed":true,"internalType":"uint256","name":"tokenId","type":"uint256"},{"indexed":false,"internalType":"uint256","name":"amountUsdCents","type":"uint256"},{"indexed":false,"internalType":"address","name":"recorder","type":"address"}],"name":"PaymentRecorded","type":"event"},{"anonymous":false,"inputs":[{"indexed":true,"internalType":"uint256","name":"tokenId","type":"uint256"},{"indexed":false,"internalType":"enum PerformanceAgreementNFT.Status","name":"previous","type":"uint8"},{"indexed":false,"internalType":"enum PerformanceAgreementNFT.Status","name":"current","type":"uint8"},{"indexed":false,"internalType":"address","name":"actor","type":"address"}],"name":"StatusChanged","type":"event"},{"anonymous":false,"inputs":[{"indexed":true,"internalType":"address","name":"from","type":"address"},{"indexed":true,"internalType":"address","name":"to","type":"address"},{"indexed":true,"internalType":"uint256","name":"tokenId","type":"uint256"}],"name":"Transfer","type":"event"},{"inputs":[{"internalType":"address","name":"to","type":"address"},{"internalType":"uint256","name":"tokenId","type":"uint256"}],"name":"approve","outputs":[],"stateMutability":"nonpayable","type":"function"},{"inputs":[{"internalType":"address","name":"owner","type":"address"}],"name":"balanceOf","outputs":[{"internalType":"uint256","name":"","type":"uint256"}],"stateMutability":"view","type":"function"},{"inputs":[{"internalType":"string","name":"venueName","type":"string"},{"internalType":"string","name":"venueAddress","type":"string"},{"internalType":"uint64","name":"startTime","type":"uint64"},{"internalType":"uint32","name":"durationMinutes","type":"uint32"},{"internalType":"string","name":"artistSocialHandle","type":"string"},{"internalType":"string","name":"venueSocialHandle","type":"string"},{"internalType":"address","name":"artistWallet","type":"address"},{"internalType":"address","name":"venueWallet","type":"address"},{"internalType":"uint256","name":"paymentAmountUsdCents","type":"uint256"}],"name":"createAgreement","outputs":[{"internalType":"uint256","name":"tokenId","type":"uint256"}],"stateMutability":"nonpayable","type":"function"},{"inputs":[{"components":[{"internalType":"string","name":"venueName","type":"string"},{"internalType":"string","name":"venueAddress","type":"string"},{"internalType":"uint64","name":"startTime","type":"uint64"},{"internalType":"uint32","name":"durationMinutes","type":"uint32"},{"internalType":"string","name":"artistSocialHandle","type":"string"},{"internalType":"string","name":"venueSocialHandle","type":"string"},{"internalType":"address","name":"artistWallet","type":"address"},{"internalType":"address","name":"venueWallet","type":"address"},{"internalType":"uint256","name":"paymentAmountUsdCents","type":"uint256"}],"internalType":"struct PerformanceAgreementNFT.AgreementInput","name":"input","type":"tuple"},{"internalType":"bytes","name":"artistSignature","type":"bytes"}],"name":"createAgreementWithArtistSig","outputs":[{"internalType":"uint256","name":"tokenId","type":"uint256"}],"stateMutability":"nonpayable","type":"function"},{"inputs":[],"name":"eip712Domain","outputs":[{"internalType":"bytes1","name":"fields","type":"bytes1"},{"internalType":"string","name":"name","type":"string"},{"internalType":"string","name":"version","type":"string"},{"internalType":"uint256","name":"chainId","type":"uint256"},{"internalType":"address","name":"verifyingContract","type":"address"},{"internalType":"bytes32","name":"salt","type":"bytes32"},{"internalType":"uint256[]","name":"extensions","type":"uint256[]"}],"stateMutability":"view","type":"function"},{"inputs":[{"internalType":"uint256","name":"tokenId","type":"uint256"}],"name":"getAgreement","outputs":[{"components":[{"internalType":"string","name":"venueName","type":"string"},{"internalType":"string","name":"venueAddress","type":"string"},{"internalType":"uint64","name":"startTime","type":"uint64"},{"internalType":"uint32","name":"durationMinutes","type":"uint32"},{"internalType":"string","name":"artistSocialHandle","type":"string"},{"internalType":"string","name":"venueSocialHandle","type":"string"},{"internalType":"address","name":"artistWallet","type":"address"},{"internalType":"address","name":"venueWallet","type":"address"},{"internalType":"uint256","name":"paymentAmountUsdCents","type":"uint256"},{"internalType":"enum PerformanceAgreementNFT.Status","name":"status","type":"uint8"},{"internalType":"bool","name":"paymentRecorded","type":"bool"}],"internalType":"struct PerformanceAgreementNFT.Agreement","name":"","type":"tuple"}],"stateMutability":"view","type":"function"},{"inputs":[{"internalType":"uint256","name":"tokenId","type":"uint256"}],"name":"getApproved","outputs":[{"internalType":"address","name":"","type":"address"}],"stateMutability":"view","type":"function"},{"inputs":[{"internalType":"address","name":"owner","type":"address"},{"internalType":"address","name":"operator","type":"address"}],"name":"isApprovedForAll","outputs":[{"internalType":"bool","name":"","type":"bool"}],"stateMutability":"view","type":"function"},{"inputs":[{"internalType":"uint256","name":"tokenId","type":"uint256"}],"name":"markCompleted","outputs":[],"stateMutability":"nonpayable","type":"function"},{"inputs":[],"name":"name","outputs":[{"internalType":"string","name":"","type":"string"}],"stateMutability":"view","type":"function"},{"inputs":[],"name":"owner","outputs":[{"internalType":"address","name":"","type":"address"}],"stateMutability":"view","type":"function"},{"inputs":[{"internalType":"uint256","name":"tokenId","type":"uint256"}],"name":"ownerOf","outputs":[{"internalType":"address","name":"","type":"address"}],"stateMutability":"view","type":"function"},{"inputs":[{"internalType":"uint256","name":"tokenId","type":"uint256"}],"name":"raiseDispute","outputs":[],"stateMutability":"nonpayable","type":"function"},{"inputs":[{"internalType":"uint256","name":"tokenId","type":"uint256"}],"name":"recordPayment","outputs":[],"stateMutability":"nonpayable","type":"function"},{"inputs":[],"name":"renounceOwnership","outputs":[],"stateMutability":"nonpayable","type":"function"},{"inputs":[{"internalType":"uint256","name":"tokenId","type":"uint256"}],"name":"resolveDispute","outputs":[],"stateMutability":"nonpayable","type":"function"},{"inputs":[{"internalType":"address","name":"from","type":"address"},{"internalType":"address","name":"to","type":"address"},{"internalType":"uint256","name":"tokenId","type":"uint256"}],"name":"safeTransferFrom","outputs":[],"stateMutability":"nonpayable","type":"function"},{"inputs":[{"internalType":"address","name":"from","type":"address"},{"internalType":"address","name":"to","type":"address"},{"internalType":"uint256","name":"tokenId","type":"uint256"},{"internalType":"bytes","name":"data","type":"bytes"}],"name":"safeTransferFrom","outputs":[],"stateMutability":"nonpayable","type":"function"},{"inputs":[{"internalType":"address","name":"operator","type":"address"},{"internalType":"bool","name":"approved","type":"bool"}],"name":"setApprovalForAll","outputs":[],"stateMutability":"nonpayable","type":"function"},{"inputs":[{"internalType":"bytes4","name":"interfaceId","type":"bytes4"}],"name":"supportsInterface","outputs":[{"internalType":"bool","name":"","type":"bool"}],"stateMutability":"view","type":"function"},{"inputs":[],"name":"symbol","outputs":[{"internalType":"string","name":"","type":"string"}],"stateMutability":"view","type":"function"},{"inputs":[{"internalType":"uint256","name":"tokenId","type":"uint256"}],"name":"tokenURI","outputs":[{"internalType":"string","name":"","type":"string"}],"stateMutability":"view","type":"function"},{"inputs":[{"internalType":"address","name":"from","type":"address"},{"internalType":"address","name":"to","type":"address"},{"internalType":"uint256","name":"tokenId","type":"uint256"}],"name":"transferFrom","outputs":[],"stateMutability":"nonpayable","type":"function"},{"inputs":[{"internalType":"address","name":"newOwner","type":"address"}],"name":"transferOwnership","outputs":[],"stateMutability":"nonpayable","type":"function"}],"evm":{"bytecode":{"linkReferences":{},"object":"6040610160815234620004d95762000019610160620004de565b6017610160527f506572666f726d616e636541677265656d656e744e46540000000000000000006101805280516200005181620004de565b600181526020810191603160f81b83528051926200006f84620004de565b601484527f506572666f726d616e636541677265656d656e7400000000000000000000000060208501528151620000a681620004de565b6008815267504552464147524d60c01b602082015284516001600160401b038111620002d05760005495600187811c97168015620004ce575b6020881014620003c2578190601f9788811162000478575b50602090888311600114620003ef57600092620003e3575b50508160011b916000199060031b1c1916176000555b8051906001600160401b038211620002d057600154600181811c91168015620003d8575b6020821014620003c25786811162000377575b5060209582116001146200030a57948192939495600092620002fe575b50508160011b916000199060031b1c1916176001555b3315620002e65760078054336001600160a01b0319821681179092556001600160a01b03167f8be0079c531659141344cd1fd0a4f28419497f9722a3daafe3b4186f6b6457e0600080a3620001e6610160620004fa565b610120908152620001f784620006c1565b916101409283526101605160206101600120948560e05251902093610100948086524660a05284519060208201927f8b73c3c69bb8fe3d512ecc4cf759cc79239f7b179b0ffacaa9a75d522b39400f84528683015260608201524660808201523060a082015260a0815260c081019481861060018060401b03871117620002d0578590525190206080523060c0526001600b55613d4f93846200087a853960805184613824015260a051846138ef015260c051846137ee015260e0518461387301525183613899015251826110610152518161108a0152f35b634e487b7160e01b600052604160045260246000fd5b8151631e4fbdf760e01b815260006004820152602490fd5b01519050388062000179565b601f19821695600160005260206000209160005b8881106200035e5750836001959697981062000344575b505050811b016001556200018f565b015160001960f88460031b161c1916905538808062000335565b919260206001819286850151815501940192016200031e565b600160005260206000208780850160051c82019260208610620003b8575b0160051c01905b818110620003ab57506200015c565b600081556001016200039c565b9250819262000395565b634e487b7160e01b600052602260045260246000fd5b90607f169062000149565b0151905038806200010f565b60008080527f290decd9548b62a8d60345a988386fc84ba6bc95484008f6362f93160ef3e5639350601f198516905b8181106200045f575090846001959493921062000445575b505050811b0160005562000125565b015160001960f88460031b161c1916905538808062000436565b929360206001819287860151815501950193016200041e565b9091506000805260206000208880850160051c82019260208610620004c4575b9085949392910160051c01905b818110620004b45750620000f7565b60008155849350600101620004a5565b9250819262000498565b96607f1696620000df565b600080fd5b604081019081106001600160401b03821117620002d057604052565b805160209081811015620005975750601f8251116200053657808251920151908083106200052757501790565b82600019910360031b1b161790565b90604051809263305a27a960e01b82528060048301528251908160248401526000935b8285106200057d575050604492506000838284010152601f80199101168101030190fd5b848101820151868601604401529381019385935062000559565b906001600160401b038211620002d057600854926001938481811c91168015620006b6575b83821014620003c257601f81116200067c575b5081601f841160011462000610575092829391839260009462000604575b50501b916000199060031b1c19161760085560ff90565b015192503880620005ed565b919083601f198116600860005284600020946000905b8883831062000661575050501062000647575b505050811b0160085560ff90565b015160001960f88460031b161c1916905538808062000639565b85870151885590960195948501948793509081019062000626565b600860005284601f84600020920160051c820191601f860160051c015b828110620006a9575050620005cf565b6000815501859062000699565b90607f1690620005bc565b8051602090818110156200074f5750601f825111620006ee57808251920151908083106200052757501790565b90604051809263305a27a960e01b82528060048301528251908160248401526000935b82851062000735575050604492506000838284010152601f80199101168101030190fd5b848101820151868601604401529381019385935062000711565b906001600160401b038211620002d057600954926001938481811c911680156200086e575b83821014620003c257601f811162000834575b5081601f8411600114620007c85750928293918392600094620007bc575b50501b916000199060031b1c19161760095560ff90565b015192503880620007a5565b919083601f198116600960005284600020946000905b88838310620008195750505010620007ff575b505050811b0160095560ff90565b015160001960f88460031b161c19169055388080620007f1565b858701518855909601959485019487935090810190620007de565b600960005284601f84600020920160051c820191601f860160051c015b8281106200086157505062000787565b6000815501859062000851565b90607f16906200077456fe608080604052600436101561001357600080fd5b60003560e01c90816301ffc9a7146129ee5750806306fdde031461294b578063081812fc1461290d578063095ea7b31461282657806323b872dd1461280f5780632b95da6614611fe057806342842e0e14611fb25780634f9f6fe614611d5b5780635eb37a31146112275780636352211e146111f757806370a082311461119e578063715018a61461114157806384b0196e146110485780638da5cb5b1461101f57806395d89b4114610f40578063a22cb46514610e9b578063a5c1674e14610dc0578063b88d4fde14610d53578063c2b7b86814610c8e578063c87b56dd1461064e578063cac5c51214610468578063e985e9c514610412578063f2fde38b146103895763fefa92911461012757600080fd5b34610384576020806003193601126103845760043590816000526002815260018060a01b0361015e816040600020541615156135ab565b82600052600a82526102656040600020916040519061017c82612b69565b6040516101948161018d8188612caf565b0382612bd6565b82526040516101aa8161018d8160018901612caf565b8583015263ffffffff60028501546001600160401b038116604085015260401c1660608301526040516101e48161018d8160038901612caf565b60808301526040516101fd8161018d8160048901612caf565b60a0830152808060058601541660c08401908152816006870154169360e0810194855261014060ff600860078a0154996101009a8b860152015481811661024381612b49565b61012085015260081c16151591015251163314918215610376575b50506135eb565b82600052600a82526040600020906008820190815460ff811661028781612b49565b60018114908115610362575b501561031d5760ff8160081c166102e55761ff001916179055600701546040805191825233928201929092527feb79e24102009f0d7f1eb4227511a0c5c61db03f1560911df6ebc1710f0d82d19190a2005b60405162461bcd60e51b815260048101869052601060248201526f105b1c9958591e481c9958dbdc99195960821b6044820152606490fd5b60405162461bcd60e51b815260048101869052601a60248201527f496e76616c69642073746174757320666f72207061796d656e740000000000006044820152606490fd5b6003915061036f81612b49565b1438610293565b90915051163314388061025e565b600080fd5b34610384576020366003190112610384576103a2612abb565b6103aa612c49565b6001600160a01b039081169081156103f957600754826001600160601b0360a01b821617600755167f8be0079c531659141344cd1fd0a4f28419497f9722a3daafe3b4186f6b6457e0600080a3005b604051631e4fbdf760e01b815260006004820152602490fd5b346103845760403660031901126103845761042b612abb565b610433612ad1565b9060018060a01b03809116600052600560205260406000209116600052602052602060ff604060002054166040519015158152f35b34610384576020806003193601126103845760043590816000526002815261059b60018060a01b036104a2816040600020541615156135ab565b83600052600a8352604060002090806040516104bd81612b69565b6040516104ce8161018d8188612caf565b81526040516104e48161018d8160018901612caf565b8682015263ffffffff60028501546001600160401b038116604084015260401c16606082015260405161051e8161018d8160038901612caf565b60808201526040516105378161018d8160048901612caf565b60a0820152816005850154169060c0810191825261014060ff6008856006890154169760e085019889526007810154610100860152015481811661057a81612b49565b61012085015260081c161515910152511633149182156106405750506135eb565b81600052600a815260086040600020019081549160ff8316926105bd84612b49565b8361060e576060927fbe978056736fa4b5d6ef48bade11edc88bb6fe9193a2efe99ed9e5b0b41ade9e94926001809360ff19161790556040519261060081612b49565b8352820152336040820152a2005b60405162461bcd60e51b815260048101849052600a6024820152694261642073746174757360b01b6044820152606490fd5b90915051163314848061025e565b3461038457602036600319011261038457600435600090815260026020526040902054610685906001600160a01b031615156135ab565b600435600052600a602052604060002060ff6008604051926106a684612b69565b6040516106b78161018d8185612caf565b84526040516106cd8161018d8160018601612caf565b602085015263ffffffff60028201546001600160401b038116604087015260401c1660608501526040516107088161018d8160038601612caf565b60808501526040516107218161018d8160048601612caf565b60a085015260058101546001600160a01b0390811660c086015260068201541660e08501526007810154610100850152015461075e828216612b49565b81811661012084015260081c16151561014082015261077e600435613a0d565b9080519160208201519261079e6001600160401b03604085015116613a0d565b926107b263ffffffff606083015116613a0d565b9460808201519560a0830151936107d460018060a01b0360c086015116613b50565b60e08501519091906107ee906001600160a01b0316613b50565b916107fd610100870151613a0d565b9861014061081861012089015161081381612b49565b613c54565b97015115610c6a5760405161082c81612ba0565b60048152637472756560e01b6020820152975b6040519b8c809b60208201607b60f81b9052602182017f226e616d65223a22506572666f726d616e63652041677265656d656e74202300905280516040819301916020019161088d92612a73565b61088b60f21b908c01604081018290527f226465736372697074696f6e223a2241677265656d656e74206265747765656e60428201527f2061727469737420616e642076656e756520666f72206120706572666f726d6160628201526b1b98d948195d995b9d0b888b60a21b60828201526c113b32b73ab2a730b6b2911d1160991b608e820152865191998a97889693919290610933908390609b840190602001612a73565b0185609b8201526f113b32b73ab2a0b2323932b9b9911d1160811b609d8201528151918260ad8301916020019161096992612a73565b018460ad8201526b1139ba30b93a2a34b6b2911d60a11b60af8201528151918260bb8301916020019161099b92612a73565b0196600b60fa1b978860bb8201527111323ab930ba34b7b726b4b73aba32b9911d60711b60bc8201528151918260ce830191602001916109da92612a73565b018760ce820152751130b93a34b9ba29b7b1b4b0b62430b7323632911d1160511b60cf8201528151918260e583019160200191610a1692612a73565b018260e582015274113b32b73ab2a9b7b1b4b0b62430b7323632911d1160591b60e78201528151918260fc83019160200191610a5192612a73565b018160fc8201526f1130b93a34b9ba2bb0b63632ba111d1160811b60fe82015282519061010e93828583019160200191610a8a92612a73565b01918201526e113b32b73ab2abb0b63632ba111d1160891b61011082015282519061011f93828583019160200191610ac192612a73565b019182015261012181017f227061796d656e74416d6f756e7455736443656e7473223a0000000000000000905286519061013997828983019160200191610b0792612a73565b019086820152691139ba30ba3ab9911d1160b11b61013a82015282519061014493828583019160200191610b3a92612a73565b019182015271113830bcb6b2b73a2932b1b7b93232b2111d60711b61014682015281519061015892828483019160200191610b7492612a73565b01908101607d60f81b905203908101825261015901610b939082612bd6565b604051610b9f81612bbb565b60408082527f4142434445464748494a4b4c4d4e4f505152535455565758595a61626364656660208301527f6768696a6b6c6d6e6f707172737475767778797a303132333435363738392b2f90820152610bf891613915565b6040518091602082017f646174613a6170706c69636174696f6e2f6a736f6e3b6261736536342c000000905280519081603d84019160200191610c3a92612a73565b810103601d81018252603d01610c509082612bd6565b60405180916020825260208201610c6691612a96565b0390f35b604051610c7681612ba0565b600581526466616c736560d81b60208201529761083f565b3461038457602036600319011261038457600435610caa612c49565b80600052600a6020526008604060002001805460ff8116610cca81612b49565b60028103610d1f577fbe978056736fa4b5d6ef48bade11edc88bb6fe9193a2efe99ed9e5b0b41ade9e92600360609360ff191617905560405190610d0d81612b49565b815260036020820152336040820152a2005b60405162461bcd60e51b815260206004820152600c60248201526b139bdd08191a5cdc1d5d195960a21b6044820152606490fd5b3461038457608036600319011261038457610d6c612abb565b610d74612ad1565b90604435606435926001600160401b038411610384573660238501121561038457610dac610dbe943690602481600401359101612c12565b92610db8838383612d45565b33612f1f565b005b346103845760208060031936011261038457600435908160005260028152610dfa60018060a01b036104a2816040600020541615156135ab565b81600052600a815260086040600020019081549160ff831692610e1c84612b49565b60018403610e62576060927fbe978056736fa4b5d6ef48bade11edc88bb6fe9193a2efe99ed9e5b0b41ade9e94926002809360ff19161790556040519261060081612b49565b60405162461bcd60e51b8152600481018490526011602482015270135d5cdd0818994818dbdb5c1b195d1959607a1b6044820152606490fd5b3461038457604036600319011261038457610eb4612abb565b60243590811515809203610384576001600160a01b0316908115610f2757336000526005602052604060002082600052602052604060002060ff1981541660ff83161790556040519081527f17307eab39ab6107e8899845ad3d59bd9653f200f220920489ca2b5937696c3160203392a3005b604051630b61174360e31b815260048101839052602490fd5b346103845760003660031901126103845760405160006001805490610f6482612c75565b80855291818116908115610ff85750600114610f9f575b610c6684610f8b81860382612bd6565b604051918291602083526020830190612a96565b600081815292507fb10e2d527612073b26eecdfd717e6a320cf44b4afac2b0732d9fcbe2b7fa0cf65b828410610fe0575050508101602001610f8b82610f7b565b80546020858701810191909152909301928101610fc8565b60ff191660208087019190915292151560051b85019092019250610f8b9150839050610f7b565b34610384576000366003190112610384576007546040516001600160a01b039091168152602090f35b34610384576000366003190112610384576110f16110857f000000000000000000000000000000000000000000000000000000000000000061306d565b6110ae7f0000000000000000000000000000000000000000000000000000000000000000613169565b90604051906110bc82612b85565b60008252604051938493600f60f81b85526110e360209360e08588015260e0870190612a96565b908582036040870152612a96565b466060850152306080850152600060a085015283810360c085015281808451928381520193019160005b82811061112a57505050500390f35b83518552869550938101939281019260010161111b565b346103845760003660031901126103845761115a612c49565b600780546001600160a01b031981169091556000906001600160a01b03167f8be0079c531659141344cd1fd0a4f28419497f9722a3daafe3b4186f6b6457e08280a3005b34610384576020366003190112610384576001600160a01b036111bf612abb565b1680156111de5760005260036020526020604060002054604051908152f35b6040516322718ad960e21b815260006004820152602490fd5b34610384576020366003190112610384576020611215600435612ee4565b6040516001600160a01b039091168152f35b3461038457600319604036820112610384576001600160401b0360043511610384576101209060043536030112610384576024356001600160401b03811161038457611277903690600401612b1c565b6001600160a01b0361128d60043560e401613629565b163303611d16576001600160a01b036112aa60043560c401613629565b16151580611cf7575b15611cc3576112c660446004350161363d565b906201517f194201428111611cad576114ab936112f361149c926001600160401b036114a2961611613255565b63ffffffff611306606460043501613651565b16151580611c89575b61131890613296565b61132a610104600435013515156132d5565b604261134461133d600480350180613662565b3691612c12565b6020815191012061136261133d602460043501600435600401613662565b6020815191012061137760446004350161363d565b611385606460043501613651565b61139c61133d608460043501600435600401613662565b602081519101206113ba61133d60a460043501600435600401613662565b602081519101209063ffffffff6113d560c460043501613629565b936001600160401b036113ec60e460043501613629565b966040519860208a019a7fa0a878e5693a37f578742a15a4cb856f692aae1e9fd056facc2c1eda5a9856198c5260408b015260608a01521660808801521660a086015260c085015260e084015260018060a01b031661010083015260018060a01b03166101208201526101046004350135610140820152610140815261147181612b69565b51902061147c6137eb565b906040519161190160f01b83526002830152602282015220923691612c12565b90613694565b90929192613760565b6001600160a01b036114c160043560c401613629565b166001600160a01b0390911603611c4d57600b546114de81613317565b600b556114ef600480350180613662565b919061150360048035602481019101613662565b9061151260446004350161363d565b611520606460043501613651565b61153260048035608481019101613662565b90916115466004803560a481019101613662565b94909560043560c40161155890613629565b9761156760e460043501613629565b996040519c6115758e612b69565b369061158092612c12565b8c52369061158d92612c12565b60208b01526001600160401b031660408a015263ffffffff16606089015236906115b692612c12565b608087015236906115c692612c12565b60a08501526001600160a01b0390811660c08501521660e08301526101046004350135610100830152600061012083018190526101408301819052818152600a6020526040902082518051909391906001600160401b038111611a025761162d8254612c75565b601f8111611c09575b506020601f8211600114611ba2578192939495600092611b97575b50508160011b916000199060031b1c19161781555b60208201519283516001600160401b038111611a02576116896001840154612c75565b601f8111611b50575b506020601f8211600114611ae1578192939495600092611ad6575b50508160011b916000199060031b1c19161760018301555b600282016001600160401b0360408501511681549063ffffffff60401b606087015160401b16916001600160601b0319161717905560808301519283516001600160401b038111611a025761171d6003850154612c75565b601f8111611a8f575b50602094601f8211600114611a2357948192939495600092611a18575b50508160011b916000199060031b1c19161760038401555b60a08101519283516001600160401b038111611a025761177e6004830154612c75565b94601f86116119bb575b602095508590601f8311600114611943579282610140936008936118419796600092611938575b50508160011b916000199060031b1c19161760048201555b60c08401516005820180546001600160a01b039283166001600160a01b03199182161790915560e08601516006840180549190931691161790556101008401516007820155610120840151910192906118299061182381612b49565b84613326565b0151815461ff00191690151560081b61ff0016179055565b6118588161185360c460043501613629565b61337d565b61186660c460043501613629565b61187460e460043501613629565b827f0763e2255b3b46191fc14c005e2188d8639d751a03006384eafac51fd64e910f6118a4600480350180613662565b936118dd6118b660446004350161363d565b6040516001600160a01b03938416989093169692938493600435610104013592918561333e565b0390a46118ee60e460043501613629565b906118fd60c460043501613629565b604051926001600160a01b039182169116827f9fbbd042184db7e95eaea0fdb4bb4a737167f1aaccd0d365742157ece5453102600080a48152f35b0151905089806117af565b9060048401600052866000209160005b601f19851681106119a457508360089361184197969360019361014097601f1981161061198b575b505050811b0160048201556117c7565b015160001960f88460031b161c1916905589808061197b565b919288600181928685015181550194019201611953565b600483016000526020600020601f830160051c8101602084106119fb575b601f880160051c820181106119ef575050611788565b600081556001016119d9565b50806119d9565b634e487b7160e01b600052604160045260246000fd5b015190508580611743565b601f198216956003860160005260206000209160005b888110611a7757508360019596979810611a5e575b505050811b01600384015561175b565b015160001960f88460031b161c19169055858080611a4e565b91926020600181928685015181550194019201611a39565b600385016000526020600020601f830160051c810160208410611acf575b601f830160051c82018110611ac3575050611726565b60008155600101611aad565b5080611aad565b0151905085806116ad565b6001840160005260206000209060005b601f1984168110611b38575060019394959683601f19811610611b1f575b505050811b0160018301556116c5565b015160001960f88460031b161c19169055858080611b0f565b9091602060018192858b015181550193019101611af1565b600184016000526020600020601f830160051c810160208410611b90575b601f830160051c82018110611b84575050611692565b60008155600101611b6e565b5080611b6e565b015190508580611651565b82600052602060002090600096601f198416975b888110611bf157508360019596979810611bd8575b505050811b018155611666565b015160001960f88460031b161c19169055858080611bcb565b91926020600181928685015181550194019201611bb6565b826000526020600020601f830160051c810160208410611c46575b601f830160051c82018110611c3a575050611636565b60008155600101611c24565b5080611c24565b60405162461bcd60e51b815260206004820152601460248201527342616420617274697374207369676e617475726560601b6044820152606490fd5b506113186105a063ffffffff611ca3606460043501613651565b161115905061130f565b634e487b7160e01b600052601160045260246000fd5b60405162461bcd60e51b815260206004820152600c60248201526b5a65726f206164647265737360a01b6044820152606490fd5b506001600160a01b03611d0e60043560e401613629565b1615156112b3565b60405162461bcd60e51b815260206004820152601760248201527f43616c6c6572206e6f742076656e75652077616c6c65740000000000000000006044820152606490fd5b34610384576020366003190112610384576004356000610140604051611d8081612b69565b606081526060602082015282604082015282606082015260606080820152606060a08201528260c08201528260e082015282610100820152826101208201520152806000526002602052611de260018060a01b036040600020541615156135ab565b600052600a602052604060002060ff600860405192611e0084612b69565b604051611e118161018d8185612caf565b8452604051611e278161018d8160018601612caf565b602085015263ffffffff60028201546001600160401b038116604087015260401c166060850152604051611e628161018d8160038601612caf565b6080850152604051611e7b8161018d8160048601612caf565b60a085015260058101546001600160a01b0390811660c086015260068201541660e085015260078101546101008501520154611eb8828216612b49565b81811661012084015260081c161515610140820152604051809160208252610140611f5f611ef483516101606020870152610180860190612a96565b611f4a611f13602086015192601f1993848983030160408a0152612a96565b6001600160401b03604087015116606088015263ffffffff60608701511660808801526080860151838883030160a0890152612a96565b9060a0850151908683030160c0870152612a96565b9160018060a01b0360c08201511660e085015260018060a01b0360e082015116610100850152610100810151610120850152610120810151611fa081612b49565b82850152015115156101608301520390f35b3461038457610dbe611fc336612ae7565b9060405192611fd184612b85565b60008452610db8838383612d45565b3461038457610120366003190112610384576004356001600160401b03811161038457612011903690600401612b1c565b906024356001600160401b03811161038457612031903690600401612b1c565b9290916001600160401b0360443516604435036103845760643563ffffffff81168103610384576084356001600160401b03811161038457612077903690600401612b1c565b9060a4356001600160401b03811161038457612097903690600401612b1c565b909390929060c4356001600160a01b03811690036103845760e4356001600160a01b03811690036103845760c4356001600160a01b0316156127d55760e4356001600160a01b03161561279c57426201517f19810111611cad5761210d426201517f19016044356001600160401b031611613255565b63ffffffff811615158061278a575b61212590613296565b6121336101043515156132d5565b600b549761214089613317565b600b55604051996121508b612b69565b61215b368a8a612c12565b8b52369061216892612c12565b60208a01526044356001600160401b031660408a015263ffffffff166060890152369061219492612c12565b608087015236906121a492612c12565b60a08501526001600160a01b0360c435811660c086015260e4351660e085015261010435610100850152600061012085018190526101408501819052838152600a6020526040902084518051919591906001600160401b038211611a0257819061220e8854612c75565b601f811161273a575b50602090601f83116001146126ce576000926126c3575b50508160011b916000199060031b1c19161785555b60208101518051906001600160401b038211611a025781906122686001890154612c75565b601f8111612670575b50602090601f83116001146125fe576000926125f3575b50508160011b916000199060031b1c19161760018601555b600285016001600160401b0360408301511681549063ffffffff60401b606085015160401b16916001600160601b0319161717905560808101518051906001600160401b038211611a025781906122fa6003890154612c75565b601f81116125a0575b50602090601f831160011461253357600092612528575b50508160011b916000199060031b1c19161760038601555b60a08101519485516001600160401b038111611a02576123556004830154612c75565b96601f88116124e1575b602097508790601f831160011461246a579282610140936008936123fa979660009261245f575050600019600383901b1c191660019190911b17600482015560c08401516005820180546001600160a01b039283166001600160a01b03199182161790915560e08601516006840180549190931691161790556101008401516007820155610120840151910192906118299061182381612b49565b612404833361337d565b827f0763e2255b3b46191fc14c005e2188d8639d751a03006384eafac51fd64e910f6040518061245460018060a01b0360e435169660018060a01b0360c43516966101043591604435918561333e565b0390a4604051908152f35b015190508b806117af565b9060048401600052886000209160005b601f19851681106124ca5750836008936123fa97969360019361014097601f198116106124b157505050811b0160048201556117c7565b015160001960f88460031b161c191690558b808061197b565b91928a60018192868501518155019401920161247a565b600483016000526020600020601f830160051c810160208410612521575b601f8a0160051c8201811061251557505061235f565b600081556001016124ff565b50806124ff565b01519050878061231a565b600389016000908152602081209350601f198516905b818110612588575090846001959493921061256f575b505050811b016003860155612332565b015160001960f88460031b161c1916905587808061255f565b92936020600181928786015181550195019301612549565b909150600388016000526020600020601f840160051c8101602085106125ec575b90849392915b601f830160051c820181106125dd575050612303565b600081558594506001016125c7565b50806125c1565b015190508780612288565b9250600188016000526020600020906000935b601f1984168510612655576001945083601f1981161061263c575b505050811b0160018601556122a0565b015160001960f88460031b161c1916905587808061262c565b81810151835560209485019460019093019290910190612611565b909150600188016000526020600020601f840160051c8101602085106126bc575b90849392915b601f830160051c820181106126ad575050612271565b60008155859450600101612697565b5080612691565b01519050878061222e565b9250876000526020600020906000935b601f198416851061271f576001945083601f19811610612706575b505050811b018555612243565b015160001960f88460031b161c191690558780806126f9565b818101518355602094850194600190930192909101906126de565b909150876000526020600020601f840160051c810160208510612783575b90849392915b601f830160051c82018110612774575050612217565b6000815585945060010161275e565b5080612758565b506105a063ffffffff8216111561211c565b60405162461bcd60e51b815260206004820152601160248201527056656e75652077616c6c6574207a65726f60781b6044820152606490fd5b60405162461bcd60e51b81526020600482015260126024820152714172746973742077616c6c6574207a65726f60701b6044820152606490fd5b3461038457610dbe61282036612ae7565b91612d45565b346103845760403660031901126103845761283f612abb565b60243561284b81612ee4565b331515806128fa575b806128cd575b6128b5576001600160a01b039283169282918491167f8c5be1e5ebec7d5bd14f71427d1e84f3dd0314c0f7b2291e5b200ac8c7c3b925600080a4600090815260046020526040902080546001600160a01b0319169091179055005b60405163a9fbf51f60e01b8152336004820152602490fd5b5060018060a01b038116600052600560205260406000203360005260205260ff604060002054161561285a565b506001600160a01b038116331415612854565b346103845760203660031901126103845760043561292a81612ee4565b506000526004602052602060018060a01b0360406000205416604051908152f35b34610384576000366003190112610384576040516000805461296c81612c75565b80845290600190818116908115610ff8575060011461299557610c6684610f8b81860382612bd6565b600080805292507f290decd9548b62a8d60345a988386fc84ba6bc95484008f6362f93160ef3e5635b8284106129d6575050508101602001610f8b82610f7b565b805460208587018101919091529093019281016129be565b34610384576020366003190112610384576004359063ffffffff60e01b821680920361038457602091632483248360e11b8114908115612a30575b5015158152f35b6380ac58cd60e01b811491508115612a62575b8115612a51575b5083612a29565b6301ffc9a760e01b14905083612a4a565b635b5e139f60e01b81149150612a43565b60005b838110612a865750506000910152565b8181015183820152602001612a76565b90602091612aaf81518092818552858086019101612a73565b601f01601f1916010190565b600435906001600160a01b038216820361038457565b602435906001600160a01b038216820361038457565b6060906003190112610384576001600160a01b0390600435828116810361038457916024359081168103610384579060443590565b9181601f84011215610384578235916001600160401b038311610384576020838186019501011161038457565b60041115612b5357565b634e487b7160e01b600052602160045260246000fd5b61016081019081106001600160401b03821117611a0257604052565b602081019081106001600160401b03821117611a0257604052565b604081019081106001600160401b03821117611a0257604052565b606081019081106001600160401b03821117611a0257604052565b90601f801991011681019081106001600160401b03821117611a0257604052565b6001600160401b038111611a0257601f01601f191660200190565b929192612c1e82612bf7565b91612c2c6040519384612bd6565b829481845281830111610384578281602093846000960137010152565b6007546001600160a01b03163303612c5d57565b60405163118cdaa760e01b8152336004820152602490fd5b90600182811c92168015612ca5575b6020831014612c8f57565b634e487b7160e01b600052602260045260246000fd5b91607f1691612c84565b9060009291805491612cc083612c75565b918282526001938481169081600014612d225750600114612ce2575b50505050565b90919394506000526020928360002092846000945b838610612d0e575050505001019038808080612cdc565b805485870183015294019385908201612cf7565b9294505050602093945060ff191683830152151560051b01019038808080612cdc565b6001600160a01b039182169290918315612ecb57600092828452826020956002875260409684888820541696879133151580612e35575b509060027fddf252ad1be2c89b69c2b068fc378daa952ba7f163c4a11628f55a4df523b3ef9284612e02575b858352600381528b8320805460010190558683525289812080546001600160a01b0319168517905580a41692838303612de15750505050565b6064945051926364283d7b60e01b8452600484015260248301526044820152fd5b600087815260046020526040902080546001600160a01b0319169055848352600381528b83208054600019019055612da8565b91939450915080612e8a575b15612e5157859291879138612d7c565b878688612e6e576024915190637e27328960e01b82526004820152fd5b604491519063177e802f60e01b82523360048301526024820152fd5b503387148015612eaf575b80612e415750858252600481523385898420541614612e41565b5086825260058152878220338352815260ff8883205416612e95565b604051633250574960e11b815260006004820152602490fd5b6000818152600260205260409020546001600160a01b0316908115612f07575090565b60249060405190637e27328960e01b82526004820152fd5b90939192833b612f31575b5050505050565b604051630a85bd0160e11b8082526001600160a01b039384166004830152958316602482015260448101919091526080606482015294921692602092918590612f7e906084830190612a96565b039483816000978189895af1869181613029575b50612ff3575050503d600014612fea573d612fac81612bf7565b90612fba6040519283612bd6565b81528093823d92013e5b82519283612fe557604051633250574960e11b815260048101849052602490fd5b019050fd5b60609250612fc4565b919450915063ffffffff60e01b160361301157503880808080612f2a565b60249060405190633250574960e11b82526004820152fd5b9091508481813d8311613066575b6130418183612bd6565b8101031261306257516001600160e01b031981168103613062579038612f92565b8680fd5b503d613037565b60ff81146130ab5760ff811690601f8211613099576040519161308f83612ba0565b8252602082015290565b604051632cd44ac360e21b8152600490fd5b506040516008548160006130be83612c75565b8083529260019081811690811561314757506001146130e8575b506130e592500382612bd6565b90565b6008600090815291507ff3f7a9fe364faab93b216da50a3214154f22a0a2b415b23a84c8169e8b636ee35b84831061312c57506130e59350508101602001386130d8565b81935090816020925483858901015201910190918492613113565b9050602092506130e594915060ff191682840152151560051b820101386130d8565b60ff811461318b5760ff811690601f8211613099576040519161308f83612ba0565b5060405160095481600061319e83612c75565b8083529260019081811690811561314757506001146131c457506130e592500382612bd6565b6009600090815291507f6e1540171b6c0c960b71a7020d9f60077f6af931a8bbf590da0223dacf75c7af5b84831061320857506130e59350508101602001386130d8565b819350908160209254838589010152019101909184926131ef565b9061322d82612bf7565b61323a6040519182612bd6565b828152809261324b601f1991612bf7565b0190602036910137565b1561325c57565b60405162461bcd60e51b815260206004820152601260248201527114dd185c9d081d1a5b59481d1bdbc81bdb1960721b6044820152606490fd5b1561329d57565b60405162461bcd60e51b815260206004820152601060248201526f24b73b30b634b210323ab930ba34b7b760811b6044820152606490fd5b156132dc57565b60405162461bcd60e51b815260206004820152601360248201527205061796d656e74206d757374206265203e203606c1b6044820152606490fd5b6000198114611cad5760010190565b9061333081612b49565b60ff80198354169116179055565b906080836040946001600160401b03939897969860608652816060870152838601376000828286010152601f8019910116830101951660208201520152565b6040805161338a81612b85565b6000808252936001600160a01b038481169490929085156135935782875260209360028552858820541683878215159283613560575b818b5260038852888b2080546001019055828b5260028852888b2080546001600160a01b031916831790557fddf252ad1be2c89b69c2b068fc378daa952ba7f163c4a11628f55a4df523b3ef8b80a4613548573b613421575b505050505050565b8261345f918596979894955180938192630a85bd0160e11b968784523360048501528c60248501526044840152608060648401526084830190612a96565b03818a8a5af1879181613504575b506134cd575050503d6000146134c4573d61348781612bf7565b9061349484519283612bd6565b81528094823d92013e5b835193846134be578251633250574960e11b815260048101859052602490fd5b84925001fd5b6060935061349e565b919550915063ffffffff60e01b16036134ed575050388080808080613419565b602492505190633250574960e11b82526004820152fd5b9091508481813d8311613541575b61351c8183612bd6565b8101031261353d57516001600160e01b03198116810361353d57903861346d565b8780fd5b503d613512565b84516339e3563760e11b815260048101889052602490fd5b600083815260046020526040902080546001600160a01b0319169055808b5260038852888b2080546000190190556133c0565b8451633250574960e11b815260048101889052602490fd5b156135b257565b60405162461bcd60e51b81526020600482015260116024820152702737b732bc34b9ba32b73a103a37b5b2b760791b6044820152606490fd5b156135f257565b60405162461bcd60e51b815260206004820152600f60248201526e139bdd081c185c9d1a58da5c185b9d608a1b6044820152606490fd5b356001600160a01b03811681036103845790565b356001600160401b03811681036103845790565b3563ffffffff811681036103845790565b903590601e198136030182121561038457018035906001600160401b0382116103845760200191813603831361038457565b81519190604183036136c5576136be92506020820151906060604084015193015160001a906136d0565b9192909190565b505060009160029190565b91907f7fffffffffffffffffffffffffffffff5d576e7357a4501ddfe92f46681b20a0841161375457926020929160ff608095604051948552168484015260408301526060820152600092839182805260015afa156137485780516001600160a01b0381161561373f57918190565b50809160019190565b604051903d90823e3d90fd5b50505060009160039190565b61376981612b49565b80613772575050565b61377b81612b49565b600181036137955760405163f645eedf60e01b8152600490fd5b61379e81612b49565b600281036137bf5760405163fce698f760e01b815260048101839052602490fd5b806137cb600392612b49565b146137d35750565b602490604051906335e2f38360e21b82526004820152fd5b307f00000000000000000000000000000000000000000000000000000000000000006001600160a01b031614806138ec575b15613846577f000000000000000000000000000000000000000000000000000000000000000090565b60405160208101907f8b73c3c69bb8fe3d512ecc4cf759cc79239f7b179b0ffacaa9a75d522b39400f82527f000000000000000000000000000000000000000000000000000000000000000060408201527f000000000000000000000000000000000000000000000000000000000000000060608201524660808201523060a082015260a0815260c081018181106001600160401b03821117611a025760405251902090565b507f0000000000000000000000000000000000000000000000000000000000000000461461381d565b8051156139f8578051600291828201809211611cad576003918290046001600160fe1b0381168103611cad5761394e908495941b613223565b936020850193829183518401906020820192835194600085525b8381106139a757505050505251068060011461399457600214613989575090565b603d90600019015390565b50603d9081600019820153600119015390565b87600491999293949901918251600190603f9082828260121c16880101518453828282600c1c16880101518385015382828260061c1688010151888501531685010151898201530197929190613968565b5050604051613a0681612b85565b6000815290565b806000917a184f03e93ff9f4daa797ed6e38ed64bf6a1f01000000000000000080821015613b42575b506d04ee2d6d415b85acef810000000080831015613b33575b50662386f26fc1000080831015613b24575b506305f5e10080831015613b15575b5061271080831015613b06575b506064821015613af6575b600a80921015613aec575b600190816021613aa4828701613223565b95860101905b613ab6575b5050505090565b600019019083906f181899199a1a9b1b9c1cb0b131b232b360811b8282061a835304918215613ae757919082613aaa565b613aaf565b9160010191613a93565b9190606460029104910191613a88565b60049193920491019138613a7d565b60089193920491019138613a70565b60109193920491019138613a61565b60209193920491019138613a4f565b604093508104915038613a36565b604051906001600160a01b031680613b6783612bbb565b602a835260208084016040368237845115613c3e5760309053835190600191821015613c3e5790607860218601536029915b818311613bca57505050613bab575090565b6044906040519063e22e27eb60e01b8252600482015260146024820152fd5b909192600f81166010811015613c29578651851015613c29576f181899199a1a9b1b9c1cb0b131b232b360811b901a86850183015360041c928015613c1457600019019190613b99565b60246000634e487b7160e01b81526011600452fd5b60246000634e487b7160e01b81526032600452fd5b634e487b7160e01b600052603260045260246000fd5b613c5d81612b49565b8015613cf357613c6c81612b49565b60018114613ccd5780613c80600292612b49565b14613ca957604051613c9181612ba0565b600881526714995cdbdb1d995960c21b602082015290565b604051613cb581612ba0565b6008815267111a5cdc1d5d195960c21b602082015290565b50604051613cda81612ba0565b600981526810dbdb5c1b195d195960ba1b602082015290565b50604051613d0081612ba0565b600981526814d8da19591d5b195960ba1b60208201529056fea26469706673582212206d3fcae5af30056254185369b89aa80785c2ed92a43cf946fab3def444aad18564736f6c63430008140033","opcodes":"PUSH1 0x40 PUSH2 0x160 DUP2 MSTORE CALLVALUE PUSH3 0x4D9 JUMPI PUSH3 0x19 PUSH2 0x160 PUSH3 0x4DE JUMP JUMPDEST PUSH1 0x17 PUSH2 0x160 MSTORE PUSH32 0x506572666F726D616E636541677265656D656E744E4654000000000000000000 PUSH2 0x180 MSTORE DUP1 MLOAD PUSH3 0x51 DUP2 PUSH3 0x4DE JUMP JUMPDEST PUSH1 0x1 DUP2 MSTORE PUSH1 0x20 DUP2 ADD SWAP2 PUSH1 0x31 PUSH1 0xF8 SHL DUP4 MSTORE DUP1 MLOAD SWAP3 PUSH3 0x6F DUP5 PUSH3 0x4DE JUMP JUMPDEST PUSH1 0x14 DUP5 MSTORE PUSH32 0x506572666F726D616E636541677265656D656E74000000000000000000000000 PUSH1 0x20 DUP6 ADD MSTORE DUP2 MLOAD PUSH3 0xA6 DUP2 PUSH3 0x4DE JUMP JUMPDEST PUSH1 0x8 DUP2 MSTORE PUSH8 0x504552464147524D PUSH1 0xC0 SHL PUSH1 0x20 DUP3 ADD MSTORE DUP5 MLOAD PUSH1 0x1 PUSH1 0x1 PUSH1 0x40 SHL SUB DUP2 GT PUSH3 0x2D0 JUMPI PUSH1 0x0 SLOAD SWAP6 PUSH1 0x1 DUP8 DUP2 SHR SWAP8 AND DUP1 ISZERO PUSH3 0x4CE JUMPI JUMPDEST PUSH1 0x20 DUP9 LT EQ PUSH3 0x3C2 JUMPI DUP2 SWAP1 PUSH1 0x1F SWAP8 DUP9 DUP2 GT PUSH3 0x478 JUMPI JUMPDEST POP PUSH1 0x20 SWAP1 DUP9 DUP4 GT PUSH1 0x1 EQ PUSH3 0x3EF JUMPI PUSH1 0x0 SWAP3 PUSH3 0x3E3 JUMPI JUMPDEST POP POP DUP2 PUSH1 0x1 SHL SWAP2 PUSH1 0x0 NOT SWAP1 PUSH1 0x3 SHL SHR NOT AND OR PUSH1 0x0 SSTORE JUMPDEST DUP1 MLOAD SWAP1 PUSH1 0x1 PUSH1 0x1 PUSH1 0x40 SHL SUB DUP3 GT PUSH3 0x2D0 JUMPI PUSH1 0x1 SLOAD PUSH1 0x1 DUP2 DUP2 SHR SWAP2 AND DUP1 ISZERO PUSH3 0x3D8 JUMPI JUMPDEST PUSH1 0x20 DUP3 LT EQ PUSH3 0x3C2 JUMPI DUP7 DUP2 GT PUSH3 0x377 JUMPI JUMPDEST POP PUSH1 0x20 SWAP6 DUP3 GT PUSH1 0x1 EQ PUSH3 0x30A JUMPI SWAP5 DUP2 SWAP3 SWAP4 SWAP5 SWAP6 PUSH1 0x0 SWAP3 PUSH3 0x2FE JUMPI JUMPDEST POP POP DUP2 PUSH1 0x1 SHL SWAP2 PUSH1 0x0 NOT SWAP1 PUSH1 0x3 SHL SHR NOT AND OR PUSH1 0x1 SSTORE JUMPDEST CALLER ISZERO PUSH3 0x2E6 JUMPI PUSH1 0x7 DUP1 SLOAD CALLER PUSH1 0x1 PUSH1 0x1 PUSH1 0xA0 SHL SUB NOT DUP3 AND DUP2 OR SWAP1 SWAP3 SSTORE PUSH1 0x1 PUSH1 0x1 PUSH1 0xA0 SHL SUB AND PUSH32 0x8BE0079C531659141344CD1FD0A4F28419497F9722A3DAAFE3B4186F6B6457E0 PUSH1 0x0 DUP1 LOG3 PUSH3 0x1E6 PUSH2 0x160 PUSH3 0x4FA JUMP JUMPDEST PUSH2 0x120 SWAP1 DUP2 MSTORE PUSH3 0x1F7 DUP5 PUSH3 0x6C1 JUMP JUMPDEST SWAP2 PUSH2 0x140 SWAP3 DUP4 MSTORE PUSH2 0x160 MLOAD PUSH1 0x20 PUSH2 0x160 ADD KECCAK256 SWAP5 DUP6 PUSH1 0xE0 MSTORE MLOAD SWAP1 KECCAK256 SWAP4 PUSH2 0x100 SWAP5 DUP1 DUP7 MSTORE CHAINID PUSH1 0xA0 MSTORE DUP5 MLOAD SWAP1 PUSH1 0x20 DUP3 ADD SWAP3 PUSH32 0x8B73C3C69BB8FE3D512ECC4CF759CC79239F7B179B0FFACAA9A75D522B39400F DUP5 MSTORE DUP7 DUP4 ADD MSTORE PUSH1 0x60 DUP3 ADD MSTORE CHAINID PUSH1 0x80 DUP3 ADD MSTORE ADDRESS PUSH1 0xA0 DUP3 ADD MSTORE PUSH1 0xA0 DUP2 MSTORE PUSH1 0xC0 DUP2 ADD SWAP5 DUP2 DUP7 LT PUSH1 0x1 DUP1 PUSH1 0x40 SHL SUB DUP8 GT OR PUSH3 0x2D0 JUMPI DUP6 SWAP1 MSTORE MLOAD SWAP1 KECCAK256 PUSH1 0x80 MSTORE ADDRESS PUSH1 0xC0 MSTORE PUSH1 0x1 PUSH1 0xB SSTORE PUSH2 0x3D4F SWAP4 DUP5 PUSH3 0x87A DUP6 CODECOPY PUSH1 0x80 MLOAD DUP5 PUSH2 0x3824 ADD MSTORE PUSH1 0xA0 MLOAD DUP5 PUSH2 0x38EF ADD MSTORE PUSH1 0xC0 MLOAD DUP5 PUSH2 0x37EE ADD MSTORE PUSH1 0xE0 MLOAD DUP5 PUSH2 0x3873 ADD MSTORE MLOAD DUP4 PUSH2 0x3899 ADD MSTORE MLOAD DUP3 PUSH2 0x1061 ADD MSTORE MLOAD DUP2 PUSH2 0x108A ADD MSTORE RETURN JUMPDEST PUSH4 0x4E487B71 PUSH1 0xE0 SHL PUSH1 0x0 MSTORE PUSH1 0x41 PUSH1 0x4 MSTORE PUSH1 0x24 PUSH1 0x0 REVERT JUMPDEST DUP2 MLOAD PUSH4 0x1E4FBDF7 PUSH1 0xE0 SHL DUP2 MSTORE PUSH1 0x0 PUSH1 0x4 DUP3 ADD MSTORE PUSH1 0x24 SWAP1 REVERT JUMPDEST ADD MLOAD SWAP1 POP CODESIZE DUP1 PUSH3 0x179 JUMP JUMPDEST PUSH1 0x1F NOT DUP3 AND SWAP6 PUSH1 0x1 PUSH1 0x0 MSTORE PUSH1 0x20 PUSH1 0x0 KECCAK256 SWAP2 PUSH1 0x0 JUMPDEST DUP9 DUP2 LT PUSH3 0x35E JUMPI POP DUP4 PUSH1 0x1 SWAP6 SWAP7 SWAP8 SWAP9 LT PUSH3 0x344 JUMPI JUMPDEST POP POP POP DUP2 SHL ADD PUSH1 0x1 SSTORE PUSH3 0x18F JUMP JUMPDEST ADD MLOAD PUSH1 0x0 NOT PUSH1 0xF8 DUP5 PUSH1 0x3 SHL AND SHR NOT AND SWAP1 SSTORE CODESIZE DUP1 DUP1 PUSH3 0x335 JUMP JUMPDEST SWAP2 SWAP3 PUSH1 0x20 PUSH1 0x1 DUP2 SWAP3 DUP7 DUP6 ADD MLOAD DUP2 SSTORE ADD SWAP5 ADD SWAP3 ADD PUSH3 0x31E JUMP JUMPDEST PUSH1 0x1 PUSH1 0x0 MSTORE PUSH1 0x20 PUSH1 0x0 KECCAK256 DUP8 DUP1 DUP6 ADD PUSH1 0x5 SHR DUP3 ADD SWAP3 PUSH1 0x20 DUP7 LT PUSH3 0x3B8 JUMPI JUMPDEST ADD PUSH1 0x5 SHR ADD SWAP1 JUMPDEST DUP2 DUP2 LT PUSH3 0x3AB JUMPI POP PUSH3 0x15C JUMP JUMPDEST PUSH1 0x0 DUP2 SSTORE PUSH1 0x1 ADD PUSH3 0x39C JUMP JUMPDEST SWAP3 POP DUP2 SWAP3 PUSH3 0x395 JUMP JUMPDEST PUSH4 0x4E487B71 PUSH1 0xE0 SHL PUSH1 0x0 MSTORE PUSH1 0x22 PUSH1 0x4 MSTORE PUSH1 0x24 PUSH1 0x0 REVERT JUMPDEST SWAP1 PUSH1 0x7F AND SWAP1 PUSH3 0x149 JUMP JUMPDEST ADD MLOAD SWAP1 POP CODESIZE DUP1 PUSH3 0x10F JUMP JUMPDEST PUSH1 0x0 DUP1 DUP1 MSTORE PUSH32 0x290DECD9548B62A8D60345A988386FC84BA6BC95484008F6362F93160EF3E563 SWAP4 POP PUSH1 0x1F NOT DUP6 AND SWAP1 JUMPDEST DUP2 DUP2 LT PUSH3 0x45F JUMPI POP SWAP1 DUP5 PUSH1 0x1 SWAP6 SWAP5 SWAP4 SWAP3 LT PUSH3 0x445 JUMPI JUMPDEST POP POP POP DUP2 SHL ADD PUSH1 0x0 SSTORE PUSH3 0x125 JUMP JUMPDEST ADD MLOAD PUSH1 0x0 NOT PUSH1 0xF8 DUP5 PUSH1 0x3 SHL AND SHR NOT AND SWAP1 SSTORE CODESIZE DUP1 DUP1 PUSH3 0x436 JUMP JUMPDEST SWAP3 SWAP4 PUSH1 0x20 PUSH1 0x1 DUP2 SWAP3 DUP8 DUP7 ADD MLOAD DUP2 SSTORE ADD SWAP6 ADD SWAP4 ADD PUSH3 0x41E JUMP JUMPDEST SWAP1 SWAP2 POP PUSH1 0x0 DUP1 MSTORE PUSH1 0x20 PUSH1 0x0 KECCAK256 DUP9 DUP1 DUP6 ADD PUSH1 0x5 SHR DUP3 ADD SWAP3 PUSH1 0x20 DUP7 LT PUSH3 0x4C4 JUMPI JUMPDEST SWAP1 DUP6 SWAP5 SWAP4 SWAP3 SWAP2 ADD PUSH1 0x5 SHR ADD SWAP1 JUMPDEST DUP2 DUP2 LT PUSH3 0x4B4 JUMPI POP PUSH3 0xF7 JUMP JUMPDEST PUSH1 0x0 DUP2 SSTORE DUP5 SWAP4 POP PUSH1 0x1 ADD PUSH3 0x4A5 JUMP JUMPDEST SWAP3 POP DUP2 SWAP3 PUSH3 0x498 JUMP JUMPDEST SWAP7 PUSH1 0x7F AND SWAP7 PUSH3 0xDF JUMP JUMPDEST PUSH1 0x0 DUP1 REVERT JUMPDEST PUSH1 0x40 DUP2 ADD SWAP1 DUP2 LT PUSH1 0x1 PUSH1 0x1 PUSH1 0x40 SHL SUB DUP3 GT OR PUSH3 0x2D0 JUMPI PUSH1 0x40 MSTORE JUMP JUMPDEST DUP1 MLOAD PUSH1 0x20 SWAP1 DUP2 DUP2 LT ISZERO PUSH3 0x597 JUMPI POP PUSH1 0x1F DUP3 MLOAD GT PUSH3 0x536 JUMPI DUP1 DUP3 MLOAD SWAP3 ADD MLOAD SWAP1 DUP1 DUP4 LT PUSH3 0x527 JUMPI POP OR SWAP1 JUMP JUMPDEST DUP3 PUSH1 0x0 NOT SWAP2 SUB PUSH1 0x3 SHL SHL AND OR SWAP1 JUMP JUMPDEST SWAP1 PUSH1 0x40 MLOAD DUP1 SWAP3 PUSH4 0x305A27A9 PUSH1 0xE0 SHL DUP3 MSTORE DUP1 PUSH1 0x4 DUP4 ADD MSTORE DUP3 MLOAD SWAP1 DUP2 PUSH1 0x24 DUP5 ADD MSTORE PUSH1 0x0 SWAP4 JUMPDEST DUP3 DUP6 LT PUSH3 0x57D JUMPI POP POP PUSH1 0x44 SWAP3 POP PUSH1 0x0 DUP4 DUP3 DUP5 ADD ADD MSTORE PUSH1 0x1F DUP1 NOT SWAP2 ADD AND DUP2 ADD SUB ADD SWAP1 REVERT JUMPDEST DUP5 DUP2 ADD DUP3 ADD MLOAD DUP7 DUP7 ADD PUSH1 0x44 ADD MSTORE SWAP4 DUP2 ADD SWAP4 DUP6 SWAP4 POP PUSH3 0x559 JUMP JUMPDEST SWAP1 PUSH1 0x1 PUSH1 0x1 PUSH1 0x40 SHL SUB DUP3 GT PUSH3 0x2D0 JUMPI PUSH1 0x8 SLOAD SWAP3 PUSH1 0x1 SWAP4 DUP5 DUP2 DUP2 SHR SWAP2 AND DUP1 ISZERO PUSH3 0x6B6 JUMPI JUMPDEST DUP4 DUP3 LT EQ PUSH3 0x3C2 JUMPI PUSH1 0x1F DUP2 GT PUSH3 0x67C JUMPI JUMPDEST POP DUP2 PUSH1 0x1F DUP5 GT PUSH1 0x1 EQ PUSH3 0x610 JUMPI POP SWAP3 DUP3 SWAP4 SWAP2 DUP4 SWAP3 PUSH1 0x0 SWAP5 PUSH3 0x604 JUMPI JUMPDEST POP POP SHL SWAP2 PUSH1 0x0 NOT SWAP1 PUSH1 0x3 SHL SHR NOT AND OR PUSH1 0x8 SSTORE PUSH1 0xFF SWAP1 JUMP JUMPDEST ADD MLOAD SWAP3 POP CODESIZE DUP1 PUSH3 0x5ED JUMP JUMPDEST SWAP2 SWAP1 DUP4 PUSH1 0x1F NOT DUP2 AND PUSH1 0x8 PUSH1 0x0 MSTORE DUP5 PUSH1 0x0 KECCAK256 SWAP5 PUSH1 0x0 SWAP1 JUMPDEST DUP9 DUP4 DUP4 LT PUSH3 0x661 JUMPI POP POP POP LT PUSH3 0x647 JUMPI JUMPDEST POP POP POP DUP2 SHL ADD PUSH1 0x8 SSTORE PUSH1 0xFF SWAP1 JUMP JUMPDEST ADD MLOAD PUSH1 0x0 NOT PUSH1 0xF8 DUP5 PUSH1 0x3 SHL AND SHR NOT AND SWAP1 SSTORE CODESIZE DUP1 DUP1 PUSH3 0x639 JUMP JUMPDEST DUP6 DUP8 ADD MLOAD DUP9 SSTORE SWAP1 SWAP7 ADD SWAP6 SWAP5 DUP6 ADD SWAP5 DUP8 SWAP4 POP SWAP1 DUP2 ADD SWAP1 PUSH3 0x626 JUMP JUMPDEST PUSH1 0x8 PUSH1 0x0 MSTORE DUP5 PUSH1 0x1F DUP5 PUSH1 0x0 KECCAK256 SWAP3 ADD PUSH1 0x5 SHR DUP3 ADD SWAP2 PUSH1 0x1F DUP7 ADD PUSH1 0x5 SHR ADD JUMPDEST DUP3 DUP2 LT PUSH3 0x6A9 JUMPI POP POP PUSH3 0x5CF JUMP JUMPDEST PUSH1 0x0 DUP2 SSTORE ADD DUP6 SWAP1 PUSH3 0x699 JUMP JUMPDEST SWAP1 PUSH1 0x7F AND SWAP1 PUSH3 0x5BC JUMP JUMPDEST DUP1 MLOAD PUSH1 0x20 SWAP1 DUP2 DUP2 LT ISZERO PUSH3 0x74F JUMPI POP PUSH1 0x1F DUP3 MLOAD GT PUSH3 0x6EE JUMPI DUP1 DUP3 MLOAD SWAP3 ADD MLOAD SWAP1 DUP1 DUP4 LT PUSH3 0x527 JUMPI POP OR SWAP1 JUMP JUMPDEST SWAP1 PUSH1 0x40 MLOAD DUP1 SWAP3 PUSH4 0x305A27A9 PUSH1 0xE0 SHL DUP3 MSTORE DUP1 PUSH1 0x4 DUP4 ADD MSTORE DUP3 MLOAD SWAP1 DUP2 PUSH1 0x24 DUP5 ADD MSTORE PUSH1 0x0 SWAP4 JUMPDEST DUP3 DUP6 LT PUSH3 0x735 JUMPI POP POP PUSH1 0x44 SWAP3 POP PUSH1 0x0 DUP4 DUP3 DUP5 ADD ADD MSTORE PUSH1 0x1F DUP1 NOT SWAP2 ADD AND DUP2 ADD SUB ADD SWAP1 REVERT JUMPDEST DUP5 DUP2 ADD DUP3 ADD MLOAD DUP7 DUP7 ADD PUSH1 0x44 ADD MSTORE SWAP4 DUP2 ADD SWAP4 DUP6 SWAP4 POP PUSH3 0x711 JUMP JUMPDEST SWAP1 PUSH1 0x1 PUSH1 0x1 PUSH1 0x40 SHL SUB DUP3 GT PUSH3 0x2D0 JUMPI PUSH1 0x9 SLOAD SWAP3 PUSH1 0x1 SWAP4 DUP5 DUP2 DUP2 SHR SWAP2 AND DUP1 ISZERO PUSH3 0x86E JUMPI JUMPDEST DUP4 DUP3 LT EQ PUSH3 0x3C2 JUMPI PUSH1 0x1F DUP2 GT PUSH3 0x834 JUMPI JUMPDEST POP DUP2 PUSH1 0x1F DUP5 GT PUSH1 0x1 EQ PUSH3 0x7C8 JUMPI POP SWAP3 DUP3 SWAP4 SWAP2 DUP4 SWAP3 PUSH1 0x0 SWAP5 PUSH3 0x7BC JUMPI JUMPDEST POP POP SHL SWAP2 PUSH1 0x0 NOT SWAP1 PUSH1 0x3 SHL SHR NOT AND OR PUSH1 0x9 SSTORE PUSH1 0xFF SWAP1 JUMP JUMPDEST ADD MLOAD SWAP3 POP CODESIZE DUP1 PUSH3 0x7A5 JUMP JUMPDEST SWAP2 SWAP1 DUP4 PUSH1 0x1F NOT DUP2 AND PUSH1 0x9 PUSH1 0x0 MSTORE DUP5 PUSH1 0x0 KECCAK256 SWAP5 PUSH1 0x0 SWAP1 JUMPDEST DUP9 DUP4 DUP4 LT PUSH3 0x819 JUMPI POP POP POP LT PUSH3 0x7FF JUMPI JUMPDEST POP POP POP DUP2 SHL ADD PUSH1 0x9 SSTORE PUSH1 0xFF SWAP1 JUMP JUMPDEST ADD MLOAD PUSH1 0x0 NOT PUSH1 0xF8 DUP5 PUSH1 0x3 SHL AND SHR NOT AND SWAP1 SSTORE CODESIZE DUP1 DUP1 PUSH3 0x7F1 JUMP JUMPDEST DUP6 DUP8 ADD MLOAD DUP9 SSTORE SWAP1 SWAP7 ADD SWAP6 SWAP5 DUP6 ADD SWAP5 DUP8 SWAP4 POP SWAP1 DUP2 ADD SWAP1 PUSH3 0x7DE JUMP JUMPDEST PUSH1 0x9 PUSH1 0x0 MSTORE DUP5 PUSH1 0x1F DUP5 PUSH1 0x0 KECCAK256 SWAP3 ADD PUSH1 0x5 SHR DUP3 ADD SWAP2 PUSH1 0x1F DUP7 ADD PUSH1 0x5 SHR ADD JUMPDEST DUP3 DUP2 LT PUSH3 0x861 JUMPI POP POP PUSH3 0x787 JUMP JUMPDEST PUSH1 0x0 DUP2 SSTORE ADD DUP6 SWAP1 PUSH3 0x851 JUMP JUMPDEST SWAP1 PUSH1 0x7F AND SWAP1 PUSH3 0x774 JUMP INVALID PUSH1 0x80 DUP1 PUSH1 0x40 MSTORE PUSH1 0x4 CALLDATASIZE LT ISZERO PUSH2 0x13 JUMPI PUSH1 0x0 DUP1 REVERT JUMPDEST PUSH1 0x0 CALLDATALOAD PUSH1 0xE0 SHR SWAP1 DUP2 PUSH4 0x1FFC9A7 EQ PUSH2 0x29EE JUMPI POP DUP1 PUSH4 0x6FDDE03 EQ PUSH2 0x294B JUMPI DUP1 PUSH4 0x81812FC EQ PUSH2 0x290D JUMPI DUP1 PUSH4 0x95EA7B3 EQ PUSH2 0x2826 JUMPI DUP1 PUSH4 0x23B872DD EQ PUSH2 0x280F JUMPI DUP1 PUSH4 0x2B95DA66 EQ PUSH2 0x1FE0 JUMPI DUP1 PUSH4 0x42842E0E EQ PUSH2 0x1FB2 JUMPI DUP1 PUSH4 0x4F9F6FE6 EQ PUSH2 0x1D5B JUMPI DUP1 PUSH4 0x5EB37A31 EQ PUSH2 0x1227 JUMPI DUP1 PUSH4 0x6352211E EQ PUSH2 0x11F7 JUMPI DUP1 PUSH4 0x70A08231 EQ PUSH2 0x119E JUMPI DUP1 PUSH4 0x715018A6 EQ PUSH2 0x1141 JUMPI DUP1 PUSH4 0x84B0196E EQ PUSH2 0x1048 JUMPI DUP1 PUSH4 0x8DA5CB5B EQ PUSH2 0x101F JUMPI DUP1 PUSH4 0x95D89B41 EQ PUSH2 0xF40 JUMPI DUP1 PUSH4 0xA22CB465 EQ PUSH2 0xE9B JUMPI DUP1 PUSH4 0xA5C1674E EQ PUSH2 0xDC0 JUMPI DUP1 PUSH4 0xB88D4FDE EQ PUSH2 0xD53 JUMPI DUP1 PUSH4 0xC2B7B868 EQ PUSH2 0xC8E JUMPI DUP1 PUSH4 0xC87B56DD EQ PUSH2 0x64E JUMPI DUP1 PUSH4 0xCAC5C512 EQ PUSH2 0x468 JUMPI DUP1 PUSH4 0xE985E9C5 EQ PUSH2 0x412 JUMPI DUP1 PUSH4 0xF2FDE38B EQ PUSH2 0x389 JUMPI PUSH4 0xFEFA9291 EQ PUSH2 0x127 JUMPI PUSH1 0x0 DUP1 REVERT JUMPDEST CALLVALUE PUSH2 0x384 JUMPI PUSH1 0x20 DUP1 PUSH1 0x3 NOT CALLDATASIZE ADD SLT PUSH2 0x384 JUMPI PUSH1 0x4 CALLDATALOAD SWAP1 DUP2 PUSH1 0x0 MSTORE PUSH1 0x2 DUP2 MSTORE PUSH1 0x1 DUP1 PUSH1 0xA0 SHL SUB PUSH2 0x15E DUP2 PUSH1 0x40 PUSH1 0x0 KECCAK256 SLOAD AND ISZERO ISZERO PUSH2 0x35AB JUMP JUMPDEST DUP3 PUSH1 0x0 MSTORE PUSH1 0xA DUP3 MSTORE PUSH2 0x265 PUSH1 0x40 PUSH1 0x0 KECCAK256 SWAP2 PUSH1 0x40 MLOAD SWAP1 PUSH2 0x17C DUP3 PUSH2 0x2B69 JUMP JUMPDEST PUSH1 0x40 MLOAD PUSH2 0x194 DUP2 PUSH2 0x18D DUP2 DUP9 PUSH2 0x2CAF JUMP JUMPDEST SUB DUP3 PUSH2 0x2BD6 JUMP JUMPDEST DUP3 MSTORE PUSH1 0x40 MLOAD PUSH2 0x1AA DUP2 PUSH2 0x18D DUP2 PUSH1 0x1 DUP10 ADD PUSH2 0x2CAF JUMP JUMPDEST DUP6 DUP4 ADD MSTORE PUSH4 0xFFFFFFFF PUSH1 0x2 DUP6 ADD SLOAD PUSH1 0x1 PUSH1 0x1 PUSH1 0x40 SHL SUB DUP2 AND PUSH1 0x40 DUP6 ADD MSTORE PUSH1 0x40 SHR AND PUSH1 0x60 DUP4 ADD MSTORE PUSH1 0x40 MLOAD PUSH2 0x1E4 DUP2 PUSH2 0x18D DUP2 PUSH1 0x3 DUP10 ADD PUSH2 0x2CAF JUMP JUMPDEST PUSH1 0x80 DUP4 ADD MSTORE PUSH1 0x40 MLOAD PUSH2 0x1FD DUP2 PUSH2 0x18D DUP2 PUSH1 0x4 DUP10 ADD PUSH2 0x2CAF JUMP JUMPDEST PUSH1 0xA0 DUP4 ADD MSTORE DUP1 DUP1 PUSH1 0x5 DUP7 ADD SLOAD AND PUSH1 0xC0 DUP5 ADD SWAP1 DUP2 MSTORE DUP2 PUSH1 0x6 DUP8 ADD SLOAD AND SWAP4 PUSH1 0xE0 DUP2 ADD SWAP5 DUP6 MSTORE PUSH2 0x140 PUSH1 0xFF PUSH1 0x8 PUSH1 0x7 DUP11 ADD SLOAD SWAP10 PUSH2 0x100 SWAP11 DUP12 DUP7 ADD MSTORE ADD SLOAD DUP2 DUP2 AND PUSH2 0x243 DUP2 PUSH2 0x2B49 JUMP JUMPDEST PUSH2 0x120 DUP6 ADD MSTORE PUSH1 0x8 SHR AND ISZERO ISZERO SWAP2 ADD MSTORE MLOAD AND CALLER EQ SWAP2 DUP3 ISZERO PUSH2 0x376 JUMPI JUMPDEST POP POP PUSH2 0x35EB JUMP JUMPDEST DUP3 PUSH1 0x0 MSTORE PUSH1 0xA DUP3 MSTORE PUSH1 0x40 PUSH1 0x0 KECCAK256 SWAP1 PUSH1 0x8 DUP3 ADD SWAP1 DUP2 SLOAD PUSH1 0xFF DUP2 AND PUSH2 0x287 DUP2 PUSH2 0x2B49 JUMP JUMPDEST PUSH1 0x1 DUP2 EQ SWAP1 DUP2 ISZERO PUSH2 0x362 JUMPI JUMPDEST POP ISZERO PUSH2 0x31D JUMPI PUSH1 0xFF DUP2 PUSH1 0x8 SHR AND PUSH2 0x2E5 JUMPI PUSH2 0xFF00 NOT AND OR SWAP1 SSTORE PUSH1 0x7 ADD SLOAD PUSH1 0x40 DUP1 MLOAD SWAP2 DUP3 MSTORE CALLER SWAP3 DUP3 ADD SWAP3 SWAP1 SWAP3 MSTORE PUSH32 0xEB79E24102009F0D7F1EB4227511A0C5C61DB03F1560911DF6EBC1710F0D82D1 SWAP2 SWAP1 LOG2 STOP JUMPDEST PUSH1 0x40 MLOAD PUSH3 0x461BCD PUSH1 0xE5 SHL DUP2 MSTORE PUSH1 0x4 DUP2 ADD DUP7 SWAP1 MSTORE PUSH1 0x10 PUSH1 0x24 DUP3 ADD MSTORE PUSH16 0x105B1C9958591E481C9958DBDC991959 PUSH1 0x82 SHL PUSH1 0x44 DUP3 ADD MSTORE PUSH1 0x64 SWAP1 REVERT JUMPDEST PUSH1 0x40 MLOAD PUSH3 0x461BCD PUSH1 0xE5 SHL DUP2 MSTORE PUSH1 0x4 DUP2 ADD DUP7 SWAP1 MSTORE PUSH1 0x1A PUSH1 0x24 DUP3 ADD MSTORE PUSH32 0x496E76616C69642073746174757320666F72207061796D656E74000000000000 PUSH1 0x44 DUP3 ADD MSTORE PUSH1 0x64 SWAP1 REVERT JUMPDEST PUSH1 0x3 SWAP2 POP PUSH2 0x36F DUP2 PUSH2 0x2B49 JUMP JUMPDEST EQ CODESIZE PUSH2 0x293 JUMP JUMPDEST SWAP1 SWAP2 POP MLOAD AND CALLER EQ CODESIZE DUP1 PUSH2 0x25E JUMP JUMPDEST PUSH1 0x0 DUP1 REVERT JUMPDEST CALLVALUE PUSH2 0x384 JUMPI PUSH1 0x20 CALLDATASIZE PUSH1 0x3 NOT ADD SLT PUSH2 0x384 JUMPI PUSH2 0x3A2 PUSH2 0x2ABB JUMP JUMPDEST PUSH2 0x3AA PUSH2 0x2C49 JUMP JUMPDEST PUSH1 0x1 PUSH1 0x1 PUSH1 0xA0 SHL SUB SWAP1 DUP2 AND SWAP1 DUP2 ISZERO PUSH2 0x3F9 JUMPI PUSH1 0x7 SLOAD DUP3 PUSH1 0x1 PUSH1 0x1 PUSH1 0x60 SHL SUB PUSH1 0xA0 SHL DUP3 AND OR PUSH1 0x7 SSTORE AND PUSH32 0x8BE0079C531659141344CD1FD0A4F28419497F9722A3DAAFE3B4186F6B6457E0 PUSH1 0x0 DUP1 LOG3 STOP JUMPDEST PUSH1 0x40 MLOAD PUSH4 0x1E4FBDF7 PUSH1 0xE0 SHL DUP2 MSTORE PUSH1 0x0 PUSH1 0x4 DUP3 ADD MSTORE PUSH1 0x24 SWAP1 REVERT JUMPDEST CALLVALUE PUSH2 0x384 JUMPI PUSH1 0x40 CALLDATASIZE PUSH1 0x3 NOT ADD SLT PUSH2 0x384 JUMPI PUSH2 0x42B PUSH2 0x2ABB JUMP JUMPDEST PUSH2 0x433 PUSH2 0x2AD1 JUMP JUMPDEST SWAP1 PUSH1 0x1 DUP1 PUSH1 0xA0 SHL SUB DUP1 SWAP2 AND PUSH1 0x0 MSTORE PUSH1 0x5 PUSH1 0x20 MSTORE PUSH1 0x40 PUSH1 0x0 KECCAK256 SWAP2 AND PUSH1 0x0 MSTORE PUSH1 0x20 MSTORE PUSH1 0x20 PUSH1 0xFF PUSH1 0x40 PUSH1 0x0 KECCAK256 SLOAD AND PUSH1 0x40 MLOAD SWAP1 ISZERO ISZERO DUP2 MSTORE RETURN JUMPDEST CALLVALUE PUSH2 0x384 JUMPI PUSH1 0x20 DUP1 PUSH1 0x3 NOT CALLDATASIZE ADD SLT PUSH2 0x384 JUMPI PUSH1 0x4 CALLDATALOAD SWAP1 DUP2 PUSH1 0x0 MSTORE PUSH1 0x2 DUP2 MSTORE PUSH2 0x59B PUSH1 0x1 DUP1 PUSH1 0xA0 SHL SUB PUSH2 0x4A2 DUP2 PUSH1 0x40 PUSH1 0x0 KECCAK256 SLOAD AND ISZERO ISZERO PUSH2 0x35AB JUMP JUMPDEST DUP4 PUSH1 0x0 MSTORE PUSH1 0xA DUP4 MSTORE PUSH1 0x40 PUSH1 0x0 KECCAK256 SWAP1 DUP1 PUSH1 0x40 MLOAD PUSH2 0x4BD DUP2 PUSH2 0x2B69 JUMP JUMPDEST PUSH1 0x40 MLOAD PUSH2 0x4CE DUP2 PUSH2 0x18D DUP2 DUP9 PUSH2 0x2CAF JUMP JUMPDEST DUP2 MSTORE PUSH1 0x40 MLOAD PUSH2 0x4E4 DUP2 PUSH2 0x18D DUP2 PUSH1 0x1 DUP10 ADD PUSH2 0x2CAF JUMP JUMPDEST DUP7 DUP3 ADD MSTORE PUSH4 0xFFFFFFFF PUSH1 0x2 DUP6 ADD SLOAD PUSH1 0x1 PUSH1 0x1 PUSH1 0x40 SHL SUB DUP2 AND PUSH1 0x40 DUP5 ADD MSTORE PUSH1 0x40 SHR AND PUSH1 0x60 DUP3 ADD MSTORE PUSH1 0x40 MLOAD PUSH2 0x51E DUP2 PUSH2 0x18D DUP2 PUSH1 0x3 DUP10 ADD PUSH2 0x2CAF JUMP JUMPDEST PUSH1 0x80 DUP3 ADD MSTORE PUSH1 0x40 MLOAD PUSH2 0x537 DUP2 PUSH2 0x18D DUP2 PUSH1 0x4 DUP10 ADD PUSH2 0x2CAF JUMP JUMPDEST PUSH1 0xA0 DUP3 ADD MSTORE DUP2 PUSH1 0x5 DUP6 ADD SLOAD AND SWAP1 PUSH1 0xC0 DUP2 ADD SWAP2 DUP3 MSTORE PUSH2 0x140 PUSH1 0xFF PUSH1 0x8 DUP6 PUSH1 0x6 DUP10 ADD SLOAD AND SWAP8 PUSH1 0xE0 DUP6 ADD SWAP9 DUP10 MSTORE PUSH1 0x7 DUP2 ADD SLOAD PUSH2 0x100 DUP7 ADD MSTORE ADD SLOAD DUP2 DUP2 AND PUSH2 0x57A DUP2 PUSH2 0x2B49 JUMP JUMPDEST PUSH2 0x120 DUP6 ADD MSTORE PUSH1 0x8 SHR AND ISZERO ISZERO SWAP2 ADD MSTORE MLOAD AND CALLER EQ SWAP2 DUP3 ISZERO PUSH2 0x640 JUMPI POP POP PUSH2 0x35EB JUMP JUMPDEST DUP2 PUSH1 0x0 MSTORE PUSH1 0xA DUP2 MSTORE PUSH1 0x8 PUSH1 0x40 PUSH1 0x0 KECCAK256 ADD SWAP1 DUP2 SLOAD SWAP2 PUSH1 0xFF DUP4 AND SWAP3 PUSH2 0x5BD DUP5 PUSH2 0x2B49 JUMP JUMPDEST DUP4 PUSH2 0x60E JUMPI PUSH1 0x60 SWAP3 PUSH32 0xBE978056736FA4B5D6EF48BADE11EDC88BB6FE9193A2EFE99ED9E5B0B41ADE9E SWAP5 SWAP3 PUSH1 0x1 DUP1 SWAP4 PUSH1 0xFF NOT AND OR SWAP1 SSTORE PUSH1 0x40 MLOAD SWAP3 PUSH2 0x600 DUP2 PUSH2 0x2B49 JUMP JUMPDEST DUP4 MSTORE DUP3 ADD MSTORE CALLER PUSH1 0x40 DUP3 ADD MSTORE LOG2 STOP JUMPDEST PUSH1 0x40 MLOAD PUSH3 0x461BCD PUSH1 0xE5 SHL DUP2 MSTORE PUSH1 0x4 DUP2 ADD DUP5 SWAP1 MSTORE PUSH1 0xA PUSH1 0x24 DUP3 ADD MSTORE PUSH10 0x42616420737461747573 PUSH1 0xB0 SHL PUSH1 0x44 DUP3 ADD MSTORE PUSH1 0x64 SWAP1 REVERT JUMPDEST SWAP1 SWAP2 POP MLOAD AND CALLER EQ DUP5 DUP1 PUSH2 0x25E JUMP JUMPDEST CALLVALUE PUSH2 0x384 JUMPI PUSH1 0x20 CALLDATASIZE PUSH1 0x3 NOT ADD SLT PUSH2 0x384 JUMPI PUSH1 0x4 CALLDATALOAD PUSH1 0x0 SWAP1 DUP2 MSTORE PUSH1 0x2 PUSH1 0x20 MSTORE PUSH1 0x40 SWAP1 KECCAK256 SLOAD PUSH2 0x685 SWAP1 PUSH1 0x1 PUSH1 0x1 PUSH1 0xA0 SHL SUB AND ISZERO ISZERO PUSH2 0x35AB JUMP JUMPDEST PUSH1 0x4 CALLDATALOAD PUSH1 0x0 MSTORE PUSH1 0xA PUSH1 0x20 MSTORE PUSH1 0x40 PUSH1 0x0 KECCAK256 PUSH1 0xFF PUSH1 0x8 PUSH1 0x40 MLOAD SWAP3 PUSH2 0x6A6 DUP5 PUSH2 0x2B69 JUMP JUMPDEST PUSH1 0x40 MLOAD PUSH2 0x6B7 DUP2 PUSH2 0x18D DUP2 DUP6 PUSH2 0x2CAF JUMP JUMPDEST DUP5 MSTORE PUSH1 0x40 MLOAD PUSH2 0x6CD DUP2 PUSH2 0x18D DUP2 PUSH1 0x1 DUP7 ADD PUSH2 0x2CAF JUMP JUMPDEST PUSH1 0x20 DUP6 ADD MSTORE PUSH4 0xFFFFFFFF PUSH1 0x2 DUP3 ADD SLOAD PUSH1 0x1 PUSH1 0x1 PUSH1 0x40 SHL SUB DUP2 AND PUSH1 0x40 DUP8 ADD MSTORE PUSH1 0x40 SHR AND PUSH1 0x60 DUP6 ADD MSTORE PUSH1 0x40 MLOAD PUSH2 0x708 DUP2 PUSH2 0x18D DUP2 PUSH1 0x3 DUP7 ADD PUSH2 0x2CAF JUMP JUMPDEST PUSH1 0x80 DUP6 ADD MSTORE PUSH1 0x40 MLOAD PUSH2 0x721 DUP2 PUSH2 0x18D DUP2 PUSH1 0x4 DUP7 ADD PUSH2 0x2CAF JUMP JUMPDEST PUSH1 0xA0 DUP6 ADD MSTORE PUSH1 0x5 DUP2 ADD SLOAD PUSH1 0x1 PUSH1 0x1 PUSH1 0xA0 SHL SUB SWAP1 DUP2 AND PUSH1 0xC0 DUP7 ADD MSTORE PUSH1 0x6 DUP3 ADD SLOAD AND PUSH1 0xE0 DUP6 ADD MSTORE PUSH1 0x7 DUP2 ADD SLOAD PUSH2 0x100 DUP6 ADD MSTORE ADD SLOAD PUSH2 0x75E DUP3 DUP3 AND PUSH2 0x2B49 JUMP JUMPDEST DUP2 DUP2 AND PUSH2 0x120 DUP5 ADD MSTORE PUSH1 0x8 SHR AND ISZERO ISZERO PUSH2 0x140 DUP3 ADD MSTORE PUSH2 0x77E PUSH1 0x4 CALLDATALOAD PUSH2 0x3A0D JUMP JUMPDEST SWAP1 DUP1 MLOAD SWAP2 PUSH1 0x20 DUP3 ADD MLOAD SWAP3 PUSH2 0x79E PUSH1 0x1 PUSH1 0x1 PUSH1 0x40 SHL SUB PUSH1 0x40 DUP6 ADD MLOAD AND PUSH2 0x3A0D JUMP JUMPDEST SWAP3 PUSH2 0x7B2 PUSH4 0xFFFFFFFF PUSH1 0x60 DUP4 ADD MLOAD AND PUSH2 0x3A0D JUMP JUMPDEST SWAP5 PUSH1 0x80 DUP3 ADD MLOAD SWAP6 PUSH1 0xA0 DUP4 ADD MLOAD SWAP4 PUSH2 0x7D4 PUSH1 0x1 DUP1 PUSH1 0xA0 SHL SUB PUSH1 0xC0 DUP7 ADD MLOAD AND PUSH2 0x3B50 JUMP JUMPDEST PUSH1 0xE0 DUP6 ADD MLOAD SWAP1 SWAP2 SWAP1 PUSH2 0x7EE SWAP1 PUSH1 0x1 PUSH1 0x1 PUSH1 0xA0 SHL SUB AND PUSH2 0x3B50 JUMP JUMPDEST SWAP2 PUSH2 0x7FD PUSH2 0x100 DUP8 ADD MLOAD PUSH2 0x3A0D JUMP JUMPDEST SWAP9 PUSH2 0x140 PUSH2 0x818 PUSH2 0x120 DUP10 ADD MLOAD PUSH2 0x813 DUP2 PUSH2 0x2B49 JUMP JUMPDEST PUSH2 0x3C54 JUMP JUMPDEST SWAP8 ADD MLOAD ISZERO PUSH2 0xC6A JUMPI PUSH1 0x40 MLOAD PUSH2 0x82C DUP2 PUSH2 0x2BA0 JUMP JUMPDEST PUSH1 0x4 DUP2 MSTORE PUSH4 0x74727565 PUSH1 0xE0 SHL PUSH1 0x20 DUP3 ADD MSTORE SWAP8 JUMPDEST PUSH1 0x40 MLOAD SWAP12 DUP13 DUP1 SWAP12 PUSH1 0x20 DUP3 ADD PUSH1 0x7B PUSH1 0xF8 SHL SWAP1 MSTORE PUSH1 0x21 DUP3 ADD PUSH32 0x226E616D65223A22506572666F726D616E63652041677265656D656E74202300 SWAP1 MSTORE DUP1 MLOAD PUSH1 0x40 DUP2 SWAP4 ADD SWAP2 PUSH1 0x20 ADD SWAP2 PUSH2 0x88D SWAP3 PUSH2 0x2A73 JUMP JUMPDEST PUSH2 0x88B PUSH1 0xF2 SHL SWAP1 DUP13 ADD PUSH1 0x40 DUP2 ADD DUP3 SWAP1 MSTORE PUSH32 0x226465736372697074696F6E223A2241677265656D656E74206265747765656E PUSH1 0x42 DUP3 ADD MSTORE PUSH32 0x2061727469737420616E642076656E756520666F72206120706572666F726D61 PUSH1 0x62 DUP3 ADD MSTORE PUSH12 0x1B98D948195D995B9D0B888B PUSH1 0xA2 SHL PUSH1 0x82 DUP3 ADD MSTORE PUSH13 0x113B32B73AB2A730B6B2911D11 PUSH1 0x99 SHL PUSH1 0x8E DUP3 ADD MSTORE DUP7 MLOAD SWAP2 SWAP10 DUP11 SWAP8 DUP9 SWAP7 SWAP4 SWAP2 SWAP3 SWAP1 PUSH2 0x933 SWAP1 DUP4 SWAP1 PUSH1 0x9B DUP5 ADD SWAP1 PUSH1 0x20 ADD PUSH2 0x2A73 JUMP JUMPDEST ADD DUP6 PUSH1 0x9B DUP3 ADD MSTORE PUSH16 0x113B32B73AB2A0B2323932B9B9911D11 PUSH1 0x81 SHL PUSH1 0x9D DUP3 ADD MSTORE DUP2 MLOAD SWAP2 DUP3 PUSH1 0xAD DUP4 ADD SWAP2 PUSH1 0x20 ADD SWAP2 PUSH2 0x969 SWAP3 PUSH2 0x2A73 JUMP JUMPDEST ADD DUP5 PUSH1 0xAD DUP3 ADD MSTORE PUSH12 0x1139BA30B93A2A34B6B2911D PUSH1 0xA1 SHL PUSH1 0xAF DUP3 ADD MSTORE DUP2 MLOAD SWAP2 DUP3 PUSH1 0xBB DUP4 ADD SWAP2 PUSH1 0x20 ADD SWAP2 PUSH2 0x99B SWAP3 PUSH2 0x2A73 JUMP JUMPDEST ADD SWAP7 PUSH1 0xB PUSH1 0xFA SHL SWAP8 DUP9 PUSH1 0xBB DUP3 ADD MSTORE PUSH18 0x11323AB930BA34B7B726B4B73ABA32B9911D PUSH1 0x71 SHL PUSH1 0xBC DUP3 ADD MSTORE DUP2 MLOAD SWAP2 DUP3 PUSH1 0xCE DUP4 ADD SWAP2 PUSH1 0x20 ADD SWAP2 PUSH2 0x9DA SWAP3 PUSH2 0x2A73 JUMP JUMPDEST ADD DUP8 PUSH1 0xCE DUP3 ADD MSTORE PUSH22 0x1130B93A34B9BA29B7B1B4B0B62430B7323632911D11 PUSH1 0x51 SHL PUSH1 0xCF DUP3 ADD MSTORE DUP2 MLOAD SWAP2 DUP3 PUSH1 0xE5 DUP4 ADD SWAP2 PUSH1 0x20 ADD SWAP2 PUSH2 0xA16 SWAP3 PUSH2 0x2A73 JUMP JUMPDEST ADD DUP3 PUSH1 0xE5 DUP3 ADD MSTORE PUSH21 0x113B32B73AB2A9B7B1B4B0B62430B7323632911D11 PUSH1 0x59 SHL PUSH1 0xE7 DUP3 ADD MSTORE DUP2 MLOAD SWAP2 DUP3 PUSH1 0xFC DUP4 ADD SWAP2 PUSH1 0x20 ADD SWAP2 PUSH2 0xA51 SWAP3 PUSH2 0x2A73 JUMP JUMPDEST ADD DUP2 PUSH1 0xFC DUP3 ADD MSTORE PUSH16 0x1130B93A34B9BA2BB0B63632BA111D11 PUSH1 0x81 SHL PUSH1 0xFE DUP3 ADD MSTORE DUP3 MLOAD SWAP1 PUSH2 0x10E SWAP4 DUP3 DUP6 DUP4 ADD SWAP2 PUSH1 0x20 ADD SWAP2 PUSH2 0xA8A SWAP3 PUSH2 0x2A73 JUMP JUMPDEST ADD SWAP2 DUP3 ADD MSTORE PUSH15 0x113B32B73AB2ABB0B63632BA111D11 PUSH1 0x89 SHL PUSH2 0x110 DUP3 ADD MSTORE DUP3 MLOAD SWAP1 PUSH2 0x11F SWAP4 DUP3 DUP6 DUP4 ADD SWAP2 PUSH1 0x20 ADD SWAP2 PUSH2 0xAC1 SWAP3 PUSH2 0x2A73 JUMP JUMPDEST ADD SWAP2 DUP3 ADD MSTORE PUSH2 0x121 DUP2 ADD PUSH32 0x227061796D656E74416D6F756E7455736443656E7473223A0000000000000000 SWAP1 MSTORE DUP7 MLOAD SWAP1 PUSH2 0x139 SWAP8 DUP3 DUP10 DUP4 ADD SWAP2 PUSH1 0x20 ADD SWAP2 PUSH2 0xB07 SWAP3 PUSH2 0x2A73 JUMP JUMPDEST ADD SWAP1 DUP7 DUP3 ADD MSTORE PUSH10 0x1139BA30BA3AB9911D11 PUSH1 0xB1 SHL PUSH2 0x13A DUP3 ADD MSTORE DUP3 MLOAD SWAP1 PUSH2 0x144 SWAP4 DUP3 DUP6 DUP4 ADD SWAP2 PUSH1 0x20 ADD SWAP2 PUSH2 0xB3A SWAP3 PUSH2 0x2A73 JUMP JUMPDEST ADD SWAP2 DUP3 ADD MSTORE PUSH18 0x113830BCB6B2B73A2932B1B7B93232B2111D PUSH1 0x71 SHL PUSH2 0x146 DUP3 ADD MSTORE DUP2 MLOAD SWAP1 PUSH2 0x158 SWAP3 DUP3 DUP5 DUP4 ADD SWAP2 PUSH1 0x20 ADD SWAP2 PUSH2 0xB74 SWAP3 PUSH2 0x2A73 JUMP JUMPDEST ADD SWAP1 DUP2 ADD PUSH1 0x7D PUSH1 0xF8 SHL SWAP1 MSTORE SUB SWAP1 DUP2 ADD DUP3 MSTORE PUSH2 0x159 ADD PUSH2 0xB93 SWAP1 DUP3 PUSH2 0x2BD6 JUMP JUMPDEST PUSH1 0x40 MLOAD PUSH2 0xB9F DUP2 PUSH2 0x2BBB JUMP JUMPDEST PUSH1 0x40 DUP1 DUP3 MSTORE PUSH32 0x4142434445464748494A4B4C4D4E4F505152535455565758595A616263646566 PUSH1 0x20 DUP4 ADD MSTORE PUSH32 0x6768696A6B6C6D6E6F707172737475767778797A303132333435363738392B2F SWAP1 DUP3 ADD MSTORE PUSH2 0xBF8 SWAP2 PUSH2 0x3915 JUMP JUMPDEST PUSH1 0x40 MLOAD DUP1 SWAP2 PUSH1 0x20 DUP3 ADD PUSH32 0x646174613A6170706C69636174696F6E2F6A736F6E3B6261736536342C000000 SWAP1 MSTORE DUP1 MLOAD SWAP1 DUP2 PUSH1 0x3D DUP5 ADD SWAP2 PUSH1 0x20 ADD SWAP2 PUSH2 0xC3A SWAP3 PUSH2 0x2A73 JUMP JUMPDEST DUP2 ADD SUB PUSH1 0x1D DUP2 ADD DUP3 MSTORE PUSH1 0x3D ADD PUSH2 0xC50 SWAP1 DUP3 PUSH2 0x2BD6 JUMP JUMPDEST PUSH1 0x40 MLOAD DUP1 SWAP2 PUSH1 0x20 DUP3 MSTORE PUSH1 0x20 DUP3 ADD PUSH2 0xC66 SWAP2 PUSH2 0x2A96 JUMP JUMPDEST SUB SWAP1 RETURN JUMPDEST PUSH1 0x40 MLOAD PUSH2 0xC76 DUP2 PUSH2 0x2BA0 JUMP JUMPDEST PUSH1 0x5 DUP2 MSTORE PUSH5 0x66616C7365 PUSH1 0xD8 SHL PUSH1 0x20 DUP3 ADD MSTORE SWAP8 PUSH2 0x83F JUMP JUMPDEST CALLVALUE PUSH2 0x384 JUMPI PUSH1 0x20 CALLDATASIZE PUSH1 0x3 NOT ADD SLT PUSH2 0x384 JUMPI PUSH1 0x4 CALLDATALOAD PUSH2 0xCAA PUSH2 0x2C49 JUMP JUMPDEST DUP1 PUSH1 0x0 MSTORE PUSH1 0xA PUSH1 0x20 MSTORE PUSH1 0x8 PUSH1 0x40 PUSH1 0x0 KECCAK256 ADD DUP1 SLOAD PUSH1 0xFF DUP2 AND PUSH2 0xCCA DUP2 PUSH2 0x2B49 JUMP JUMPDEST PUSH1 0x2 DUP2 SUB PUSH2 0xD1F JUMPI PUSH32 0xBE978056736FA4B5D6EF48BADE11EDC88BB6FE9193A2EFE99ED9E5B0B41ADE9E SWAP3 PUSH1 0x3 PUSH1 0x60 SWAP4 PUSH1 0xFF NOT AND OR SWAP1 SSTORE PUSH1 0x40 MLOAD SWAP1 PUSH2 0xD0D DUP2 PUSH2 0x2B49 JUMP JUMPDEST DUP2 MSTORE PUSH1 0x3 PUSH1 0x20 DUP3 ADD MSTORE CALLER PUSH1 0x40 DUP3 ADD MSTORE LOG2 STOP JUMPDEST PUSH1 0x40 MLOAD PUSH3 0x461BCD PUSH1 0xE5 SHL DUP2 MSTORE PUSH1 0x20 PUSH1 0x4 DUP3 ADD MSTORE PUSH1 0xC PUSH1 0x24 DUP3 ADD MSTORE PUSH12 0x139BDD08191A5CDC1D5D1959 PUSH1 0xA2 SHL PUSH1 0x44 DUP3 ADD MSTORE PUSH1 0x64 SWAP1 REVERT JUMPDEST CALLVALUE PUSH2 0x384 JUMPI PUSH1 0x80 CALLDATASIZE PUSH1 0x3 NOT ADD SLT PUSH2 0x384 JUMPI PUSH2 0xD6C PUSH2 0x2ABB JUMP JUMPDEST PUSH2 0xD74 PUSH2 0x2AD1 JUMP JUMPDEST SWAP1 PUSH1 0x44 CALLDATALOAD PUSH1 0x64 CALLDATALOAD SWAP3 PUSH1 0x1 PUSH1 0x1 PUSH1 0x40 SHL SUB DUP5 GT PUSH2 0x384 JUMPI CALLDATASIZE PUSH1 0x23 DUP6 ADD SLT ISZERO PUSH2 0x384 JUMPI PUSH2 0xDAC PUSH2 0xDBE SWAP5 CALLDATASIZE SWAP1 PUSH1 0x24 DUP2 PUSH1 0x4 ADD CALLDATALOAD SWAP2 ADD PUSH2 0x2C12 JUMP JUMPDEST SWAP3 PUSH2 0xDB8 DUP4 DUP4 DUP4 PUSH2 0x2D45 JUMP JUMPDEST CALLER PUSH2 0x2F1F JUMP JUMPDEST STOP JUMPDEST CALLVALUE PUSH2 0x384 JUMPI PUSH1 0x20 DUP1 PUSH1 0x3 NOT CALLDATASIZE ADD SLT PUSH2 0x384 JUMPI PUSH1 0x4 CALLDATALOAD SWAP1 DUP2 PUSH1 0x0 MSTORE PUSH1 0x2 DUP2 MSTORE PUSH2 0xDFA PUSH1 0x1 DUP1 PUSH1 0xA0 SHL SUB PUSH2 0x4A2 DUP2 PUSH1 0x40 PUSH1 0x0 KECCAK256 SLOAD AND ISZERO ISZERO PUSH2 0x35AB JUMP JUMPDEST DUP2 PUSH1 0x0 MSTORE PUSH1 0xA DUP2 MSTORE PUSH1 0x8 PUSH1 0x40 PUSH1 0x0 KECCAK256 ADD SWAP1 DUP2 SLOAD SWAP2 PUSH1 0xFF DUP4 AND SWAP3 PUSH2 0xE1C DUP5 PUSH2 0x2B49 JUMP JUMPDEST PUSH1 0x1 DUP5 SUB PUSH2 0xE62 JUMPI PUSH1 0x60 SWAP3 PUSH32 0xBE978056736FA4B5D6EF48BADE11EDC88BB6FE9193A2EFE99ED9E5B0B41ADE9E SWAP5 SWAP3 PUSH1 0x2 DUP1 SWAP4 PUSH1 0xFF NOT AND OR SWAP1 SSTORE PUSH1 0x40 MLOAD SWAP3 PUSH2 0x600 DUP2 PUSH2 0x2B49 JUMP JUMPDEST PUSH1 0x40 MLOAD PUSH3 0x461BCD PUSH1 0xE5 SHL DUP2 MSTORE PUSH1 0x4 DUP2 ADD DUP5 SWAP1 MSTORE PUSH1 0x11 PUSH1 0x24 DUP3 ADD MSTORE PUSH17 0x135D5CDD0818994818DBDB5C1B195D1959 PUSH1 0x7A SHL PUSH1 0x44 DUP3 ADD MSTORE PUSH1 0x64 SWAP1 REVERT JUMPDEST CALLVALUE PUSH2 0x384 JUMPI PUSH1 0x40 CALLDATASIZE PUSH1 0x3 NOT ADD SLT PUSH2 0x384 JUMPI PUSH2 0xEB4 PUSH2 0x2ABB JUMP JUMPDEST PUSH1 0x24 CALLDATALOAD SWAP1 DUP2 ISZERO ISZERO DUP1 SWAP3 SUB PUSH2 0x384 JUMPI PUSH1 0x1 PUSH1 0x1 PUSH1 0xA0 SHL SUB AND SWAP1 DUP2 ISZERO PUSH2 0xF27 JUMPI CALLER PUSH1 0x0 MSTORE PUSH1 0x5 PUSH1 0x20 MSTORE PUSH1 0x40 PUSH1 0x0 KECCAK256 DUP3 PUSH1 0x0 MSTORE PUSH1 0x20 MSTORE PUSH1 0x40 PUSH1 0x0 KECCAK256 PUSH1 0xFF NOT DUP2 SLOAD AND PUSH1 0xFF DUP4 AND OR SWAP1 SSTORE PUSH1 0x40 MLOAD SWAP1 DUP2 MSTORE PUSH32 0x17307EAB39AB6107E8899845AD3D59BD9653F200F220920489CA2B5937696C31 PUSH1 0x20 CALLER SWAP3 LOG3 STOP JUMPDEST PUSH1 0x40 MLOAD PUSH4 0xB611743 PUSH1 0xE3 SHL DUP2 MSTORE PUSH1 0x4 DUP2 ADD DUP4 SWAP1 MSTORE PUSH1 0x24 SWAP1 REVERT JUMPDEST CALLVALUE PUSH2 0x384 JUMPI PUSH1 0x0 CALLDATASIZE PUSH1 0x3 NOT ADD SLT PUSH2 0x384 JUMPI PUSH1 0x40 MLOAD PUSH1 0x0 PUSH1 0x1 DUP1 SLOAD SWAP1 PUSH2 0xF64 DUP3 PUSH2 0x2C75 JUMP JUMPDEST DUP1 DUP6 MSTORE SWAP2 DUP2 DUP2 AND SWAP1 DUP2 ISZERO PUSH2 0xFF8 JUMPI POP PUSH1 0x1 EQ PUSH2 0xF9F JUMPI JUMPDEST PUSH2 0xC66 DUP5 PUSH2 0xF8B DUP2 DUP7 SUB DUP3 PUSH2 0x2BD6 JUMP JUMPDEST PUSH1 0x40 MLOAD SWAP2 DUP3 SWAP2 PUSH1 0x20 DUP4 MSTORE PUSH1 0x20 DUP4 ADD SWAP1 PUSH2 0x2A96 JUMP JUMPDEST PUSH1 0x0 DUP2 DUP2 MSTORE SWAP3 POP PUSH32 0xB10E2D527612073B26EECDFD717E6A320CF44B4AFAC2B0732D9FCBE2B7FA0CF6 JUMPDEST DUP3 DUP5 LT PUSH2 0xFE0 JUMPI POP POP POP DUP2 ADD PUSH1 0x20 ADD PUSH2 0xF8B DUP3 PUSH2 0xF7B JUMP JUMPDEST DUP1 SLOAD PUSH1 0x20 DUP6 DUP8 ADD DUP2 ADD SWAP2 SWAP1 SWAP2 MSTORE SWAP1 SWAP4 ADD SWAP3 DUP2 ADD PUSH2 0xFC8 JUMP JUMPDEST PUSH1 0xFF NOT AND PUSH1 0x20 DUP1 DUP8 ADD SWAP2 SWAP1 SWAP2 MSTORE SWAP3 ISZERO ISZERO PUSH1 0x5 SHL DUP6 ADD SWAP1 SWAP3 ADD SWAP3 POP PUSH2 0xF8B SWAP2 POP DUP4 SWAP1 POP PUSH2 0xF7B JUMP JUMPDEST CALLVALUE PUSH2 0x384 JUMPI PUSH1 0x0 CALLDATASIZE PUSH1 0x3 NOT ADD SLT PUSH2 0x384 JUMPI PUSH1 0x7 SLOAD PUSH1 0x40 MLOAD PUSH1 0x1 PUSH1 0x1 PUSH1 0xA0 SHL SUB SWAP1 SWAP2 AND DUP2 MSTORE PUSH1 0x20 SWAP1 RETURN JUMPDEST CALLVALUE PUSH2 0x384 JUMPI PUSH1 0x0 CALLDATASIZE PUSH1 0x3 NOT ADD SLT PUSH2 0x384 JUMPI PUSH2 0x10F1 PUSH2 0x1085 PUSH32 0x0 PUSH2 0x306D JUMP JUMPDEST PUSH2 0x10AE PUSH32 0x0 PUSH2 0x3169 JUMP JUMPDEST SWAP1 PUSH1 0x40 MLOAD SWAP1 PUSH2 0x10BC DUP3 PUSH2 0x2B85 JUMP JUMPDEST PUSH1 0x0 DUP3 MSTORE PUSH1 0x40 MLOAD SWAP4 DUP5 SWAP4 PUSH1 0xF PUSH1 0xF8 SHL DUP6 MSTORE PUSH2 0x10E3 PUSH1 0x20 SWAP4 PUSH1 0xE0 DUP6 DUP9 ADD MSTORE PUSH1 0xE0 DUP8 ADD SWAP1 PUSH2 0x2A96 JUMP JUMPDEST SWAP1 DUP6 DUP3 SUB PUSH1 0x40 DUP8 ADD MSTORE PUSH2 0x2A96 JUMP JUMPDEST CHAINID PUSH1 0x60 DUP6 ADD MSTORE ADDRESS PUSH1 0x80 DUP6 ADD MSTORE PUSH1 0x0 PUSH1 0xA0 DUP6 ADD MSTORE DUP4 DUP2 SUB PUSH1 0xC0 DUP6 ADD MSTORE DUP2 DUP1 DUP5 MLOAD SWAP3 DUP4 DUP2 MSTORE ADD SWAP4 ADD SWAP2 PUSH1 0x0 JUMPDEST DUP3 DUP2 LT PUSH2 0x112A JUMPI POP POP POP POP SUB SWAP1 RETURN JUMPDEST DUP4 MLOAD DUP6 MSTORE DUP7 SWAP6 POP SWAP4 DUP2 ADD SWAP4 SWAP3 DUP2 ADD SWAP3 PUSH1 0x1 ADD PUSH2 0x111B JUMP JUMPDEST CALLVALUE PUSH2 0x384 JUMPI PUSH1 0x0 CALLDATASIZE PUSH1 0x3 NOT ADD SLT PUSH2 0x384 JUMPI PUSH2 0x115A PUSH2 0x2C49 JUMP JUMPDEST PUSH1 0x7 DUP1 SLOAD PUSH1 0x1 PUSH1 0x1 PUSH1 0xA0 SHL SUB NOT DUP2 AND SWAP1 SWAP2 SSTORE PUSH1 0x0 SWAP1 PUSH1 0x1 PUSH1 0x1 PUSH1 0xA0 SHL SUB AND PUSH32 0x8BE0079C531659141344CD1FD0A4F28419497F9722A3DAAFE3B4186F6B6457E0 DUP3 DUP1 LOG3 STOP JUMPDEST CALLVALUE PUSH2 0x384 JUMPI PUSH1 0x20 CALLDATASIZE PUSH1 0x3 NOT ADD SLT PUSH2 0x384 JUMPI PUSH1 0x1 PUSH1 0x1 PUSH1 0xA0 SHL SUB PUSH2 0x11BF PUSH2 0x2ABB JUMP JUMPDEST AND DUP1 ISZERO PUSH2 0x11DE JUMPI PUSH1 0x0 MSTORE PUSH1 0x3 PUSH1 0x20 MSTORE PUSH1 0x20 PUSH1 0x40 PUSH1 0x0 KECCAK256 SLOAD PUSH1 0x40 MLOAD SWAP1 DUP2 MSTORE RETURN JUMPDEST PUSH1 0x40 MLOAD PUSH4 0x22718AD9 PUSH1 0xE2 SHL DUP2 MSTORE PUSH1 0x0 PUSH1 0x4 DUP3 ADD MSTORE PUSH1 0x24 SWAP1 REVERT JUMPDEST CALLVALUE PUSH2 0x384 JUMPI PUSH1 0x20 CALLDATASIZE PUSH1 0x3 NOT ADD SLT PUSH2 0x384 JUMPI PUSH1 0x20 PUSH2 0x1215 PUSH1 0x4 CALLDATALOAD PUSH2 0x2EE4 JUMP JUMPDEST PUSH1 0x40 MLOAD PUSH1 0x1 PUSH1 0x1 PUSH1 0xA0 SHL SUB SWAP1 SWAP2 AND DUP2 MSTORE RETURN JUMPDEST CALLVALUE PUSH2 0x384 JUMPI PUSH1 0x3 NOT PUSH1 0x40 CALLDATASIZE DUP3 ADD SLT PUSH2 0x384 JUMPI PUSH1 0x1 PUSH1 0x1 PUSH1 0x40 SHL SUB PUSH1 0x4 CALLDATALOAD GT PUSH2 0x384 JUMPI PUSH2 0x120 SWAP1 PUSH1 0x4 CALLDATALOAD CALLDATASIZE SUB ADD SLT PUSH2 0x384 JUMPI PUSH1 0x24 CALLDATALOAD PUSH1 0x1 PUSH1 0x1 PUSH1 0x40 SHL SUB DUP2 GT PUSH2 0x384 JUMPI PUSH2 0x1277 SWAP1 CALLDATASIZE SWAP1 PUSH1 0x4 ADD PUSH2 0x2B1C JUMP JUMPDEST PUSH1 0x1 PUSH1 0x1 PUSH1 0xA0 SHL SUB PUSH2 0x128D PUSH1 0x4 CALLDATALOAD PUSH1 0xE4 ADD PUSH2 0x3629 JUMP JUMPDEST AND CALLER SUB PUSH2 0x1D16 JUMPI PUSH1 0x1 PUSH1 0x1 PUSH1 0xA0 SHL SUB PUSH2 0x12AA PUSH1 0x4 CALLDATALOAD PUSH1 0xC4 ADD PUSH2 0x3629 JUMP JUMPDEST AND ISZERO ISZERO DUP1 PUSH2 0x1CF7 JUMPI JUMPDEST ISZERO PUSH2 0x1CC3 JUMPI PUSH2 0x12C6 PUSH1 0x44 PUSH1 0x4 CALLDATALOAD ADD PUSH2 0x363D JUMP JUMPDEST SWAP1 PUSH3 0x1517F NOT TIMESTAMP ADD TIMESTAMP DUP2 GT PUSH2 0x1CAD JUMPI PUSH2 0x14AB SWAP4 PUSH2 0x12F3 PUSH2 0x149C SWAP3 PUSH1 0x1 PUSH1 0x1 PUSH1 0x40 SHL SUB PUSH2 0x14A2 SWAP7 AND GT PUSH2 0x3255 JUMP JUMPDEST PUSH4 0xFFFFFFFF PUSH2 0x1306 PUSH1 0x64 PUSH1 0x4 CALLDATALOAD ADD PUSH2 0x3651 JUMP JUMPDEST AND ISZERO ISZERO DUP1 PUSH2 0x1C89 JUMPI JUMPDEST PUSH2 0x1318 SWAP1 PUSH2 0x3296 JUMP JUMPDEST PUSH2 0x132A PUSH2 0x104 PUSH1 0x4 CALLDATALOAD ADD CALLDATALOAD ISZERO ISZERO PUSH2 0x32D5 JUMP JUMPDEST PUSH1 0x42 PUSH2 0x1344 PUSH2 0x133D PUSH1 0x4 DUP1 CALLDATALOAD ADD DUP1 PUSH2 0x3662 JUMP JUMPDEST CALLDATASIZE SWAP2 PUSH2 0x2C12 JUMP JUMPDEST PUSH1 0x20 DUP2 MLOAD SWAP2 ADD KECCAK256 PUSH2 0x1362 PUSH2 0x133D PUSH1 0x24 PUSH1 0x4 CALLDATALOAD ADD PUSH1 0x4 CALLDATALOAD PUSH1 0x4 ADD PUSH2 0x3662 JUMP JUMPDEST PUSH1 0x20 DUP2 MLOAD SWAP2 ADD KECCAK256 PUSH2 0x1377 PUSH1 0x44 PUSH1 0x4 CALLDATALOAD ADD PUSH2 0x363D JUMP JUMPDEST PUSH2 0x1385 PUSH1 0x64 PUSH1 0x4 CALLDATALOAD ADD PUSH2 0x3651 JUMP JUMPDEST PUSH2 0x139C PUSH2 0x133D PUSH1 0x84 PUSH1 0x4 CALLDATALOAD ADD PUSH1 0x4 CALLDATALOAD PUSH1 0x4 ADD PUSH2 0x3662 JUMP JUMPDEST PUSH1 0x20 DUP2 MLOAD SWAP2 ADD KECCAK256 PUSH2 0x13BA PUSH2 0x133D PUSH1 0xA4 PUSH1 0x4 CALLDATALOAD ADD PUSH1 0x4 CALLDATALOAD PUSH1 0x4 ADD PUSH2 0x3662 JUMP JUMPDEST PUSH1 0x20 DUP2 MLOAD SWAP2 ADD KECCAK256 SWAP1 PUSH4 0xFFFFFFFF PUSH2 0x13D5 PUSH1 0xC4 PUSH1 0x4 CALLDATALOAD ADD PUSH2 0x3629 JUMP JUMPDEST SWAP4 PUSH1 0x1 PUSH1 0x1 PUSH1 0x40 SHL SUB PUSH2 0x13EC PUSH1 0xE4 PUSH1 0x4 CALLDATALOAD ADD PUSH2 0x3629 JUMP JUMPDEST SWAP7 PUSH1 0x40 MLOAD SWAP9 PUSH1 0x20 DUP11 ADD SWAP11 PUSH32 0xA0A878E5693A37F578742A15A4CB856F692AAE1E9FD056FACC2C1EDA5A985619 DUP13 MSTORE PUSH1 0x40 DUP12 ADD MSTORE PUSH1 0x60 DUP11 ADD MSTORE AND PUSH1 0x80 DUP9 ADD MSTORE AND PUSH1 0xA0 DUP7 ADD MSTORE PUSH1 0xC0 DUP6 ADD MSTORE PUSH1 0xE0 DUP5 ADD MSTORE PUSH1 0x1 DUP1 PUSH1 0xA0 SHL SUB AND PUSH2 0x100 DUP4 ADD MSTORE PUSH1 0x1 DUP1 PUSH1 0xA0 SHL SUB AND PUSH2 0x120 DUP3 ADD MSTORE PUSH2 0x104 PUSH1 0x4 CALLDATALOAD ADD CALLDATALOAD PUSH2 0x140 DUP3 ADD MSTORE PUSH2 0x140 DUP2 MSTORE PUSH2 0x1471 DUP2 PUSH2 0x2B69 JUMP JUMPDEST MLOAD SWAP1 KECCAK256 PUSH2 0x147C PUSH2 0x37EB JUMP JUMPDEST SWAP1 PUSH1 0x40 MLOAD SWAP2 PUSH2 0x1901 PUSH1 0xF0 SHL DUP4 MSTORE PUSH1 0x2 DUP4 ADD MSTORE PUSH1 0x22 DUP3 ADD MSTORE KECCAK256 SWAP3 CALLDATASIZE SWAP2 PUSH2 0x2C12 JUMP JUMPDEST SWAP1 PUSH2 0x3694 JUMP JUMPDEST SWAP1 SWAP3 SWAP2 SWAP3 PUSH2 0x3760 JUMP JUMPDEST PUSH1 0x1 PUSH1 0x1 PUSH1 0xA0 SHL SUB PUSH2 0x14C1 PUSH1 0x4 CALLDATALOAD PUSH1 0xC4 ADD PUSH2 0x3629 JUMP JUMPDEST AND PUSH1 0x1 PUSH1 0x1 PUSH1 0xA0 SHL SUB SWAP1 SWAP2 AND SUB PUSH2 0x1C4D JUMPI PUSH1 0xB SLOAD PUSH2 0x14DE DUP2 PUSH2 0x3317 JUMP JUMPDEST PUSH1 0xB SSTORE PUSH2 0x14EF PUSH1 0x4 DUP1 CALLDATALOAD ADD DUP1 PUSH2 0x3662 JUMP JUMPDEST SWAP2 SWAP1 PUSH2 0x1503 PUSH1 0x4 DUP1 CALLDATALOAD PUSH1 0x24 DUP2 ADD SWAP2 ADD PUSH2 0x3662 JUMP JUMPDEST SWAP1 PUSH2 0x1512 PUSH1 0x44 PUSH1 0x4 CALLDATALOAD ADD PUSH2 0x363D JUMP JUMPDEST PUSH2 0x1520 PUSH1 0x64 PUSH1 0x4 CALLDATALOAD ADD PUSH2 0x3651 JUMP JUMPDEST PUSH2 0x1532 PUSH1 0x4 DUP1 CALLDATALOAD PUSH1 0x84 DUP2 ADD SWAP2 ADD PUSH2 0x3662 JUMP JUMPDEST SWAP1 SWAP2 PUSH2 0x1546 PUSH1 0x4 DUP1 CALLDATALOAD PUSH1 0xA4 DUP2 ADD SWAP2 ADD PUSH2 0x3662 JUMP JUMPDEST SWAP5 SWAP1 SWAP6 PUSH1 0x4 CALLDATALOAD PUSH1 0xC4 ADD PUSH2 0x1558 SWAP1 PUSH2 0x3629 JUMP JUMPDEST SWAP8 PUSH2 0x1567 PUSH1 0xE4 PUSH1 0x4 CALLDATALOAD ADD PUSH2 0x3629 JUMP JUMPDEST SWAP10 PUSH1 0x40 MLOAD SWAP13 PUSH2 0x1575 DUP15 PUSH2 0x2B69 JUMP JUMPDEST CALLDATASIZE SWAP1 PUSH2 0x1580 SWAP3 PUSH2 0x2C12 JUMP JUMPDEST DUP13 MSTORE CALLDATASIZE SWAP1 PUSH2 0x158D SWAP3 PUSH2 0x2C12 JUMP JUMPDEST PUSH1 0x20 DUP12 ADD MSTORE PUSH1 0x1 PUSH1 0x1 PUSH1 0x40 SHL SUB AND PUSH1 0x40 DUP11 ADD MSTORE PUSH4 0xFFFFFFFF AND PUSH1 0x60 DUP10 ADD MSTORE CALLDATASIZE SWAP1 PUSH2 0x15B6 SWAP3 PUSH2 0x2C12 JUMP JUMPDEST PUSH1 0x80 DUP8 ADD MSTORE CALLDATASIZE SWAP1 PUSH2 0x15C6 SWAP3 PUSH2 0x2C12 JUMP JUMPDEST PUSH1 0xA0 DUP6 ADD MSTORE PUSH1 0x1 PUSH1 0x1 PUSH1 0xA0 SHL SUB SWAP1 DUP2 AND PUSH1 0xC0 DUP6 ADD MSTORE AND PUSH1 0xE0 DUP4 ADD MSTORE PUSH2 0x104 PUSH1 0x4 CALLDATALOAD ADD CALLDATALOAD PUSH2 0x100 DUP4 ADD MSTORE PUSH1 0x0 PUSH2 0x120 DUP4 ADD DUP2 SWAP1 MSTORE PUSH2 0x140 DUP4 ADD DUP2 SWAP1 MSTORE DUP2 DUP2 MSTORE PUSH1 0xA PUSH1 0x20 MSTORE PUSH1 0x40 SWAP1 KECCAK256 DUP3 MLOAD DUP1 MLOAD SWAP1 SWAP4 SWAP2 SWAP1 PUSH1 0x1 PUSH1 0x1 PUSH1 0x40 SHL SUB DUP2 GT PUSH2 0x1A02 JUMPI PUSH2 0x162D DUP3 SLOAD PUSH2 0x2C75 JUMP JUMPDEST PUSH1 0x1F DUP2 GT PUSH2 0x1C09 JUMPI JUMPDEST POP PUSH1 0x20 PUSH1 0x1F DUP3 GT PUSH1 0x1 EQ PUSH2 0x1BA2 JUMPI DUP2 SWAP3 SWAP4 SWAP5 SWAP6 PUSH1 0x0 SWAP3 PUSH2 0x1B97 JUMPI JUMPDEST POP POP DUP2 PUSH1 0x1 SHL SWAP2 PUSH1 0x0 NOT SWAP1 PUSH1 0x3 SHL SHR NOT AND OR DUP2 SSTORE JUMPDEST PUSH1 0x20 DUP3 ADD MLOAD SWAP3 DUP4 MLOAD PUSH1 0x1 PUSH1 0x1 PUSH1 0x40 SHL SUB DUP2 GT PUSH2 0x1A02 JUMPI PUSH2 0x1689 PUSH1 0x1 DUP5 ADD SLOAD PUSH2 0x2C75 JUMP JUMPDEST PUSH1 0x1F DUP2 GT PUSH2 0x1B50 JUMPI JUMPDEST POP PUSH1 0x20 PUSH1 0x1F DUP3 GT PUSH1 0x1 EQ PUSH2 0x1AE1 JUMPI DUP2 SWAP3 SWAP4 SWAP5 SWAP6 PUSH1 0x0 SWAP3 PUSH2 0x1AD6 JUMPI JUMPDEST POP POP DUP2 PUSH1 0x1 SHL SWAP2 PUSH1 0x0 NOT SWAP1 PUSH1 0x3 SHL SHR NOT AND OR PUSH1 0x1 DUP4 ADD SSTORE JUMPDEST PUSH1 0x2 DUP3 ADD PUSH1 0x1 PUSH1 0x1 PUSH1 0x40 SHL SUB PUSH1 0x40 DUP6 ADD MLOAD AND DUP2 SLOAD SWAP1 PUSH4 0xFFFFFFFF PUSH1 0x40 SHL PUSH1 0x60 DUP8 ADD MLOAD PUSH1 0x40 SHL AND SWAP2 PUSH1 0x1 PUSH1 0x1 PUSH1 0x60 SHL SUB NOT AND OR OR SWAP1 SSTORE PUSH1 0x80 DUP4 ADD MLOAD SWAP3 DUP4 MLOAD PUSH1 0x1 PUSH1 0x1 PUSH1 0x40 SHL SUB DUP2 GT PUSH2 0x1A02 JUMPI PUSH2 0x171D PUSH1 0x3 DUP6 ADD SLOAD PUSH2 0x2C75 JUMP JUMPDEST PUSH1 0x1F DUP2 GT PUSH2 0x1A8F JUMPI JUMPDEST POP PUSH1 0x20 SWAP5 PUSH1 0x1F DUP3 GT PUSH1 0x1 EQ PUSH2 0x1A23 JUMPI SWAP5 DUP2 SWAP3 SWAP4 SWAP5 SWAP6 PUSH1 0x0 SWAP3 PUSH2 0x1A18 JUMPI JUMPDEST POP POP DUP2 PUSH1 0x1 SHL SWAP2 PUSH1 0x0 NOT SWAP1 PUSH1 0x3 SHL SHR NOT AND OR PUSH1 0x3 DUP5 ADD SSTORE JUMPDEST PUSH1 0xA0 DUP2 ADD MLOAD SWAP3 DUP4 MLOAD PUSH1 0x1 PUSH1 0x1 PUSH1 0x40 SHL SUB DUP2 GT PUSH2 0x1A02 JUMPI PUSH2 0x177E PUSH1 0x4 DUP4 ADD SLOAD PUSH2 0x2C75 JUMP JUMPDEST SWAP5 PUSH1 0x1F DUP7 GT PUSH2 0x19BB JUMPI JUMPDEST PUSH1 0x20 SWAP6 POP DUP6 SWAP1 PUSH1 0x1F DUP4 GT PUSH1 0x1 EQ PUSH2 0x1943 JUMPI SWAP3 DUP3 PUSH2 0x140 SWAP4 PUSH1 0x8 SWAP4 PUSH2 0x1841 SWAP8 SWAP7 PUSH1 0x0 SWAP3 PUSH2 0x1938 JUMPI JUMPDEST POP POP DUP2 PUSH1 0x1 SHL SWAP2 PUSH1 0x0 NOT SWAP1 PUSH1 0x3 SHL SHR NOT AND OR PUSH1 0x4 DUP3 ADD SSTORE JUMPDEST PUSH1 0xC0 DUP5 ADD MLOAD PUSH1 0x5 DUP3 ADD DUP1 SLOAD PUSH1 0x1 PUSH1 0x1 PUSH1 0xA0 SHL SUB SWAP3 DUP4 AND PUSH1 0x1 PUSH1 0x1 PUSH1 0xA0 SHL SUB NOT SWAP2 DUP3 AND OR SWAP1 SWAP2 SSTORE PUSH1 0xE0 DUP7 ADD MLOAD PUSH1 0x6 DUP5 ADD DUP1 SLOAD SWAP2 SWAP1 SWAP4 AND SWAP2 AND OR SWAP1 SSTORE PUSH2 0x100 DUP5 ADD MLOAD PUSH1 0x7 DUP3 ADD SSTORE PUSH2 0x120 DUP5 ADD MLOAD SWAP2 ADD SWAP3 SWAP1 PUSH2 0x1829 SWAP1 PUSH2 0x1823 DUP2 PUSH2 0x2B49 JUMP JUMPDEST DUP5 PUSH2 0x3326 JUMP JUMPDEST ADD MLOAD DUP2 SLOAD PUSH2 0xFF00 NOT AND SWAP1 ISZERO ISZERO PUSH1 0x8 SHL PUSH2 0xFF00 AND OR SWAP1 SSTORE JUMP JUMPDEST PUSH2 0x1858 DUP2 PUSH2 0x1853 PUSH1 0xC4 PUSH1 0x4 CALLDATALOAD ADD PUSH2 0x3629 JUMP JUMPDEST PUSH2 0x337D JUMP JUMPDEST PUSH2 0x1866 PUSH1 0xC4 PUSH1 0x4 CALLDATALOAD ADD PUSH2 0x3629 JUMP JUMPDEST PUSH2 0x1874 PUSH1 0xE4 PUSH1 0x4 CALLDATALOAD ADD PUSH2 0x3629 JUMP JUMPDEST DUP3 PUSH32 0x763E2255B3B46191FC14C005E2188D8639D751A03006384EAFAC51FD64E910F PUSH2 0x18A4 PUSH1 0x4 DUP1 CALLDATALOAD ADD DUP1 PUSH2 0x3662 JUMP JUMPDEST SWAP4 PUSH2 0x18DD PUSH2 0x18B6 PUSH1 0x44 PUSH1 0x4 CALLDATALOAD ADD PUSH2 0x363D JUMP JUMPDEST PUSH1 0x40 MLOAD PUSH1 0x1 PUSH1 0x1 PUSH1 0xA0 SHL SUB SWAP4 DUP5 AND SWAP9 SWAP1 SWAP4 AND SWAP7 SWAP3 SWAP4 DUP5 SWAP4 PUSH1 0x4 CALLDATALOAD PUSH2 0x104 ADD CALLDATALOAD SWAP3 SWAP2 DUP6 PUSH2 0x333E JUMP JUMPDEST SUB SWAP1 LOG4 PUSH2 0x18EE PUSH1 0xE4 PUSH1 0x4 CALLDATALOAD ADD PUSH2 0x3629 JUMP JUMPDEST SWAP1 PUSH2 0x18FD PUSH1 0xC4 PUSH1 0x4 CALLDATALOAD ADD PUSH2 0x3629 JUMP JUMPDEST PUSH1 0x40 MLOAD SWAP3 PUSH1 0x1 PUSH1 0x1 PUSH1 0xA0 SHL SUB SWAP2 DUP3 AND SWAP2 AND DUP3 PUSH32 0x9FBBD042184DB7E95EAEA0FDB4BB4A737167F1AACCD0D365742157ECE5453102 PUSH1 0x0 DUP1 LOG4 DUP2 MSTORE RETURN JUMPDEST ADD MLOAD SWAP1 POP DUP10 DUP1 PUSH2 0x17AF JUMP JUMPDEST SWAP1 PUSH1 0x4 DUP5 ADD PUSH1 0x0 MSTORE DUP7 PUSH1 0x0 KECCAK256 SWAP2 PUSH1 0x0 JUMPDEST PUSH1 0x1F NOT DUP6 AND DUP2 LT PUSH2 0x19A4 JUMPI POP DUP4 PUSH1 0x8 SWAP4 PUSH2 0x1841 SWAP8 SWAP7 SWAP4 PUSH1 0x1 SWAP4 PUSH2 0x140 SWAP8 PUSH1 0x1F NOT DUP2 AND LT PUSH2 0x198B JUMPI JUMPDEST POP POP POP DUP2 SHL ADD PUSH1 0x4 DUP3 ADD SSTORE PUSH2 0x17C7 JUMP JUMPDEST ADD MLOAD PUSH1 0x0 NOT PUSH1 0xF8 DUP5 PUSH1 0x3 SHL AND SHR NOT AND SWAP1 SSTORE DUP10 DUP1 DUP1 PUSH2 0x197B JUMP JUMPDEST SWAP2 SWAP3 DUP9 PUSH1 0x1 DUP2 SWAP3 DUP7 DUP6 ADD MLOAD DUP2 SSTORE ADD SWAP5 ADD SWAP3 ADD PUSH2 0x1953 JUMP JUMPDEST PUSH1 0x4 DUP4 ADD PUSH1 0x0 MSTORE PUSH1 0x20 PUSH1 0x0 KECCAK256 PUSH1 0x1F DUP4 ADD PUSH1 0x5 SHR DUP2 ADD PUSH1 0x20 DUP5 LT PUSH2 0x19FB JUMPI JUMPDEST PUSH1 0x1F DUP9 ADD PUSH1 0x5 SHR DUP3 ADD DUP2 LT PUSH2 0x19EF JUMPI POP POP PUSH2 0x1788 JUMP JUMPDEST PUSH1 0x0 DUP2 SSTORE PUSH1 0x1 ADD PUSH2 0x19D9 JUMP JUMPDEST POP DUP1 PUSH2 0x19D9 JUMP JUMPDEST PUSH4 0x4E487B71 PUSH1 0xE0 SHL PUSH1 0x0 MSTORE PUSH1 0x41 PUSH1 0x4 MSTORE PUSH1 0x24 PUSH1 0x0 REVERT JUMPDEST ADD MLOAD SWAP1 POP DUP6 DUP1 PUSH2 0x1743 JUMP JUMPDEST PUSH1 0x1F NOT DUP3 AND SWAP6 PUSH1 0x3 DUP7 ADD PUSH1 0x0 MSTORE PUSH1 0x20 PUSH1 0x0 KECCAK256 SWAP2 PUSH1 0x0 JUMPDEST DUP9 DUP2 LT PUSH2 0x1A77 JUMPI POP DUP4 PUSH1 0x1 SWAP6 SWAP7 SWAP8 SWAP9 LT PUSH2 0x1A5E JUMPI JUMPDEST POP POP POP DUP2 SHL ADD PUSH1 0x3 DUP5 ADD SSTORE PUSH2 0x175B JUMP JUMPDEST ADD MLOAD PUSH1 0x0 NOT PUSH1 0xF8 DUP5 PUSH1 0x3 SHL AND SHR NOT AND SWAP1 SSTORE DUP6 DUP1 DUP1 PUSH2 0x1A4E JUMP JUMPDEST SWAP2 SWAP3 PUSH1 0x20 PUSH1 0x1 DUP2 SWAP3 DUP7 DUP6 ADD MLOAD DUP2 SSTORE ADD SWAP5 ADD SWAP3 ADD PUSH2 0x1A39 JUMP JUMPDEST PUSH1 0x3 DUP6 ADD PUSH1 0x0 MSTORE PUSH1 0x20 PUSH1 0x0 KECCAK256 PUSH1 0x1F DUP4 ADD PUSH1 0x5 SHR DUP2 ADD PUSH1 0x20 DUP5 LT PUSH2 0x1ACF JUMPI JUMPDEST PUSH1 0x1F DUP4 ADD PUSH1 0x5 SHR DUP3 ADD DUP2 LT PUSH2 0x1AC3 JUMPI POP POP PUSH2 0x1726 JUMP JUMPDEST PUSH1 0x0 DUP2 SSTORE PUSH1 0x1 ADD PUSH2 0x1AAD JUMP JUMPDEST POP DUP1 PUSH2 0x1AAD JUMP JUMPDEST ADD MLOAD SWAP1 POP DUP6 DUP1 PUSH2 0x16AD JUMP JUMPDEST PUSH1 0x1 DUP5 ADD PUSH1 0x0 MSTORE PUSH1 0x20 PUSH1 0x0 KECCAK256 SWAP1 PUSH1 0x0 JUMPDEST PUSH1 0x1F NOT DUP5 AND DUP2 LT PUSH2 0x1B38 JUMPI POP PUSH1 0x1 SWAP4 SWAP5 SWAP6 SWAP7 DUP4 PUSH1 0x1F NOT DUP2 AND LT PUSH2 0x1B1F JUMPI JUMPDEST POP POP POP DUP2 SHL ADD PUSH1 0x1 DUP4 ADD SSTORE PUSH2 0x16C5 JUMP JUMPDEST ADD MLOAD PUSH1 0x0 NOT PUSH1 0xF8 DUP5 PUSH1 0x3 SHL AND SHR NOT AND SWAP1 SSTORE DUP6 DUP1 DUP1 PUSH2 0x1B0F JUMP JUMPDEST SWAP1 SWAP2 PUSH1 0x20 PUSH1 0x1 DUP2 SWAP3 DUP6 DUP12 ADD MLOAD DUP2 SSTORE ADD SWAP4 ADD SWAP2 ADD PUSH2 0x1AF1 JUMP JUMPDEST PUSH1 0x1 DUP5 ADD PUSH1 0x0 MSTORE PUSH1 0x20 PUSH1 0x0 KECCAK256 PUSH1 0x1F DUP4 ADD PUSH1 0x5 SHR DUP2 ADD PUSH1 0x20 DUP5 LT PUSH2 0x1B90 JUMPI JUMPDEST PUSH1 0x1F DUP4 ADD PUSH1 0x5 SHR DUP3 ADD DUP2 LT PUSH2 0x1B84 JUMPI POP POP PUSH2 0x1692 JUMP JUMPDEST PUSH1 0x0 DUP2 SSTORE PUSH1 0x1 ADD PUSH2 0x1B6E JUMP JUMPDEST POP DUP1 PUSH2 0x1B6E JUMP JUMPDEST ADD MLOAD SWAP1 POP DUP6 DUP1 PUSH2 0x1651 JUMP JUMPDEST DUP3 PUSH1 0x0 MSTORE PUSH1 0x20 PUSH1 0x0 KECCAK256 SWAP1 PUSH1 0x0 SWAP7 PUSH1 0x1F NOT DUP5 AND SWAP8 JUMPDEST DUP9 DUP2 LT PUSH2 0x1BF1 JUMPI POP DUP4 PUSH1 0x1 SWAP6 SWAP7 SWAP8 SWAP9 LT PUSH2 0x1BD8 JUMPI JUMPDEST POP POP POP DUP2 SHL ADD DUP2 SSTORE PUSH2 0x1666 JUMP JUMPDEST ADD MLOAD PUSH1 0x0 NOT PUSH1 0xF8 DUP5 PUSH1 0x3 SHL AND SHR NOT AND SWAP1 SSTORE DUP6 DUP1 DUP1 PUSH2 0x1BCB JUMP JUMPDEST SWAP2 SWAP3 PUSH1 0x20 PUSH1 0x1 DUP2 SWAP3 DUP7 DUP6 ADD MLOAD DUP2 SSTORE ADD SWAP5 ADD SWAP3 ADD PUSH2 0x1BB6 JUMP JUMPDEST DUP3 PUSH1 0x0 MSTORE PUSH1 0x20 PUSH1 0x0 KECCAK256 PUSH1 0x1F DUP4 ADD PUSH1 0x5 SHR DUP2 ADD PUSH1 0x20 DUP5 LT PUSH2 0x1C46 JUMPI JUMPDEST PUSH1 0x1F DUP4 ADD PUSH1 0x5 SHR DUP3 ADD DUP2 LT PUSH2 0x1C3A JUMPI POP POP PUSH2 0x1636 JUMP JUMPDEST PUSH1 0x0 DUP2 SSTORE PUSH1 0x1 ADD PUSH2 0x1C24 JUMP JUMPDEST POP DUP1 PUSH2 0x1C24 JUMP JUMPDEST PUSH1 0x40 MLOAD PUSH3 0x461BCD PUSH1 0xE5 SHL DUP2 MSTORE PUSH1 0x20 PUSH1 0x4 DUP3 ADD MSTORE PUSH1 0x14 PUSH1 0x24 DUP3 ADD MSTORE PUSH20 0x42616420617274697374207369676E6174757265 PUSH1 0x60 SHL PUSH1 0x44 DUP3 ADD MSTORE PUSH1 0x64 SWAP1 REVERT JUMPDEST POP PUSH2 0x1318 PUSH2 0x5A0 PUSH4 0xFFFFFFFF PUSH2 0x1CA3 PUSH1 0x64 PUSH1 0x4 CALLDATALOAD ADD PUSH2 0x3651 JUMP JUMPDEST AND GT ISZERO SWAP1 POP PUSH2 0x130F JUMP JUMPDEST PUSH4 0x4E487B71 PUSH1 0xE0 SHL PUSH1 0x0 MSTORE PUSH1 0x11 PUSH1 0x4 MSTORE PUSH1 0x24 PUSH1 0x0 REVERT JUMPDEST PUSH1 0x40 MLOAD PUSH3 0x461BCD PUSH1 0xE5 SHL DUP2 MSTORE PUSH1 0x20 PUSH1 0x4 DUP3 ADD MSTORE PUSH1 0xC PUSH1 0x24 DUP3 ADD MSTORE PUSH12 0x5A65726F2061646472657373 PUSH1 0xA0 SHL PUSH1 0x44 DUP3 ADD MSTORE PUSH1 0x64 SWAP1 REVERT JUMPDEST POP PUSH1 0x1 PUSH1 0x1 PUSH1 0xA0 SHL SUB PUSH2 0x1D0E PUSH1 0x4 CALLDATALOAD PUSH1 0xE4 ADD PUSH2 0x3629 JUMP JUMPDEST AND ISZERO ISZERO PUSH2 0x12B3 JUMP JUMPDEST PUSH1 0x40 MLOAD PUSH3 0x461BCD PUSH1 0xE5 SHL DUP2 MSTORE PUSH1 0x20 PUSH1 0x4 DUP3 ADD MSTORE PUSH1 0x17 PUSH1 0x24 DUP3 ADD MSTORE PUSH32 0x43616C6C6572206E6F742076656E75652077616C6C6574000000000000000000 PUSH1 0x44 DUP3 ADD MSTORE PUSH1 0x64 SWAP1 REVERT JUMPDEST CALLVALUE PUSH2 0x384 JUMPI PUSH1 0x20 CALLDATASIZE PUSH1 0x3 NOT ADD SLT PUSH2 0x384 JUMPI PUSH1 0x4 CALLDATALOAD PUSH1 0x0 PUSH2 0x140 PUSH1 0x40 MLOAD PUSH2 0x1D80 DUP2 PUSH2 0x2B69 JUMP JUMPDEST PUSH1 0x60 DUP2 MSTORE PUSH1 0x60 PUSH1 0x20 DUP3 ADD MSTORE DUP3 PUSH1 0x40 DUP3 ADD MSTORE DUP3 PUSH1 0x60 DUP3 ADD MSTORE PUSH1 0x60 PUSH1 0x80 DUP3 ADD MSTORE PUSH1 0x60 PUSH1 0xA0 DUP3 ADD MSTORE DUP3 PUSH1 0xC0 DUP3 ADD MSTORE DUP3 PUSH1 0xE0 DUP3 ADD MSTORE DUP3 PUSH2 0x100 DUP3 ADD MSTORE DUP3 PUSH2 0x120 DUP3 ADD MSTORE ADD MSTORE DUP1 PUSH1 0x0 MSTORE PUSH1 0x2 PUSH1 0x20 MSTORE PUSH2 0x1DE2 PUSH1 0x1 DUP1 PUSH1 0xA0 SHL SUB PUSH1 0x40 PUSH1 0x0 KECCAK256 SLOAD AND ISZERO ISZERO PUSH2 0x35AB JUMP JUMPDEST PUSH1 0x0 MSTORE PUSH1 0xA PUSH1 0x20 MSTORE PUSH1 0x40 PUSH1 0x0 KECCAK256 PUSH1 0xFF PUSH1 0x8 PUSH1 0x40 MLOAD SWAP3 PUSH2 0x1E00 DUP5 PUSH2 0x2B69 JUMP JUMPDEST PUSH1 0x40 MLOAD PUSH2 0x1E11 DUP2 PUSH2 0x18D DUP2 DUP6 PUSH2 0x2CAF JUMP JUMPDEST DUP5 MSTORE PUSH1 0x40 MLOAD PUSH2 0x1E27 DUP2 PUSH2 0x18D DUP2 PUSH1 0x1 DUP7 ADD PUSH2 0x2CAF JUMP JUMPDEST PUSH1 0x20 DUP6 ADD MSTORE PUSH4 0xFFFFFFFF PUSH1 0x2 DUP3 ADD SLOAD PUSH1 0x1 PUSH1 0x1 PUSH1 0x40 SHL SUB DUP2 AND PUSH1 0x40 DUP8 ADD MSTORE PUSH1 0x40 SHR AND PUSH1 0x60 DUP6 ADD MSTORE PUSH1 0x40 MLOAD PUSH2 0x1E62 DUP2 PUSH2 0x18D DUP2 PUSH1 0x3 DUP7 ADD PUSH2 0x2CAF JUMP JUMPDEST PUSH1 0x80 DUP6 ADD MSTORE PUSH1 0x40 MLOAD PUSH2 0x1E7B DUP2 PUSH2 0x18D DUP2 PUSH1 0x4 DUP7 ADD PUSH2 0x2CAF JUMP JUMPDEST PUSH1 0xA0 DUP6 ADD MSTORE PUSH1 0x5 DUP2 ADD SLOAD PUSH1 0x1 PUSH1 0x1 PUSH1 0xA0 SHL SUB SWAP1 DUP2 AND PUSH1 0xC0 DUP7 ADD MSTORE PUSH1 0x6 DUP3 ADD SLOAD AND PUSH1 0xE0 DUP6 ADD MSTORE PUSH1 0x7 DUP2 ADD SLOAD PUSH2 0x100 DUP6 ADD MSTORE ADD SLOAD PUSH2 0x1EB8 DUP3 DUP3 AND PUSH2 0x2B49 JUMP JUMPDEST DUP2 DUP2 AND PUSH2 0x120 DUP5 ADD MSTORE PUSH1 0x8 SHR AND ISZERO ISZERO PUSH2 0x140 DUP3 ADD MSTORE PUSH1 0x40 MLOAD DUP1 SWAP2 PUSH1 0x20 DUP3 MSTORE PUSH2 0x140 PUSH2 0x1F5F PUSH2 0x1EF4 DUP4 MLOAD PUSH2 0x160 PUSH1 0x20 DUP8 ADD MSTORE PUSH2 0x180 DUP7 ADD SWAP1 PUSH2 0x2A96 JUMP JUMPDEST PUSH2 0x1F4A PUSH2 0x1F13 PUSH1 0x20 DUP7 ADD MLOAD SWAP3 PUSH1 0x1F NOT SWAP4 DUP5 DUP10 DUP4 SUB ADD PUSH1 0x40 DUP11 ADD MSTORE PUSH2 0x2A96 JUMP JUMPDEST PUSH1 0x1 PUSH1 0x1 PUSH1 0x40 SHL SUB PUSH1 0x40 DUP8 ADD MLOAD AND PUSH1 0x60 DUP9 ADD MSTORE PUSH4 0xFFFFFFFF PUSH1 0x60 DUP8 ADD MLOAD AND PUSH1 0x80 DUP9 ADD MSTORE PUSH1 0x80 DUP7 ADD MLOAD DUP4 DUP9 DUP4 SUB ADD PUSH1 0xA0 DUP10 ADD MSTORE PUSH2 0x2A96 JUMP JUMPDEST SWAP1 PUSH1 0xA0 DUP6 ADD MLOAD SWAP1 DUP7 DUP4 SUB ADD PUSH1 0xC0 DUP8 ADD MSTORE PUSH2 0x2A96 JUMP JUMPDEST SWAP2 PUSH1 0x1 DUP1 PUSH1 0xA0 SHL SUB PUSH1 0xC0 DUP3 ADD MLOAD AND PUSH1 0xE0 DUP6 ADD MSTORE PUSH1 0x1 DUP1 PUSH1 0xA0 SHL SUB PUSH1 0xE0 DUP3 ADD MLOAD AND PUSH2 0x100 DUP6 ADD MSTORE PUSH2 0x100 DUP2 ADD MLOAD PUSH2 0x120 DUP6 ADD MSTORE PUSH2 0x120 DUP2 ADD MLOAD PUSH2 0x1FA0 DUP2 PUSH2 0x2B49 JUMP JUMPDEST DUP3 DUP6 ADD MSTORE ADD MLOAD ISZERO ISZERO PUSH2 0x160 DUP4 ADD MSTORE SUB SWAP1 RETURN JUMPDEST CALLVALUE PUSH2 0x384 JUMPI PUSH2 0xDBE PUSH2 0x1FC3 CALLDATASIZE PUSH2 0x2AE7 JUMP JUMPDEST SWAP1 PUSH1 0x40 MLOAD SWAP3 PUSH2 0x1FD1 DUP5 PUSH2 0x2B85 JUMP JUMPDEST PUSH1 0x0 DUP5 MSTORE PUSH2 0xDB8 DUP4 DUP4 DUP4 PUSH2 0x2D45 JUMP JUMPDEST CALLVALUE PUSH2 0x384 JUMPI PUSH2 0x120 CALLDATASIZE PUSH1 0x3 NOT ADD SLT PUSH2 0x384 JUMPI PUSH1 0x4 CALLDATALOAD PUSH1 0x1 PUSH1 0x1 PUSH1 0x40 SHL SUB DUP2 GT PUSH2 0x384 JUMPI PUSH2 0x2011 SWAP1 CALLDATASIZE SWAP1 PUSH1 0x4 ADD PUSH2 0x2B1C JUMP JUMPDEST SWAP1 PUSH1 0x24 CALLDATALOAD PUSH1 0x1 PUSH1 0x1 PUSH1 0x40 SHL SUB DUP2 GT PUSH2 0x384 JUMPI PUSH2 0x2031 SWAP1 CALLDATASIZE SWAP1 PUSH1 0x4 ADD PUSH2 0x2B1C JUMP JUMPDEST SWAP3 SWAP1 SWAP2 PUSH1 0x1 PUSH1 0x1 PUSH1 0x40 SHL SUB PUSH1 0x44 CALLDATALOAD AND PUSH1 0x44 CALLDATALOAD SUB PUSH2 0x384 JUMPI PUSH1 0x64 CALLDATALOAD PUSH4 0xFFFFFFFF DUP2 AND DUP2 SUB PUSH2 0x384 JUMPI PUSH1 0x84 CALLDATALOAD PUSH1 0x1 PUSH1 0x1 PUSH1 0x40 SHL SUB DUP2 GT PUSH2 0x384 JUMPI PUSH2 0x2077 SWAP1 CALLDATASIZE SWAP1 PUSH1 0x4 ADD PUSH2 0x2B1C JUMP JUMPDEST SWAP1 PUSH1 0xA4 CALLDATALOAD PUSH1 0x1 PUSH1 0x1 PUSH1 0x40 SHL SUB DUP2 GT PUSH2 0x384 JUMPI PUSH2 0x2097 SWAP1 CALLDATASIZE SWAP1 PUSH1 0x4 ADD PUSH2 0x2B1C JUMP JUMPDEST SWAP1 SWAP4 SWAP1 SWAP3 SWAP1 PUSH1 0xC4 CALLDATALOAD PUSH1 0x1 PUSH1 0x1 PUSH1 0xA0 SHL SUB DUP2 AND SWAP1 SUB PUSH2 0x384 JUMPI PUSH1 0xE4 CALLDATALOAD PUSH1 0x1 PUSH1 0x1 PUSH1 0xA0 SHL SUB DUP2 AND SWAP1 SUB PUSH2 0x384 JUMPI PUSH1 0xC4 CALLDATALOAD PUSH1 0x1 PUSH1 0x1 PUSH1 0xA0 SHL SUB AND ISZERO PUSH2 0x27D5 JUMPI PUSH1 0xE4 CALLDATALOAD PUSH1 0x1 PUSH1 0x1 PUSH1 0xA0 SHL SUB AND ISZERO PUSH2 0x279C JUMPI TIMESTAMP PUSH3 0x1517F NOT DUP2 ADD GT PUSH2 0x1CAD JUMPI PUSH2 0x210D TIMESTAMP PUSH3 0x1517F NOT ADD PUSH1 0x44 CALLDATALOAD PUSH1 0x1 PUSH1 0x1 PUSH1 0x40 SHL SUB AND GT PUSH2 0x3255 JUMP JUMPDEST PUSH4 0xFFFFFFFF DUP2 AND ISZERO ISZERO DUP1 PUSH2 0x278A JUMPI JUMPDEST PUSH2 0x2125 SWAP1 PUSH2 0x3296 JUMP JUMPDEST PUSH2 0x2133 PUSH2 0x104 CALLDATALOAD ISZERO ISZERO PUSH2 0x32D5 JUMP JUMPDEST PUSH1 0xB SLOAD SWAP8 PUSH2 0x2140 DUP10 PUSH2 0x3317 JUMP JUMPDEST PUSH1 0xB SSTORE PUSH1 0x40 MLOAD SWAP10 PUSH2 0x2150 DUP12 PUSH2 0x2B69 JUMP JUMPDEST PUSH2 0x215B CALLDATASIZE DUP11 DUP11 PUSH2 0x2C12 JUMP JUMPDEST DUP12 MSTORE CALLDATASIZE SWAP1 PUSH2 0x2168 SWAP3 PUSH2 0x2C12 JUMP JUMPDEST PUSH1 0x20 DUP11 ADD MSTORE PUSH1 0x44 CALLDATALOAD PUSH1 0x1 PUSH1 0x1 PUSH1 0x40 SHL SUB AND PUSH1 0x40 DUP11 ADD MSTORE PUSH4 0xFFFFFFFF AND PUSH1 0x60 DUP10 ADD MSTORE CALLDATASIZE SWAP1 PUSH2 0x2194 SWAP3 PUSH2 0x2C12 JUMP JUMPDEST PUSH1 0x80 DUP8 ADD MSTORE CALLDATASIZE SWAP1 PUSH2 0x21A4 SWAP3 PUSH2 0x2C12 JUMP JUMPDEST PUSH1 0xA0 DUP6 ADD MSTORE PUSH1 0x1 PUSH1 0x1 PUSH1 0xA0 SHL SUB PUSH1 0xC4 CALLDATALOAD DUP2 AND PUSH1 0xC0 DUP7 ADD MSTORE PUSH1 0xE4 CALLDATALOAD AND PUSH1 0xE0 DUP6 ADD MSTORE PUSH2 0x104 CALLDATALOAD PUSH2 0x100 DUP6 ADD MSTORE PUSH1 0x0 PUSH2 0x120 DUP6 ADD DUP2 SWAP1 MSTORE PUSH2 0x140 DUP6 ADD DUP2 SWAP1 MSTORE DUP4 DUP2 MSTORE PUSH1 0xA PUSH1 0x20 MSTORE PUSH1 0x40 SWAP1 KECCAK256 DUP5 MLOAD DUP1 MLOAD SWAP2 SWAP6 SWAP2 SWAP1 PUSH1 0x1 PUSH1 0x1 PUSH1 0x40 SHL SUB DUP3 GT PUSH2 0x1A02 JUMPI DUP2 SWAP1 PUSH2 0x220E DUP9 SLOAD PUSH2 0x2C75 JUMP JUMPDEST PUSH1 0x1F DUP2 GT PUSH2 0x273A JUMPI JUMPDEST POP PUSH1 0x20 SWAP1 PUSH1 0x1F DUP4 GT PUSH1 0x1 EQ PUSH2 0x26CE JUMPI PUSH1 0x0 SWAP3 PUSH2 0x26C3 JUMPI JUMPDEST POP POP DUP2 PUSH1 0x1 SHL SWAP2 PUSH1 0x0 NOT SWAP1 PUSH1 0x3 SHL SHR NOT AND OR DUP6 SSTORE JUMPDEST PUSH1 0x20 DUP2 ADD MLOAD DUP1 MLOAD SWAP1 PUSH1 0x1 PUSH1 0x1 PUSH1 0x40 SHL SUB DUP3 GT PUSH2 0x1A02 JUMPI DUP2 SWAP1 PUSH2 0x2268 PUSH1 0x1 DUP10 ADD SLOAD PUSH2 0x2C75 JUMP JUMPDEST PUSH1 0x1F DUP2 GT PUSH2 0x2670 JUMPI JUMPDEST POP PUSH1 0x20 SWAP1 PUSH1 0x1F DUP4 GT PUSH1 0x1 EQ PUSH2 0x25FE JUMPI PUSH1 0x0 SWAP3 PUSH2 0x25F3 JUMPI JUMPDEST POP POP DUP2 PUSH1 0x1 SHL SWAP2 PUSH1 0x0 NOT SWAP1 PUSH1 0x3 SHL SHR NOT AND OR PUSH1 0x1 DUP7 ADD SSTORE JUMPDEST PUSH1 0x2 DUP6 ADD PUSH1 0x1 PUSH1 0x1 PUSH1 0x40 SHL SUB PUSH1 0x40 DUP4 ADD MLOAD AND DUP2 SLOAD SWAP1 PUSH4 0xFFFFFFFF PUSH1 0x40 SHL PUSH1 0x60 DUP6 ADD MLOAD PUSH1 0x40 SHL AND SWAP2 PUSH1 0x1 PUSH1 0x1 PUSH1 0x60 SHL SUB NOT AND OR OR SWAP1 SSTORE PUSH1 0x80 DUP2 ADD MLOAD DUP1 MLOAD SWAP1 PUSH1 0x1 PUSH1 0x1 PUSH1 0x40 SHL SUB DUP3 GT PUSH2 0x1A02 JUMPI DUP2 SWAP1 PUSH2 0x22FA PUSH1 0x3 DUP10 ADD SLOAD PUSH2 0x2C75 JUMP JUMPDEST PUSH1 0x1F DUP2 GT PUSH2 0x25A0 JUMPI JUMPDEST POP PUSH1 0x20 SWAP1 PUSH1 0x1F DUP4 GT PUSH1 0x1 EQ PUSH2 0x2533 JUMPI PUSH1 0x0 SWAP3 PUSH2 0x2528 JUMPI JUMPDEST POP POP DUP2 PUSH1 0x1 SHL SWAP2 PUSH1 0x0 NOT SWAP1 PUSH1 0x3 SHL SHR NOT AND OR PUSH1 0x3 DUP7 ADD SSTORE JUMPDEST PUSH1 0xA0 DUP2 ADD MLOAD SWAP5 DUP6 MLOAD PUSH1 0x1 PUSH1 0x1 PUSH1 0x40 SHL SUB DUP2 GT PUSH2 0x1A02 JUMPI PUSH2 0x2355 PUSH1 0x4 DUP4 ADD SLOAD PUSH2 0x2C75 JUMP JUMPDEST SWAP7 PUSH1 0x1F DUP9 GT PUSH2 0x24E1 JUMPI JUMPDEST PUSH1 0x20 SWAP8 POP DUP8 SWAP1 PUSH1 0x1F DUP4 GT PUSH1 0x1 EQ PUSH2 0x246A JUMPI SWAP3 DUP3 PUSH2 0x140 SWAP4 PUSH1 0x8 SWAP4 PUSH2 0x23FA SWAP8 SWAP7 PUSH1 0x0 SWAP3 PUSH2 0x245F JUMPI POP POP PUSH1 0x0 NOT PUSH1 0x3 DUP4 SWAP1 SHL SHR NOT AND PUSH1 0x1 SWAP2 SWAP1 SWAP2 SHL OR PUSH1 0x4 DUP3 ADD SSTORE PUSH1 0xC0 DUP5 ADD MLOAD PUSH1 0x5 DUP3 ADD DUP1 SLOAD PUSH1 0x1 PUSH1 0x1 PUSH1 0xA0 SHL SUB SWAP3 DUP4 AND PUSH1 0x1 PUSH1 0x1 PUSH1 0xA0 SHL SUB NOT SWAP2 DUP3 AND OR SWAP1 SWAP2 SSTORE PUSH1 0xE0 DUP7 ADD MLOAD PUSH1 0x6 DUP5 ADD DUP1 SLOAD SWAP2 SWAP1 SWAP4 AND SWAP2 AND OR SWAP1 SSTORE PUSH2 0x100 DUP5 ADD MLOAD PUSH1 0x7 DUP3 ADD SSTORE PUSH2 0x120 DUP5 ADD MLOAD SWAP2 ADD SWAP3 SWAP1 PUSH2 0x1829 SWAP1 PUSH2 0x1823 DUP2 PUSH2 0x2B49 JUMP JUMPDEST PUSH2 0x2404 DUP4 CALLER PUSH2 0x337D JUMP JUMPDEST DUP3 PUSH32 0x763E2255B3B46191FC14C005E2188D8639D751A03006384EAFAC51FD64E910F PUSH1 0x40 MLOAD DUP1 PUSH2 0x2454 PUSH1 0x1 DUP1 PUSH1 0xA0 SHL SUB PUSH1 0xE4 CALLDATALOAD AND SWAP7 PUSH1 0x1 DUP1 PUSH1 0xA0 SHL SUB PUSH1 0xC4 CALLDATALOAD AND SWAP7 PUSH2 0x104 CALLDATALOAD SWAP2 PUSH1 0x44 CALLDATALOAD SWAP2 DUP6 PUSH2 0x333E JUMP JUMPDEST SUB SWAP1 LOG4 PUSH1 0x40 MLOAD SWAP1 DUP2 MSTORE RETURN JUMPDEST ADD MLOAD SWAP1 POP DUP12 DUP1 PUSH2 0x17AF JUMP JUMPDEST SWAP1 PUSH1 0x4 DUP5 ADD PUSH1 0x0 MSTORE DUP9 PUSH1 0x0 KECCAK256 SWAP2 PUSH1 0x0 JUMPDEST PUSH1 0x1F NOT DUP6 AND DUP2 LT PUSH2 0x24CA JUMPI POP DUP4 PUSH1 0x8 SWAP4 PUSH2 0x23FA SWAP8 SWAP7 SWAP4 PUSH1 0x1 SWAP4 PUSH2 0x140 SWAP8 PUSH1 0x1F NOT DUP2 AND LT PUSH2 0x24B1 JUMPI POP POP POP DUP2 SHL ADD PUSH1 0x4 DUP3 ADD SSTORE PUSH2 0x17C7 JUMP JUMPDEST ADD MLOAD PUSH1 0x0 NOT PUSH1 0xF8 DUP5 PUSH1 0x3 SHL AND SHR NOT AND SWAP1 SSTORE DUP12 DUP1 DUP1 PUSH2 0x197B JUMP JUMPDEST SWAP2 SWAP3 DUP11 PUSH1 0x1 DUP2 SWAP3 DUP7 DUP6 ADD MLOAD DUP2 SSTORE ADD SWAP5 ADD SWAP3 ADD PUSH2 0x247A JUMP JUMPDEST PUSH1 0x4 DUP4 ADD PUSH1 0x0 MSTORE PUSH1 0x20 PUSH1 0x0 KECCAK256 PUSH1 0x1F DUP4 ADD PUSH1 0x5 SHR DUP2 ADD PUSH1 0x20 DUP5 LT PUSH2 0x2521 JUMPI JUMPDEST PUSH1 0x1F DUP11 ADD PUSH1 0x5 SHR DUP3 ADD DUP2 LT PUSH2 0x2515 JUMPI POP POP PUSH2 0x235F JUMP JUMPDEST PUSH1 0x0 DUP2 SSTORE PUSH1 0x1 ADD PUSH2 0x24FF JUMP JUMPDEST POP DUP1 PUSH2 0x24FF JUMP JUMPDEST ADD MLOAD SWAP1 POP DUP8 DUP1 PUSH2 0x231A JUMP JUMPDEST PUSH1 0x3 DUP10 ADD PUSH1 0x0 SWAP1 DUP2 MSTORE PUSH1 0x20 DUP2 KECCAK256 SWAP4 POP PUSH1 0x1F NOT DUP6 AND SWAP1 JUMPDEST DUP2 DUP2 LT PUSH2 0x2588 JUMPI POP SWAP1 DUP5 PUSH1 0x1 SWAP6 SWAP5 SWAP4 SWAP3 LT PUSH2 0x256F JUMPI JUMPDEST POP POP POP DUP2 SHL ADD PUSH1 0x3 DUP7 ADD SSTORE PUSH2 0x2332 JUMP JUMPDEST ADD MLOAD PUSH1 0x0 NOT PUSH1 0xF8 DUP5 PUSH1 0x3 SHL AND SHR NOT AND SWAP1 SSTORE DUP8 DUP1 DUP1 PUSH2 0x255F JUMP JUMPDEST SWAP3 SWAP4 PUSH1 0x20 PUSH1 0x1 DUP2 SWAP3 DUP8 DUP7 ADD MLOAD DUP2 SSTORE ADD SWAP6 ADD SWAP4 ADD PUSH2 0x2549 JUMP JUMPDEST SWAP1 SWAP2 POP PUSH1 0x3 DUP9 ADD PUSH1 0x0 MSTORE PUSH1 0x20 PUSH1 0x0 KECCAK256 PUSH1 0x1F DUP5 ADD PUSH1 0x5 SHR DUP2 ADD PUSH1 0x20 DUP6 LT PUSH2 0x25EC JUMPI JUMPDEST SWAP1 DUP5 SWAP4 SWAP3 SWAP2 JUMPDEST PUSH1 0x1F DUP4 ADD PUSH1 0x5 SHR DUP3 ADD DUP2 LT PUSH2 0x25DD JUMPI POP POP PUSH2 0x2303 JUMP JUMPDEST PUSH1 0x0 DUP2 SSTORE DUP6 SWAP5 POP PUSH1 0x1 ADD PUSH2 0x25C7 JUMP JUMPDEST POP DUP1 PUSH2 0x25C1 JUMP JUMPDEST ADD MLOAD SWAP1 POP DUP8 DUP1 PUSH2 0x2288 JUMP JUMPDEST SWAP3 POP PUSH1 0x1 DUP9 ADD PUSH1 0x0 MSTORE PUSH1 0x20 PUSH1 0x0 KECCAK256 SWAP1 PUSH1 0x0 SWAP4 JUMPDEST PUSH1 0x1F NOT DUP5 AND DUP6 LT PUSH2 0x2655 JUMPI PUSH1 0x1 SWAP5 POP DUP4 PUSH1 0x1F NOT DUP2 AND LT PUSH2 0x263C JUMPI JUMPDEST POP POP POP DUP2 SHL ADD PUSH1 0x1 DUP7 ADD SSTORE PUSH2 0x22A0 JUMP JUMPDEST ADD MLOAD PUSH1 0x0 NOT PUSH1 0xF8 DUP5 PUSH1 0x3 SHL AND SHR NOT AND SWAP1 SSTORE DUP8 DUP1 DUP1 PUSH2 0x262C JUMP JUMPDEST DUP2 DUP2 ADD MLOAD DUP4 SSTORE PUSH1 0x20 SWAP5 DUP6 ADD SWAP5 PUSH1 0x1 SWAP1 SWAP4 ADD SWAP3 SWAP1 SWAP2 ADD SWAP1 PUSH2 0x2611 JUMP JUMPDEST SWAP1 SWAP2 POP PUSH1 0x1 DUP9 ADD PUSH1 0x0 MSTORE PUSH1 0x20 PUSH1 0x0 KECCAK256 PUSH1 0x1F DUP5 ADD PUSH1 0x5 SHR DUP2 ADD PUSH1 0x20 DUP6 LT PUSH2 0x26BC JUMPI JUMPDEST SWAP1 DUP5 SWAP4 SWAP3 SWAP2 JUMPDEST PUSH1 0x1F DUP4 ADD PUSH1 0x5 SHR DUP3 ADD DUP2 LT PUSH2 0x26AD JUMPI POP POP PUSH2 0x2271 JUMP JUMPDEST PUSH1 0x0 DUP2 SSTORE DUP6 SWAP5 POP PUSH1 0x1 ADD PUSH2 0x2697 JUMP JUMPDEST POP DUP1 PUSH2 0x2691 JUMP JUMPDEST ADD MLOAD SWAP1 POP DUP8 DUP1 PUSH2 0x222E JUMP JUMPDEST SWAP3 POP DUP8 PUSH1 0x0 MSTORE PUSH1 0x20 PUSH1 0x0 KECCAK256 SWAP1 PUSH1 0x0 SWAP4 JUMPDEST PUSH1 0x1F NOT DUP5 AND DUP6 LT PUSH2 0x271F JUMPI PUSH1 0x1 SWAP5 POP DUP4 PUSH1 0x1F NOT DUP2 AND LT PUSH2 0x2706 JUMPI JUMPDEST POP POP POP DUP2 SHL ADD DUP6 SSTORE PUSH2 0x2243 JUMP JUMPDEST ADD MLOAD PUSH1 0x0 NOT PUSH1 0xF8 DUP5 PUSH1 0x3 SHL AND SHR NOT AND SWAP1 SSTORE DUP8 DUP1 DUP1 PUSH2 0x26F9 JUMP JUMPDEST DUP2 DUP2 ADD MLOAD DUP4 SSTORE PUSH1 0x20 SWAP5 DUP6 ADD SWAP5 PUSH1 0x1 SWAP1 SWAP4 ADD SWAP3 SWAP1 SWAP2 ADD SWAP1 PUSH2 0x26DE JUMP JUMPDEST SWAP1 SWAP2 POP DUP8 PUSH1 0x0 MSTORE PUSH1 0x20 PUSH1 0x0 KECCAK256 PUSH1 0x1F DUP5 ADD PUSH1 0x5 SHR DUP2 ADD PUSH1 0x20 DUP6 LT PUSH2 0x2783 JUMPI JUMPDEST SWAP1 DUP5 SWAP4 SWAP3 SWAP2 JUMPDEST PUSH1 0x1F DUP4 ADD PUSH1 0x5 SHR DUP3 ADD DUP2 LT PUSH2 0x2774 JUMPI POP POP PUSH2 0x2217 JUMP JUMPDEST PUSH1 0x0 DUP2 SSTORE DUP6 SWAP5 POP PUSH1 0x1 ADD PUSH2 0x275E JUMP JUMPDEST POP DUP1 PUSH2 0x2758 JUMP JUMPDEST POP PUSH2 0x5A0 PUSH4 0xFFFFFFFF DUP3 AND GT ISZERO PUSH2 0x211C JUMP JUMPDEST PUSH1 0x40 MLOAD PUSH3 0x461BCD PUSH1 0xE5 SHL DUP2 MSTORE PUSH1 0x20 PUSH1 0x4 DUP3 ADD MSTORE PUSH1 0x11 PUSH1 0x24 DUP3 ADD MSTORE PUSH17 0x56656E75652077616C6C6574207A65726F PUSH1 0x78 SHL PUSH1 0x44 DUP3 ADD MSTORE PUSH1 0x64 SWAP1 REVERT JUMPDEST PUSH1 0x40 MLOAD PUSH3 0x461BCD PUSH1 0xE5 SHL DUP2 MSTORE PUSH1 0x20 PUSH1 0x4 DUP3 ADD MSTORE PUSH1 0x12 PUSH1 0x24 DUP3 ADD MSTORE PUSH18 0x4172746973742077616C6C6574207A65726F PUSH1 0x70 SHL PUSH1 0x44 DUP3 ADD MSTORE PUSH1 0x64 SWAP1 REVERT JUMPDEST CALLVALUE PUSH2 0x384 JUMPI PUSH2 0xDBE PUSH2 0x2820 CALLDATASIZE PUSH2 0x2AE7 JUMP JUMPDEST SWAP2 PUSH2 0x2D45 JUMP JUMPDEST CALLVALUE PUSH2 0x384 JUMPI PUSH1 0x40 CALLDATASIZE PUSH1 0x3 NOT ADD SLT PUSH2 0x384 JUMPI PUSH2 0x283F PUSH2 0x2ABB JUMP JUMPDEST PUSH1 0x24 CALLDATALOAD PUSH2 0x284B DUP2 PUSH2 0x2EE4 JUMP JUMPDEST CALLER ISZERO ISZERO DUP1 PUSH2 0x28FA JUMPI JUMPDEST DUP1 PUSH2 0x28CD JUMPI JUMPDEST PUSH2 0x28B5 JUMPI PUSH1 0x1 PUSH1 0x1 PUSH1 0xA0 SHL SUB SWAP3 DUP4 AND SWAP3 DUP3 SWAP2 DUP5 SWAP2 AND PUSH32 0x8C5BE1E5EBEC7D5BD14F71427D1E84F3DD0314C0F7B2291E5B200AC8C7C3B925 PUSH1 0x0 DUP1 LOG4 PUSH1 0x0 SWAP1 DUP2 MSTORE PUSH1 0x4 PUSH1 0x20 MSTORE PUSH1 0x40 SWAP1 KECCAK256 DUP1 SLOAD PUSH1 0x1 PUSH1 0x1 PUSH1 0xA0 SHL SUB NOT AND SWAP1 SWAP2 OR SWAP1 SSTORE STOP JUMPDEST PUSH1 0x40 MLOAD PUSH4 0xA9FBF51F PUSH1 0xE0 SHL DUP2 MSTORE CALLER PUSH1 0x4 DUP3 ADD MSTORE PUSH1 0x24 SWAP1 REVERT JUMPDEST POP PUSH1 0x1 DUP1 PUSH1 0xA0 SHL SUB DUP2 AND PUSH1 0x0 MSTORE PUSH1 0x5 PUSH1 0x20 MSTORE PUSH1 0x40 PUSH1 0x0 KECCAK256 CALLER PUSH1 0x0 MSTORE PUSH1 0x20 MSTORE PUSH1 0xFF PUSH1 0x40 PUSH1 0x0 KECCAK256 SLOAD AND ISZERO PUSH2 0x285A JUMP JUMPDEST POP PUSH1 0x1 PUSH1 0x1 PUSH1 0xA0 SHL SUB DUP2 AND CALLER EQ ISZERO PUSH2 0x2854 JUMP JUMPDEST CALLVALUE PUSH2 0x384 JUMPI PUSH1 0x20 CALLDATASIZE PUSH1 0x3 NOT ADD SLT PUSH2 0x384 JUMPI PUSH1 0x4 CALLDATALOAD PUSH2 0x292A DUP2 PUSH2 0x2EE4 JUMP JUMPDEST POP PUSH1 0x0 MSTORE PUSH1 0x4 PUSH1 0x20 MSTORE PUSH1 0x20 PUSH1 0x1 DUP1 PUSH1 0xA0 SHL SUB PUSH1 0x40 PUSH1 0x0 KECCAK256 SLOAD AND PUSH1 0x40 MLOAD SWAP1 DUP2 MSTORE RETURN JUMPDEST CALLVALUE PUSH2 0x384 JUMPI PUSH1 0x0 CALLDATASIZE PUSH1 0x3 NOT ADD SLT PUSH2 0x384 JUMPI PUSH1 0x40 MLOAD PUSH1 0x0 DUP1 SLOAD PUSH2 0x296C DUP2 PUSH2 0x2C75 JUMP JUMPDEST DUP1 DUP5 MSTORE SWAP1 PUSH1 0x1 SWAP1 DUP2 DUP2 AND SWAP1 DUP2 ISZERO PUSH2 0xFF8 JUMPI POP PUSH1 0x1 EQ PUSH2 0x2995 JUMPI PUSH2 0xC66 DUP5 PUSH2 0xF8B DUP2 DUP7 SUB DUP3 PUSH2 0x2BD6 JUMP JUMPDEST PUSH1 0x0 DUP1 DUP1 MSTORE SWAP3 POP PUSH32 0x290DECD9548B62A8D60345A988386FC84BA6BC95484008F6362F93160EF3E563 JUMPDEST DUP3 DUP5 LT PUSH2 0x29D6 JUMPI POP POP POP DUP2 ADD PUSH1 0x20 ADD PUSH2 0xF8B DUP3 PUSH2 0xF7B JUMP JUMPDEST DUP1 SLOAD PUSH1 0x20 DUP6 DUP8 ADD DUP2 ADD SWAP2 SWAP1 SWAP2 MSTORE SWAP1 SWAP4 ADD SWAP3 DUP2 ADD PUSH2 0x29BE JUMP JUMPDEST CALLVALUE PUSH2 0x384 JUMPI PUSH1 0x20 CALLDATASIZE PUSH1 0x3 NOT ADD SLT PUSH2 0x384 JUMPI PUSH1 0x4 CALLDATALOAD SWAP1 PUSH4 0xFFFFFFFF PUSH1 0xE0 SHL DUP3 AND DUP1 SWAP3 SUB PUSH2 0x384 JUMPI PUSH1 0x20 SWAP2 PUSH4 0x24832483 PUSH1 0xE1 SHL DUP2 EQ SWAP1 DUP2 ISZERO PUSH2 0x2A30 JUMPI JUMPDEST POP ISZERO ISZERO DUP2 MSTORE RETURN JUMPDEST PUSH4 0x80AC58CD PUSH1 0xE0 SHL DUP2 EQ SWAP2 POP DUP2 ISZERO PUSH2 0x2A62 JUMPI JUMPDEST DUP2 ISZERO PUSH2 0x2A51 JUMPI JUMPDEST POP DUP4 PUSH2 0x2A29 JUMP JUMPDEST PUSH4 0x1FFC9A7 PUSH1 0xE0 SHL EQ SWAP1 POP DUP4 PUSH2 0x2A4A JUMP JUMPDEST PUSH4 0x5B5E139F PUSH1 0xE0 SHL DUP2 EQ SWAP2 POP PUSH2 0x2A43 JUMP JUMPDEST PUSH1 0x0 JUMPDEST DUP4 DUP2 LT PUSH2 0x2A86 JUMPI POP POP PUSH1 0x0 SWAP2 ADD MSTORE JUMP JUMPDEST DUP2 DUP2 ADD MLOAD DUP4 DUP3 ADD MSTORE PUSH1 0x20 ADD PUSH2 0x2A76 JUMP JUMPDEST SWAP1 PUSH1 0x20 SWAP2 PUSH2 0x2AAF DUP2 MLOAD DUP1 SWAP3 DUP2 DUP6 MSTORE DUP6 DUP1 DUP7 ADD SWAP2 ADD PUSH2 0x2A73 JUMP JUMPDEST PUSH1 0x1F ADD PUSH1 0x1F NOT AND ADD ADD SWAP1 JUMP JUMPDEST PUSH1 0x4 CALLDATALOAD SWAP1 PUSH1 0x1 PUSH1 0x1 PUSH1 0xA0 SHL SUB DUP3 AND DUP3 SUB PUSH2 0x384 JUMPI JUMP JUMPDEST PUSH1 0x24 CALLDATALOAD SWAP1 PUSH1 0x1 PUSH1 0x1 PUSH1 0xA0 SHL SUB DUP3 AND DUP3 SUB PUSH2 0x384 JUMPI JUMP JUMPDEST PUSH1 0x60 SWAP1 PUSH1 0x3 NOT ADD SLT PUSH2 0x384 JUMPI PUSH1 0x1 PUSH1 0x1 PUSH1 0xA0 SHL SUB SWAP1 PUSH1 0x4 CALLDATALOAD DUP3 DUP2 AND DUP2 SUB PUSH2 0x384 JUMPI SWAP2 PUSH1 0x24 CALLDATALOAD SWAP1 DUP2 AND DUP2 SUB PUSH2 0x384 JUMPI SWAP1 PUSH1 0x44 CALLDATALOAD SWAP1 JUMP JUMPDEST SWAP2 DUP2 PUSH1 0x1F DUP5 ADD SLT ISZERO PUSH2 0x384 JUMPI DUP3 CALLDATALOAD SWAP2 PUSH1 0x1 PUSH1 0x1 PUSH1 0x40 SHL SUB DUP4 GT PUSH2 0x384 JUMPI PUSH1 0x20 DUP4 DUP2 DUP7 ADD SWAP6 ADD ADD GT PUSH2 0x384 JUMPI JUMP JUMPDEST PUSH1 0x4 GT ISZERO PUSH2 0x2B53 JUMPI JUMP JUMPDEST PUSH4 0x4E487B71 PUSH1 0xE0 SHL PUSH1 0x0 MSTORE PUSH1 0x21 PUSH1 0x4 MSTORE PUSH1 0x24 PUSH1 0x0 REVERT JUMPDEST PUSH2 0x160 DUP2 ADD SWAP1 DUP2 LT PUSH1 0x1 PUSH1 0x1 PUSH1 0x40 SHL SUB DUP3 GT OR PUSH2 0x1A02 JUMPI PUSH1 0x40 MSTORE JUMP JUMPDEST PUSH1 0x20 DUP2 ADD SWAP1 DUP2 LT PUSH1 0x1 PUSH1 0x1 PUSH1 0x40 SHL SUB DUP3 GT OR PUSH2 0x1A02 JUMPI PUSH1 0x40 MSTORE JUMP JUMPDEST PUSH1 0x40 DUP2 ADD SWAP1 DUP2 LT PUSH1 0x1 PUSH1 0x1 PUSH1 0x40 SHL SUB DUP3 GT OR PUSH2 0x1A02 JUMPI PUSH1 0x40 MSTORE JUMP JUMPDEST PUSH1 0x60 DUP2 ADD SWAP1 DUP2 LT PUSH1 0x1 PUSH1 0x1 PUSH1 0x40 SHL SUB DUP3 GT OR PUSH2 0x1A02 JUMPI PUSH1 0x40 MSTORE JUMP JUMPDEST SWAP1 PUSH1 0x1F DUP1 NOT SWAP2 ADD AND DUP2 ADD SWAP1 DUP2 LT PUSH1 0x1 PUSH1 0x1 PUSH1 0x40 SHL SUB DUP3 GT OR PUSH2 0x1A02 JUMPI PUSH1 0x40 MSTORE JUMP JUMPDEST PUSH1 0x1 PUSH1 0x1 PUSH1 0x40 SHL SUB DUP2 GT PUSH2 0x1A02 JUMPI PUSH1 0x1F ADD PUSH1 0x1F NOT AND PUSH1 0x20 ADD SWAP1 JUMP JUMPDEST SWAP3 SWAP2 SWAP3 PUSH2 0x2C1E DUP3 PUSH2 0x2BF7 JUMP JUMPDEST SWAP2 PUSH2 0x2C2C PUSH1 0x40 MLOAD SWAP4 DUP5 PUSH2 0x2BD6 JUMP JUMPDEST DUP3 SWAP5 DUP2 DUP5 MSTORE DUP2 DUP4 ADD GT PUSH2 0x384 JUMPI DUP3 DUP2 PUSH1 0x20 SWAP4 DUP5 PUSH1 0x0 SWAP7 ADD CALLDATACOPY ADD ADD MSTORE JUMP JUMPDEST PUSH1 0x7 SLOAD PUSH1 0x1 PUSH1 0x1 PUSH1 0xA0 SHL SUB AND CALLER SUB PUSH2 0x2C5D JUMPI JUMP JUMPDEST PUSH1 0x40 MLOAD PUSH4 0x118CDAA7 PUSH1 0xE0 SHL DUP2 MSTORE CALLER PUSH1 0x4 DUP3 ADD MSTORE PUSH1 0x24 SWAP1 REVERT JUMPDEST SWAP1 PUSH1 0x1 DUP3 DUP2 SHR SWAP3 AND DUP1 ISZERO PUSH2 0x2CA5 JUMPI JUMPDEST PUSH1 0x20 DUP4 LT EQ PUSH2 0x2C8F JUMPI JUMP JUMPDEST PUSH4 0x4E487B71 PUSH1 0xE0 SHL PUSH1 0x0 MSTORE PUSH1 0x22 PUSH1 0x4 MSTORE PUSH1 0x24 PUSH1 0x0 REVERT JUMPDEST SWAP2 PUSH1 0x7F AND SWAP2 PUSH2 0x2C84 JUMP JUMPDEST SWAP1 PUSH1 0x0 SWAP3 SWAP2 DUP1 SLOAD SWAP2 PUSH2 0x2CC0 DUP4 PUSH2 0x2C75 JUMP JUMPDEST SWAP2 DUP3 DUP3 MSTORE PUSH1 0x1 SWAP4 DUP5 DUP2 AND SWAP1 DUP2 PUSH1 0x0 EQ PUSH2 0x2D22 JUMPI POP PUSH1 0x1 EQ PUSH2 0x2CE2 JUMPI JUMPDEST POP POP POP POP JUMP JUMPDEST SWAP1 SWAP2 SWAP4 SWAP5 POP PUSH1 0x0 MSTORE PUSH1 0x20 SWAP3 DUP4 PUSH1 0x0 KECCAK256 SWAP3 DUP5 PUSH1 0x0 SWAP5 JUMPDEST DUP4 DUP7 LT PUSH2 0x2D0E JUMPI POP POP POP POP ADD ADD SWAP1 CODESIZE DUP1 DUP1 DUP1 PUSH2 0x2CDC JUMP JUMPDEST DUP1 SLOAD DUP6 DUP8 ADD DUP4 ADD MSTORE SWAP5 ADD SWAP4 DUP6 SWAP1 DUP3 ADD PUSH2 0x2CF7 JUMP JUMPDEST SWAP3 SWAP5 POP POP POP PUSH1 0x20 SWAP4 SWAP5 POP PUSH1 0xFF NOT AND DUP4 DUP4 ADD MSTORE ISZERO ISZERO PUSH1 0x5 SHL ADD ADD SWAP1 CODESIZE DUP1 DUP1 DUP1 PUSH2 0x2CDC JUMP JUMPDEST PUSH1 0x1 PUSH1 0x1 PUSH1 0xA0 SHL SUB SWAP2 DUP3 AND SWAP3 SWAP1 SWAP2 DUP4 ISZERO PUSH2 0x2ECB JUMPI PUSH1 0x0 SWAP3 DUP3 DUP5 MSTORE DUP3 PUSH1 0x20 SWAP6 PUSH1 0x2 DUP8 MSTORE PUSH1 0x40 SWAP7 DUP5 DUP9 DUP9 KECCAK256 SLOAD AND SWAP7 DUP8 SWAP2 CALLER ISZERO ISZERO DUP1 PUSH2 0x2E35 JUMPI JUMPDEST POP SWAP1 PUSH1 0x2 PUSH32 0xDDF252AD1BE2C89B69C2B068FC378DAA952BA7F163C4A11628F55A4DF523B3EF SWAP3 DUP5 PUSH2 0x2E02 JUMPI JUMPDEST DUP6 DUP4 MSTORE PUSH1 0x3 DUP2 MSTORE DUP12 DUP4 KECCAK256 DUP1 SLOAD PUSH1 0x1 ADD SWAP1 SSTORE DUP7 DUP4 MSTORE MSTORE DUP10 DUP2 KECCAK256 DUP1 SLOAD PUSH1 0x1 PUSH1 0x1 PUSH1 0xA0 SHL SUB NOT AND DUP6 OR SWAP1 SSTORE DUP1 LOG4 AND SWAP3 DUP4 DUP4 SUB PUSH2 0x2DE1 JUMPI POP POP POP POP JUMP JUMPDEST PUSH1 0x64 SWAP5 POP MLOAD SWAP3 PUSH4 0x64283D7B PUSH1 0xE0 SHL DUP5 MSTORE PUSH1 0x4 DUP5 ADD MSTORE PUSH1 0x24 DUP4 ADD MSTORE PUSH1 0x44 DUP3 ADD MSTORE REVERT JUMPDEST PUSH1 0x0 DUP8 DUP2 MSTORE PUSH1 0x4 PUSH1 0x20 MSTORE PUSH1 0x40 SWAP1 KECCAK256 DUP1 SLOAD PUSH1 0x1 PUSH1 0x1 PUSH1 0xA0 SHL SUB NOT AND SWAP1 SSTORE DUP5 DUP4 MSTORE PUSH1 0x3 DUP2 MSTORE DUP12 DUP4 KECCAK256 DUP1 SLOAD PUSH1 0x0 NOT ADD SWAP1 SSTORE PUSH2 0x2DA8 JUMP JUMPDEST SWAP2 SWAP4 SWAP5 POP SWAP2 POP DUP1 PUSH2 0x2E8A JUMPI JUMPDEST ISZERO PUSH2 0x2E51 JUMPI DUP6 SWAP3 SWAP2 DUP8 SWAP2 CODESIZE PUSH2 0x2D7C JUMP JUMPDEST DUP8 DUP7 DUP9 PUSH2 0x2E6E JUMPI PUSH1 0x24 SWAP2 MLOAD SWAP1 PUSH4 0x7E273289 PUSH1 0xE0 SHL DUP3 MSTORE PUSH1 0x4 DUP3 ADD MSTORE REVERT JUMPDEST PUSH1 0x44 SWAP2 MLOAD SWAP1 PUSH4 0x177E802F PUSH1 0xE0 SHL DUP3 MSTORE CALLER PUSH1 0x4 DUP4 ADD MSTORE PUSH1 0x24 DUP3 ADD MSTORE REVERT JUMPDEST POP CALLER DUP8 EQ DUP1 ISZERO PUSH2 0x2EAF JUMPI JUMPDEST DUP1 PUSH2 0x2E41 JUMPI POP DUP6 DUP3 MSTORE PUSH1 0x4 DUP2 MSTORE CALLER DUP6 DUP10 DUP5 KECCAK256 SLOAD AND EQ PUSH2 0x2E41 JUMP JUMPDEST POP DUP7 DUP3 MSTORE PUSH1 0x5 DUP2 MSTORE DUP8 DUP3 KECCAK256 CALLER DUP4 MSTORE DUP2 MSTORE PUSH1 0xFF DUP9 DUP4 KECCAK256 SLOAD AND PUSH2 0x2E95 JUMP JUMPDEST PUSH1 0x40 MLOAD PUSH4 0x32505749 PUSH1 0xE1 SHL DUP2 MSTORE PUSH1 0x0 PUSH1 0x4 DUP3 ADD MSTORE PUSH1 0x24 SWAP1 REVERT JUMPDEST PUSH1 0x0 DUP2 DUP2 MSTORE PUSH1 0x2 PUSH1 0x20 MSTORE PUSH1 0x40 SWAP1 KECCAK256 SLOAD PUSH1 0x1 PUSH1 0x1 PUSH1 0xA0 SHL SUB AND SWAP1 DUP2 ISZERO PUSH2 0x2F07 JUMPI POP SWAP1 JUMP JUMPDEST PUSH1 0x24 SWAP1 PUSH1 0x40 MLOAD SWAP1 PUSH4 0x7E273289 PUSH1 0xE0 SHL DUP3 MSTORE PUSH1 0x4 DUP3 ADD MSTORE REVERT JUMPDEST SWAP1 SWAP4 SWAP2 SWAP3 DUP4 EXTCODESIZE PUSH2 0x2F31 JUMPI JUMPDEST POP POP POP POP POP JUMP JUMPDEST PUSH1 0x40 MLOAD PUSH4 0xA85BD01 PUSH1 0xE1 SHL DUP1 DUP3 MSTORE PUSH1 0x1 PUSH1 0x1 PUSH1 0xA0 SHL SUB SWAP4 DUP5 AND PUSH1 0x4 DUP4 ADD MSTORE SWAP6 DUP4 AND PUSH1 0x24 DUP3 ADD MSTORE PUSH1 0x44 DUP2 ADD SWAP2 SWAP1 SWAP2 MSTORE PUSH1 0x80 PUSH1 0x64 DUP3 ADD MSTORE SWAP5 SWAP3 AND SWAP3 PUSH1 0x20 SWAP3 SWAP2 DUP6 SWAP1 PUSH2 0x2F7E SWAP1 PUSH1 0x84 DUP4 ADD SWAP1 PUSH2 0x2A96 JUMP JUMPDEST SUB SWAP5 DUP4 DUP2 PUSH1 0x0 SWAP8 DUP2 DUP10 DUP10 GAS CALL DUP7 SWAP2 DUP2 PUSH2 0x3029 JUMPI JUMPDEST POP PUSH2 0x2FF3 JUMPI POP POP POP RETURNDATASIZE PUSH1 0x0 EQ PUSH2 0x2FEA JUMPI RETURNDATASIZE PUSH2 0x2FAC DUP2 PUSH2 0x2BF7 JUMP JUMPDEST SWAP1 PUSH2 0x2FBA PUSH1 0x40 MLOAD SWAP3 DUP4 PUSH2 0x2BD6 JUMP JUMPDEST DUP2 MSTORE DUP1 SWAP4 DUP3 RETURNDATASIZE SWAP3 ADD RETURNDATACOPY JUMPDEST DUP3 MLOAD SWAP3 DUP4 PUSH2 0x2FE5 JUMPI PUSH1 0x40 MLOAD PUSH4 0x32505749 PUSH1 0xE1 SHL DUP2 MSTORE PUSH1 0x4 DUP2 ADD DUP5 SWAP1 MSTORE PUSH1 0x24 SWAP1 REVERT JUMPDEST ADD SWAP1 POP REVERT JUMPDEST PUSH1 0x60 SWAP3 POP PUSH2 0x2FC4 JUMP JUMPDEST SWAP2 SWAP5 POP SWAP2 POP PUSH4 0xFFFFFFFF PUSH1 0xE0 SHL AND SUB PUSH2 0x3011 JUMPI POP CODESIZE DUP1 DUP1 DUP1 DUP1 PUSH2 0x2F2A JUMP JUMPDEST PUSH1 0x24 SWAP1 PUSH1 0x40 MLOAD SWAP1 PUSH4 0x32505749 PUSH1 0xE1 SHL DUP3 MSTORE PUSH1 0x4 DUP3 ADD MSTORE REVERT JUMPDEST SWAP1 SWAP2 POP DUP5 DUP2 DUP2 RETURNDATASIZE DUP4 GT PUSH2 0x3066 JUMPI JUMPDEST PUSH2 0x3041 DUP2 DUP4 PUSH2 0x2BD6 JUMP JUMPDEST DUP2 ADD SUB SLT PUSH2 0x3062 JUMPI MLOAD PUSH1 0x1 PUSH1 0x1 PUSH1 0xE0 SHL SUB NOT DUP2 AND DUP2 SUB PUSH2 0x3062 JUMPI SWAP1 CODESIZE PUSH2 0x2F92 JUMP JUMPDEST DUP7 DUP1 REVERT JUMPDEST POP RETURNDATASIZE PUSH2 0x3037 JUMP JUMPDEST PUSH1 0xFF DUP2 EQ PUSH2 0x30AB JUMPI PUSH1 0xFF DUP2 AND SWAP1 PUSH1 0x1F DUP3 GT PUSH2 0x3099 JUMPI PUSH1 0x40 MLOAD SWAP2 PUSH2 0x308F DUP4 PUSH2 0x2BA0 JUMP JUMPDEST DUP3 MSTORE PUSH1 0x20 DUP3 ADD MSTORE SWAP1 JUMP JUMPDEST PUSH1 0x40 MLOAD PUSH4 0x2CD44AC3 PUSH1 0xE2 SHL DUP2 MSTORE PUSH1 0x4 SWAP1 REVERT JUMPDEST POP PUSH1 0x40 MLOAD PUSH1 0x8 SLOAD DUP2 PUSH1 0x0 PUSH2 0x30BE DUP4 PUSH2 0x2C75 JUMP JUMPDEST DUP1 DUP4 MSTORE SWAP3 PUSH1 0x1 SWAP1 DUP2 DUP2 AND SWAP1 DUP2 ISZERO PUSH2 0x3147 JUMPI POP PUSH1 0x1 EQ PUSH2 0x30E8 JUMPI JUMPDEST POP PUSH2 0x30E5 SWAP3 POP SUB DUP3 PUSH2 0x2BD6 JUMP JUMPDEST SWAP1 JUMP JUMPDEST PUSH1 0x8 PUSH1 0x0 SWAP1 DUP2 MSTORE SWAP2 POP PUSH32 0xF3F7A9FE364FAAB93B216DA50A3214154F22A0A2B415B23A84C8169E8B636EE3 JUMPDEST DUP5 DUP4 LT PUSH2 0x312C JUMPI POP PUSH2 0x30E5 SWAP4 POP POP DUP2 ADD PUSH1 0x20 ADD CODESIZE PUSH2 0x30D8 JUMP JUMPDEST DUP2 SWAP4 POP SWAP1 DUP2 PUSH1 0x20 SWAP3 SLOAD DUP4 DUP6 DUP10 ADD ADD MSTORE ADD SWAP2 ADD SWAP1 SWAP2 DUP5 SWAP3 PUSH2 0x3113 JUMP JUMPDEST SWAP1 POP PUSH1 0x20 SWAP3 POP PUSH2 0x30E5 SWAP5 SWAP2 POP PUSH1 0xFF NOT AND DUP3 DUP5 ADD MSTORE ISZERO ISZERO PUSH1 0x5 SHL DUP3 ADD ADD CODESIZE PUSH2 0x30D8 JUMP JUMPDEST PUSH1 0xFF DUP2 EQ PUSH2 0x318B JUMPI PUSH1 0xFF DUP2 AND SWAP1 PUSH1 0x1F DUP3 GT PUSH2 0x3099 JUMPI PUSH1 0x40 MLOAD SWAP2 PUSH2 0x308F DUP4 PUSH2 0x2BA0 JUMP JUMPDEST POP PUSH1 0x40 MLOAD PUSH1 0x9 SLOAD DUP2 PUSH1 0x0 PUSH2 0x319E DUP4 PUSH2 0x2C75 JUMP JUMPDEST DUP1 DUP4 MSTORE SWAP3 PUSH1 0x1 SWAP1 DUP2 DUP2 AND SWAP1 DUP2 ISZERO PUSH2 0x3147 JUMPI POP PUSH1 0x1 EQ PUSH2 0x31C4 JUMPI POP PUSH2 0x30E5 SWAP3 POP SUB DUP3 PUSH2 0x2BD6 JUMP JUMPDEST PUSH1 0x9 PUSH1 0x0 SWAP1 DUP2 MSTORE SWAP2 POP PUSH32 0x6E1540171B6C0C960B71A7020D9F60077F6AF931A8BBF590DA0223DACF75C7AF JUMPDEST DUP5 DUP4 LT PUSH2 0x3208 JUMPI POP PUSH2 0x30E5 SWAP4 POP POP DUP2 ADD PUSH1 0x20 ADD CODESIZE PUSH2 0x30D8 JUMP JUMPDEST DUP2 SWAP4 POP SWAP1 DUP2 PUSH1 0x20 SWAP3 SLOAD DUP4 DUP6 DUP10 ADD ADD MSTORE ADD SWAP2 ADD SWAP1 SWAP2 DUP5 SWAP3 PUSH2 0x31EF JUMP JUMPDEST SWAP1 PUSH2 0x322D DUP3 PUSH2 0x2BF7 JUMP JUMPDEST PUSH2 0x323A PUSH1 0x40 MLOAD SWAP2 DUP3 PUSH2 0x2BD6 JUMP JUMPDEST DUP3 DUP2 MSTORE DUP1 SWAP3 PUSH2 0x324B PUSH1 0x1F NOT SWAP2 PUSH2 0x2BF7 JUMP JUMPDEST ADD SWAP1 PUSH1 0x20 CALLDATASIZE SWAP2 ADD CALLDATACOPY JUMP JUMPDEST ISZERO PUSH2 0x325C JUMPI JUMP JUMPDEST PUSH1 0x40 MLOAD PUSH3 0x461BCD PUSH1 0xE5 SHL DUP2 MSTORE PUSH1 0x20 PUSH1 0x4 DUP3 ADD MSTORE PUSH1 0x12 PUSH1 0x24 DUP3 ADD MSTORE PUSH18 0x14DD185C9D081D1A5B59481D1BDBC81BDB19 PUSH1 0x72 SHL PUSH1 0x44 DUP3 ADD MSTORE PUSH1 0x64 SWAP1 REVERT JUMPDEST ISZERO PUSH2 0x329D JUMPI JUMP JUMPDEST PUSH1 0x40 MLOAD PUSH3 0x461BCD PUSH1 0xE5 SHL DUP2 MSTORE PUSH1 0x20 PUSH1 0x4 DUP3 ADD MSTORE PUSH1 0x10 PUSH1 0x24 DUP3 ADD MSTORE PUSH16 0x24B73B30B634B210323AB930BA34B7B7 PUSH1 0x81 SHL PUSH1 0x44 DUP3 ADD MSTORE PUSH1 0x64 SWAP1 REVERT JUMPDEST ISZERO PUSH2 0x32DC JUMPI JUMP JUMPDEST PUSH1 0x40 MLOAD PUSH3 0x461BCD PUSH1 0xE5 SHL DUP2 MSTORE PUSH1 0x20 PUSH1 0x4 DUP3 ADD MSTORE PUSH1 0x13 PUSH1 0x24 DUP3 ADD MSTORE PUSH19 0x5061796D656E74206D757374206265203E203 PUSH1 0x6C SHL PUSH1 0x44 DUP3 ADD MSTORE PUSH1 0x64 SWAP1 REVERT JUMPDEST PUSH1 0x0 NOT DUP2 EQ PUSH2 0x1CAD JUMPI PUSH1 0x1 ADD SWAP1 JUMP JUMPDEST SWAP1 PUSH2 0x3330 DUP2 PUSH2 0x2B49 JUMP JUMPDEST PUSH1 0xFF DUP1 NOT DUP4 SLOAD AND SWAP2 AND OR SWAP1 SSTORE JUMP JUMPDEST SWAP1 PUSH1 0x80 DUP4 PUSH1 0x40 SWAP5 PUSH1 0x1 PUSH1 0x1 PUSH1 0x40 SHL SUB SWAP4 SWAP9 SWAP8 SWAP7 SWAP9 PUSH1 0x60 DUP7 MSTORE DUP2 PUSH1 0x60 DUP8 ADD MSTORE DUP4 DUP7 ADD CALLDATACOPY PUSH1 0x0 DUP3 DUP3 DUP7 ADD ADD MSTORE PUSH1 0x1F DUP1 NOT SWAP2 ADD AND DUP4 ADD ADD SWAP6 AND PUSH1 0x20 DUP3 ADD MSTORE ADD MSTORE JUMP JUMPDEST PUSH1 0x40 DUP1 MLOAD PUSH2 0x338A DUP2 PUSH2 0x2B85 JUMP JUMPDEST PUSH1 0x0 DUP1 DUP3 MSTORE SWAP4 PUSH1 0x1 PUSH1 0x1 PUSH1 0xA0 SHL SUB DUP5 DUP2 AND SWAP5 SWAP1 SWAP3 SWAP1 DUP6 ISZERO PUSH2 0x3593 JUMPI DUP3 DUP8 MSTORE PUSH1 0x20 SWAP4 PUSH1 0x2 DUP6 MSTORE DUP6 DUP9 KECCAK256 SLOAD AND DUP4 DUP8 DUP3 ISZERO ISZERO SWAP3 DUP4 PUSH2 0x3560 JUMPI JUMPDEST DUP2 DUP12 MSTORE PUSH1 0x3 DUP9 MSTORE DUP9 DUP12 KECCAK256 DUP1 SLOAD PUSH1 0x1 ADD SWAP1 SSTORE DUP3 DUP12 MSTORE PUSH1 0x2 DUP9 MSTORE DUP9 DUP12 KECCAK256 DUP1 SLOAD PUSH1 0x1 PUSH1 0x1 PUSH1 0xA0 SHL SUB NOT AND DUP4 OR SWAP1 SSTORE PUSH32 0xDDF252AD1BE2C89B69C2B068FC378DAA952BA7F163C4A11628F55A4DF523B3EF DUP12 DUP1 LOG4 PUSH2 0x3548 JUMPI EXTCODESIZE PUSH2 0x3421 JUMPI JUMPDEST POP POP POP POP POP POP JUMP JUMPDEST DUP3 PUSH2 0x345F SWAP2 DUP6 SWAP7 SWAP8 SWAP9 SWAP5 SWAP6 MLOAD DUP1 SWAP4 DUP2 SWAP3 PUSH4 0xA85BD01 PUSH1 0xE1 SHL SWAP7 DUP8 DUP5 MSTORE CALLER PUSH1 0x4 DUP6 ADD MSTORE DUP13 PUSH1 0x24 DUP6 ADD MSTORE PUSH1 0x44 DUP5 ADD MSTORE PUSH1 0x80 PUSH1 0x64 DUP5 ADD MSTORE PUSH1 0x84 DUP4 ADD SWAP1 PUSH2 0x2A96 JUMP JUMPDEST SUB DUP2 DUP11 DUP11 GAS CALL DUP8 SWAP2 DUP2 PUSH2 0x3504 JUMPI JUMPDEST POP PUSH2 0x34CD JUMPI POP POP POP RETURNDATASIZE PUSH1 0x0 EQ PUSH2 0x34C4 JUMPI RETURNDATASIZE PUSH2 0x3487 DUP2 PUSH2 0x2BF7 JUMP JUMPDEST SWAP1 PUSH2 0x3494 DUP5 MLOAD SWAP3 DUP4 PUSH2 0x2BD6 JUMP JUMPDEST DUP2 MSTORE DUP1 SWAP5 DUP3 RETURNDATASIZE SWAP3 ADD RETURNDATACOPY JUMPDEST DUP4 MLOAD SWAP4 DUP5 PUSH2 0x34BE JUMPI DUP3 MLOAD PUSH4 0x32505749 PUSH1 0xE1 SHL DUP2 MSTORE PUSH1 0x4 DUP2 ADD DUP6 SWAP1 MSTORE PUSH1 0x24 SWAP1 REVERT JUMPDEST DUP5 SWAP3 POP ADD REVERT JUMPDEST PUSH1 0x60 SWAP4 POP PUSH2 0x349E JUMP JUMPDEST SWAP2 SWAP6 POP SWAP2 POP PUSH4 0xFFFFFFFF PUSH1 0xE0 SHL AND SUB PUSH2 0x34ED JUMPI POP POP CODESIZE DUP1 DUP1 DUP1 DUP1 DUP1 PUSH2 0x3419 JUMP JUMPDEST PUSH1 0x24 SWAP3 POP MLOAD SWAP1 PUSH4 0x32505749 PUSH1 0xE1 SHL DUP3 MSTORE PUSH1 0x4 DUP3 ADD MSTORE REVERT JUMPDEST SWAP1 SWAP2 POP DUP5 DUP2 DUP2 RETURNDATASIZE DUP4 GT PUSH2 0x3541 JUMPI JUMPDEST PUSH2 0x351C DUP2 DUP4 PUSH2 0x2BD6 JUMP JUMPDEST DUP2 ADD SUB SLT PUSH2 0x353D JUMPI MLOAD PUSH1 0x1 PUSH1 0x1 PUSH1 0xE0 SHL SUB NOT DUP2 AND DUP2 SUB PUSH2 0x353D JUMPI SWAP1 CODESIZE PUSH2 0x346D JUMP JUMPDEST DUP8 DUP1 REVERT JUMPDEST POP RETURNDATASIZE PUSH2 0x3512 JUMP JUMPDEST DUP5 MLOAD PUSH4 0x39E35637 PUSH1 0xE1 SHL DUP2 MSTORE PUSH1 0x4 DUP2 ADD DUP9 SWAP1 MSTORE PUSH1 0x24 SWAP1 REVERT JUMPDEST PUSH1 0x0 DUP4 DUP2 MSTORE PUSH1 0x4 PUSH1 0x20 MSTORE PUSH1 0x40 SWAP1 KECCAK256 DUP1 SLOAD PUSH1 0x1 PUSH1 0x1 PUSH1 0xA0 SHL SUB NOT AND SWAP1 SSTORE DUP1 DUP12 MSTORE PUSH1 0x3 DUP9 MSTORE DUP9 DUP12 KECCAK256 DUP1 SLOAD PUSH1 0x0 NOT ADD SWAP1 SSTORE PUSH2 0x33C0 JUMP JUMPDEST DUP5 MLOAD PUSH4 0x32505749 PUSH1 0xE1 SHL DUP2 MSTORE PUSH1 0x4 DUP2 ADD DUP9 SWAP1 MSTORE PUSH1 0x24 SWAP1 REVERT JUMPDEST ISZERO PUSH2 0x35B2 JUMPI JUMP JUMPDEST PUSH1 0x40 MLOAD PUSH3 0x461BCD PUSH1 0xE5 SHL DUP2 MSTORE PUSH1 0x20 PUSH1 0x4 DUP3 ADD MSTORE PUSH1 0x11 PUSH1 0x24 DUP3 ADD MSTORE PUSH17 0x2737B732BC34B9BA32B73A103A37B5B2B7 PUSH1 0x79 SHL PUSH1 0x44 DUP3 ADD MSTORE PUSH1 0x64 SWAP1 REVERT JUMPDEST ISZERO PUSH2 0x35F2 JUMPI JUMP JUMPDEST PUSH1 0x40 MLOAD PUSH3 0x461BCD PUSH1 0xE5 SHL DUP2 MSTORE PUSH1 0x20 PUSH1 0x4 DUP3 ADD MSTORE PUSH1 0xF PUSH1 0x24 DUP3 ADD MSTORE PUSH15 0x139BDD081C185C9D1A58DA5C185B9D PUSH1 0x8A SHL PUSH1 0x44 DUP3 ADD MSTORE PUSH1 0x64 SWAP1 REVERT JUMPDEST CALLDATALOAD PUSH1 0x1 PUSH1 0x1 PUSH1 0xA0 SHL SUB DUP2 AND DUP2 SUB PUSH2 0x384 JUMPI SWAP1 JUMP JUMPDEST CALLDATALOAD PUSH1 0x1 PUSH1 0x1 PUSH1 0x40 SHL SUB DUP2 AND DUP2 SUB PUSH2 0x384 JUMPI SWAP1 JUMP JUMPDEST CALLDATALOAD PUSH4 0xFFFFFFFF DUP2 AND DUP2 SUB PUSH2 0x384 JUMPI SWAP1 JUMP JUMPDEST SWAP1 CALLDATALOAD SWAP1 PUSH1 0x1E NOT DUP2 CALLDATASIZE SUB ADD DUP3 SLT ISZERO PUSH2 0x384 JUMPI ADD DUP1 CALLDATALOAD SWAP1 PUSH1 0x1 PUSH1 0x1 PUSH1 0x40 SHL SUB DUP3 GT PUSH2 0x384 JUMPI PUSH1 0x20 ADD SWAP2 DUP2 CALLDATASIZE SUB DUP4 SGT PUSH2 0x384 JUMPI JUMP JUMPDEST DUP2 MLOAD SWAP2 SWAP1 PUSH1 0x41 DUP4 SUB PUSH2 0x36C5 JUMPI PUSH2 0x36BE SWAP3 POP PUSH1 0x20 DUP3 ADD MLOAD SWAP1 PUSH1 0x60 PUSH1 0x40 DUP5 ADD MLOAD SWAP4 ADD MLOAD PUSH1 0x0 BYTE SWAP1 PUSH2 0x36D0 JUMP JUMPDEST SWAP2 SWAP3 SWAP1 SWAP2 SWAP1 JUMP JUMPDEST POP POP PUSH1 0x0 SWAP2 PUSH1 0x2 SWAP2 SWAP1 JUMP JUMPDEST SWAP2 SWAP1 PUSH32 0x7FFFFFFFFFFFFFFFFFFFFFFFFFFFFFFF5D576E7357A4501DDFE92F46681B20A0 DUP5 GT PUSH2 0x3754 JUMPI SWAP3 PUSH1 0x20 SWAP3 SWAP2 PUSH1 0xFF PUSH1 0x80 SWAP6 PUSH1 0x40 MLOAD SWAP5 DUP6 MSTORE AND DUP5 DUP5 ADD MSTORE PUSH1 0x40 DUP4 ADD MSTORE PUSH1 0x60 DUP3 ADD MSTORE PUSH1 0x0 SWAP3 DUP4 SWAP2 DUP3 DUP1 MSTORE PUSH1 0x1 GAS STATICCALL ISZERO PUSH2 0x3748 JUMPI DUP1 MLOAD PUSH1 0x1 PUSH1 0x1 PUSH1 0xA0 SHL SUB DUP2 AND ISZERO PUSH2 0x373F JUMPI SWAP2 DUP2 SWAP1 JUMP JUMPDEST POP DUP1 SWAP2 PUSH1 0x1 SWAP2 SWAP1 JUMP JUMPDEST PUSH1 0x40 MLOAD SWAP1 RETURNDATASIZE SWAP1 DUP3 RETURNDATACOPY RETURNDATASIZE SWAP1 REVERT JUMPDEST POP POP POP PUSH1 0x0 SWAP2 PUSH1 0x3 SWAP2 SWAP1 JUMP JUMPDEST PUSH2 0x3769 DUP2 PUSH2 0x2B49 JUMP JUMPDEST DUP1 PUSH2 0x3772 JUMPI POP POP JUMP JUMPDEST PUSH2 0x377B DUP2 PUSH2 0x2B49 JUMP JUMPDEST PUSH1 0x1 DUP2 SUB PUSH2 0x3795 JUMPI PUSH1 0x40 MLOAD PUSH4 0xF645EEDF PUSH1 0xE0 SHL DUP2 MSTORE PUSH1 0x4 SWAP1 REVERT JUMPDEST PUSH2 0x379E DUP2 PUSH2 0x2B49 JUMP JUMPDEST PUSH1 0x2 DUP2 SUB PUSH2 0x37BF JUMPI PUSH1 0x40 MLOAD PUSH4 0xFCE698F7 PUSH1 0xE0 SHL DUP2 MSTORE PUSH1 0x4 DUP2 ADD DUP4 SWAP1 MSTORE PUSH1 0x24 SWAP1 REVERT JUMPDEST DUP1 PUSH2 0x37CB PUSH1 0x3 SWAP3 PUSH2 0x2B49 JUMP JUMPDEST EQ PUSH2 0x37D3 JUMPI POP JUMP JUMPDEST PUSH1 0x24 SWAP1 PUSH1 0x40 MLOAD SWAP1 PUSH4 0x35E2F383 PUSH1 0xE2 SHL DUP3 MSTORE PUSH1 0x4 DUP3 ADD MSTORE REVERT JUMPDEST ADDRESS PUSH32 0x0 PUSH1 0x1 PUSH1 0x1 PUSH1 0xA0 SHL SUB AND EQ DUP1 PUSH2 0x38EC JUMPI JUMPDEST ISZERO PUSH2 0x3846 JUMPI PUSH32 0x0 SWAP1 JUMP JUMPDEST PUSH1 0x40 MLOAD PUSH1 0x20 DUP2 ADD SWAP1 PUSH32 0x8B73C3C69BB8FE3D512ECC4CF759CC79239F7B179B0FFACAA9A75D522B39400F DUP3 MSTORE PUSH32 0x0 PUSH1 0x40 DUP3 ADD MSTORE PUSH32 0x0 PUSH1 0x60 DUP3 ADD MSTORE CHAINID PUSH1 0x80 DUP3 ADD MSTORE ADDRESS PUSH1 0xA0 DUP3 ADD MSTORE PUSH1 0xA0 DUP2 MSTORE PUSH1 0xC0 DUP2 ADD DUP2 DUP2 LT PUSH1 0x1 PUSH1 0x1 PUSH1 0x40 SHL SUB DUP3 GT OR PUSH2 0x1A02 JUMPI PUSH1 0x40 MSTORE MLOAD SWAP1 KECCAK256 SWAP1 JUMP JUMPDEST POP PUSH32 0x0 CHAINID EQ PUSH2 0x381D JUMP JUMPDEST DUP1 MLOAD ISZERO PUSH2 0x39F8 JUMPI DUP1 MLOAD PUSH1 0x2 SWAP2 DUP3 DUP3 ADD DUP1 SWAP3 GT PUSH2 0x1CAD JUMPI PUSH1 0x3 SWAP2 DUP3 SWAP1 DIV PUSH1 0x1 PUSH1 0x1 PUSH1 0xFE SHL SUB DUP2 AND DUP2 SUB PUSH2 0x1CAD JUMPI PUSH2 0x394E SWAP1 DUP5 SWAP6 SWAP5 SHL PUSH2 0x3223 JUMP JUMPDEST SWAP4 PUSH1 0x20 DUP6 ADD SWAP4 DUP3 SWAP2 DUP4 MLOAD DUP5 ADD SWAP1 PUSH1 0x20 DUP3 ADD SWAP3 DUP4 MLOAD SWAP5 PUSH1 0x0 DUP6 MSTORE JUMPDEST DUP4 DUP2 LT PUSH2 0x39A7 JUMPI POP POP POP POP MSTORE MLOAD MOD DUP1 PUSH1 0x1 EQ PUSH2 0x3994 JUMPI PUSH1 0x2 EQ PUSH2 0x3989 JUMPI POP SWAP1 JUMP JUMPDEST PUSH1 0x3D SWAP1 PUSH1 0x0 NOT ADD MSTORE8 SWAP1 JUMP JUMPDEST POP PUSH1 0x3D SWAP1 DUP2 PUSH1 0x0 NOT DUP3 ADD MSTORE8 PUSH1 0x1 NOT ADD MSTORE8 SWAP1 JUMP JUMPDEST DUP8 PUSH1 0x4 SWAP2 SWAP10 SWAP3 SWAP4 SWAP5 SWAP10 ADD SWAP2 DUP3 MLOAD PUSH1 0x1 SWAP1 PUSH1 0x3F SWAP1 DUP3 DUP3 DUP3 PUSH1 0x12 SHR AND DUP9 ADD ADD MLOAD DUP5 MSTORE8 DUP3 DUP3 DUP3 PUSH1 0xC SHR AND DUP9 ADD ADD MLOAD DUP4 DUP6 ADD MSTORE8 DUP3 DUP3 DUP3 PUSH1 0x6 SHR AND DUP9 ADD ADD MLOAD DUP9 DUP6 ADD MSTORE8 AND DUP6 ADD ADD MLOAD DUP10 DUP3 ADD MSTORE8 ADD SWAP8 SWAP3 SWAP2 SWAP1 PUSH2 0x3968 JUMP JUMPDEST POP POP PUSH1 0x40 MLOAD PUSH2 0x3A06 DUP2 PUSH2 0x2B85 JUMP JUMPDEST PUSH1 0x0 DUP2 MSTORE SWAP1 JUMP JUMPDEST DUP1 PUSH1 0x0 SWAP2 PUSH27 0x184F03E93FF9F4DAA797ED6E38ED64BF6A1F010000000000000000 DUP1 DUP3 LT ISZERO PUSH2 0x3B42 JUMPI JUMPDEST POP PUSH14 0x4EE2D6D415B85ACEF8100000000 DUP1 DUP4 LT ISZERO PUSH2 0x3B33 JUMPI JUMPDEST POP PUSH7 0x2386F26FC10000 DUP1 DUP4 LT ISZERO PUSH2 0x3B24 JUMPI JUMPDEST POP PUSH4 0x5F5E100 DUP1 DUP4 LT ISZERO PUSH2 0x3B15 JUMPI JUMPDEST POP PUSH2 0x2710 DUP1 DUP4 LT ISZERO PUSH2 0x3B06 JUMPI JUMPDEST POP PUSH1 0x64 DUP3 LT ISZERO PUSH2 0x3AF6 JUMPI JUMPDEST PUSH1 0xA DUP1 SWAP3 LT ISZERO PUSH2 0x3AEC JUMPI JUMPDEST PUSH1 0x1 SWAP1 DUP2 PUSH1 0x21 PUSH2 0x3AA4 DUP3 DUP8 ADD PUSH2 0x3223 JUMP JUMPDEST SWAP6 DUP7 ADD ADD SWAP1 JUMPDEST PUSH2 0x3AB6 JUMPI JUMPDEST POP POP POP POP SWAP1 JUMP JUMPDEST PUSH1 0x0 NOT ADD SWAP1 DUP4 SWAP1 PUSH16 0x181899199A1A9B1B9C1CB0B131B232B3 PUSH1 0x81 SHL DUP3 DUP3 MOD BYTE DUP4 MSTORE8 DIV SWAP2 DUP3 ISZERO PUSH2 0x3AE7 JUMPI SWAP2 SWAP1 DUP3 PUSH2 0x3AAA JUMP JUMPDEST PUSH2 0x3AAF JUMP JUMPDEST SWAP2 PUSH1 0x1 ADD SWAP2 PUSH2 0x3A93 JUMP JUMPDEST SWAP2 SWAP1 PUSH1 0x64 PUSH1 0x2 SWAP2 DIV SWAP2 ADD SWAP2 PUSH2 0x3A88 JUMP JUMPDEST PUSH1 0x4 SWAP2 SWAP4 SWAP3 DIV SWAP2 ADD SWAP2 CODESIZE PUSH2 0x3A7D JUMP JUMPDEST PUSH1 0x8 SWAP2 SWAP4 SWAP3 DIV SWAP2 ADD SWAP2 CODESIZE PUSH2 0x3A70 JUMP JUMPDEST PUSH1 0x10 SWAP2 SWAP4 SWAP3 DIV SWAP2 ADD SWAP2 CODESIZE PUSH2 0x3A61 JUMP JUMPDEST PUSH1 0x20 SWAP2 SWAP4 SWAP3 DIV SWAP2 ADD SWAP2 CODESIZE PUSH2 0x3A4F JUMP JUMPDEST PUSH1 0x40 SWAP4 POP DUP2 DIV SWAP2 POP CODESIZE PUSH2 0x3A36 JUMP JUMPDEST PUSH1 0x40 MLOAD SWAP1 PUSH1 0x1 PUSH1 0x1 PUSH1 0xA0 SHL SUB AND DUP1 PUSH2 0x3B67 DUP4 PUSH2 0x2BBB JUMP JUMPDEST PUSH1 0x2A DUP4 MSTORE PUSH1 0x20 DUP1 DUP5 ADD PUSH1 0x40 CALLDATASIZE DUP3 CALLDATACOPY DUP5 MLOAD ISZERO PUSH2 0x3C3E JUMPI PUSH1 0x30 SWAP1 MSTORE8 DUP4 MLOAD SWAP1 PUSH1 0x1 SWAP2 DUP3 LT ISZERO PUSH2 0x3C3E JUMPI SWAP1 PUSH1 0x78 PUSH1 0x21 DUP7 ADD MSTORE8 PUSH1 0x29 SWAP2 JUMPDEST DUP2 DUP4 GT PUSH2 0x3BCA JUMPI POP POP POP PUSH2 0x3BAB JUMPI POP SWAP1 JUMP JUMPDEST PUSH1 0x44 SWAP1 PUSH1 0x40 MLOAD SWAP1 PUSH4 0xE22E27EB PUSH1 0xE0 SHL DUP3 MSTORE PUSH1 0x4 DUP3 ADD MSTORE PUSH1 0x14 PUSH1 0x24 DUP3 ADD MSTORE REVERT JUMPDEST SWAP1 SWAP2 SWAP3 PUSH1 0xF DUP2 AND PUSH1 0x10 DUP2 LT ISZERO PUSH2 0x3C29 JUMPI DUP7 MLOAD DUP6 LT ISZERO PUSH2 0x3C29 JUMPI PUSH16 0x181899199A1A9B1B9C1CB0B131B232B3 PUSH1 0x81 SHL SWAP1 BYTE DUP7 DUP6 ADD DUP4 ADD MSTORE8 PUSH1 0x4 SHR SWAP3 DUP1 ISZERO PUSH2 0x3C14 JUMPI PUSH1 0x0 NOT ADD SWAP2 SWAP1 PUSH2 0x3B99 JUMP JUMPDEST PUSH1 0x24 PUSH1 0x0 PUSH4 0x4E487B71 PUSH1 0xE0 SHL DUP2 MSTORE PUSH1 0x11 PUSH1 0x4 MSTORE REVERT JUMPDEST PUSH1 0x24 PUSH1 0x0 PUSH4 0x4E487B71 PUSH1 0xE0 SHL DUP2 MSTORE PUSH1 0x32 PUSH1 0x4 MSTORE REVERT JUMPDEST PUSH4 0x4E487B71 PUSH1 0xE0 SHL PUSH1 0x0 MSTORE PUSH1 0x32 PUSH1 0x4 MSTORE PUSH1 0x24 PUSH1 0x0 REVERT JUMPDEST PUSH2 0x3C5D DUP2 PUSH2 0x2B49 JUMP JUMPDEST DUP1 ISZERO PUSH2 0x3CF3 JUMPI PUSH2 0x3C6C DUP2 PUSH2 0x2B49 JUMP JUMPDEST PUSH1 0x1 DUP2 EQ PUSH2 0x3CCD JUMPI DUP1 PUSH2 0x3C80 PUSH1 0x2 SWAP3 PUSH2 0x2B49 JUMP JUMPDEST EQ PUSH2 0x3CA9 JUMPI PUSH1 0x40 MLOAD PUSH2 0x3C91 DUP2 PUSH2 0x2BA0 JUMP JUMPDEST PUSH1 0x8 DUP2 MSTORE PUSH8 0x14995CDBDB1D9959 PUSH1 0xC2 SHL PUSH1 0x20 DUP3 ADD MSTORE SWAP1 JUMP JUMPDEST PUSH1 0x40 MLOAD PUSH2 0x3CB5 DUP2 PUSH2 0x2BA0 JUMP JUMPDEST PUSH1 0x8 DUP2 MSTORE PUSH8 0x111A5CDC1D5D1959 PUSH1 0xC2 SHL PUSH1 0x20 DUP3 ADD MSTORE SWAP1 JUMP JUMPDEST POP PUSH1 0x40 MLOAD PUSH2 0x3CDA DUP2 PUSH2 0x2BA0 JUMP JUMPDEST PUSH1 0x9 DUP2 MSTORE PUSH9 0x10DBDB5C1B195D1959 PUSH1 0xBA SHL PUSH1 0x20 DUP3 ADD MSTORE SWAP1 JUMP JUMPDEST POP PUSH1 0x40 MLOAD PUSH2 0x3D00 DUP2 PUSH2 0x2BA0 JUMP JUMPDEST PUSH1 0x9 DUP2 MSTORE PUSH9 0x14D8DA19591D5B1959 PUSH1 0xBA SHL PUSH1 0x20 DUP3 ADD MSTORE SWAP1 JUMP INVALID LOG2 PUSH5 0x6970667358 0x22 SLT KECCAK256 PUSH14 0x3FCAE5AF30056254185369B89AA8 SMOD DUP6 0xC2 0xED SWAP3 LOG4 EXTCODECOPY 0xF9 CHAINID STATICCALL 0xB3 0xDE DELEGATECALL PREVRANDAO 0xAA 0xD1 DUP6 PUSH5 0x736F6C6343 STOP ADDMOD EQ STOP CALLER "},"methodIdentifiers":{"approve(address,uint256)":"095ea7b3","balanceOf(address)":"70a08231","createAgreement(string,string,uint64,uint32,string,string,address,address,uint256)":"2b95da66","createAgreementWithArtistSig((string,string,uint64,uint32,string,string,address,address,uint256),bytes)":"5eb37a31","eip712Domain()":"84b0196e","getAgreement(uint256)":"4f9f6fe6","getApproved(uint256)":"081812fc","isApprovedForAll(address,address)":"e985e9c5","markCompleted(uint256)":"cac5c512","name()":"06fdde03","owner()":"8da5cb5b","ownerOf(uint256)":"6352211e","raiseDispute(uint256)":"a5c1674e","recordPayment(uint256)":"fefa9291","renounceOwnership()":"715018a6","resolveDispute(uint256)":"c2b7b868","safeTransferFrom(address,address,uint256)":"42842e0e","safeTransferFrom(address,address,uint256,bytes)":"b88d4fde","setApprovalForAll(address,bool)":"a22cb465","supportsInterface(bytes4)":"01ffc9a7","symbol()":"95d89b41","tokenURI(uint256)":"c87b56dd","transferFrom(address,address,uint256)":"23b872dd","transferOwnership(address)":"f2fde38b"}}}}}