{
  "_format": "hh-sol-artifact-1",
  "contractName": "PerformanceAgreementNFT",
  "sourceName": "contracts/PerformanceAgreementNFT.sol",
  "abi": [
    {
      "inputs": [],
      "stateMutability": "nonpayable",
      "type": "constructor"
    },
    {
      "inputs": [],
      "name": "ECDSAInvalidSignature",
      "type": "error"
    },
    {
      "inputs": [
        {
          "internalType": "uint256",
          "name": "length",
          "type": "uint256"
        }
      ],
      "name": "ECDSAInvalidSignatureLength",
      "type": "error"
    },
    {
      "inputs": [
        {
          "internalType": "bytes32",
          "name": "s",
          "type": "bytes32"
        }
      ],
      "name": "ECDSAInvalidSignatureS",
      "type": "error"
    },
    {
      "inputs": [
        {
          "internalType": "address",
          "name": "sender",
          "type": "address"
        },
        {
          "internalType": "uint256",
          "name": "tokenId",
          "type": "uint256"
        },
        {
          "internalType": "address",
          "name": "owner",
          "type": "address"
        }
      ],
      "name": "ERC721IncorrectOwner",
      "type": "error"
    },
    {
      "inputs": [
        {
          "internalType": "address",
          "name": "operator",
          "type": "address"
        },
        {
          "internalType": "uint256",
          "name": "tokenId",
          "type": "uint256"
        }
      ],
      "name": "ERC721InsufficientApproval",
      "type": "error"
    },
    {
      "inputs": [
        {
          "internalType": "address",
          "name": "approver",
          "type": "address"
        }
      ],
      "name": "ERC721InvalidApprover",
      "type": "error"
    },
    {
      "inputs": [
        {
          "internalType": "address",
          "name": "operator",
          "type": "address"
        }
      ],
      "name": "ERC721InvalidOperator",
      "type": "error"
    },
    {
      "inputs": [
        {
          "internalType": "address",
          "name": "owner",
          "type": "address"
        }
      ],
      "name": "ERC721InvalidOwner",
      "type": "error"
    },
    {
      "inputs": [
        {
          "internalType": "address",
          "name": "receiver",
          "type": "address"
        }
      ],
      "name": "ERC721InvalidReceiver",
      "type": "error"
    },
    {
      "inputs": [
        {
          "internalType": "address",
          "name": "sender",
          "type": "address"
        }
      ],
      "name": "ERC721InvalidSender",
      "type": "error"
    },
    {
      "inputs": [
        {
          "internalType": "uint256",
          "name": "tokenId",
          "type": "uint256"
        }
      ],
      "name": "ERC721NonexistentToken",
      "type": "error"
    },
    {
      "inputs": [],
      "name": "InvalidShortString",
      "type": "error"
    },
    {
      "inputs": [
        {
          "internalType": "address",
          "name": "owner",
          "type": "address"
        }
      ],
      "name": "OwnableInvalidOwner",
      "type": "error"
    },
    {
      "inputs": [
        {
          "internalType": "address",
          "name": "account",
          "type": "address"
        }
      ],
      "name": "OwnableUnauthorizedAccount",
      "type": "error"
    },
    {
      "inputs": [
        {
          "internalType": "string",
          "name": "str",
          "type": "string"
        }
      ],
      "name": "StringTooLong",
      "type": "error"
    },
    {
      "inputs": [
        {
          "internalType": "uint256",
          "name": "value",
          "type": "uint256"
        },
        {
          "internalType": "uint256",
          "name": "length",
          "type": "uint256"
        }
      ],
      "name": "StringsInsufficientHexLength",
      "type": "error"
    },
    {
      "anonymous": false,
      "inputs": [
        {
          "indexed": true,
          "internalType": "uint256",
          "name": "tokenId",
          "type": "uint256"
        },
        {
          "indexed": true,
          "internalType": "address",
          "name": "artistWallet",
          "type": "address"
        },
        {
          "indexed": true,
          "internalType": "address",
          "name": "venueWallet",
          "type": "address"
        },
        {
          "indexed": false,
          "internalType": "string",
          "name": "venueName",
          "type": "string"
        },
        {
          "indexed": false,
          "internalType": "uint64",
          "name": "startTime",
          "type": "uint64"
        },
        {
          "indexed": false,
          "internalType": "uint256",
          "name": "paymentAmountUsdCents",
          "type": "uint256"
        }
      ],
      "name": "AgreementCreated",
      "type": "event"
    },
    {
      "anonymous": false,
      "inputs": [
        {
          "indexed": true,
          "internalType": "uint256",
          "name": "tokenId",
          "type": "uint256"
        },
        {
          "indexed": true,
          "internalType": "address",
          "name": "venueWallet",
          "type": "address"
        },
        {
          "indexed": true,
          "internalType": "address",
          "name": "artistWallet",
          "type": "address"
        }
      ],
      "name": "AgreementSignedAndMinted",
      "type": "event"
    },
    {
      "anonymous": false,
      "inputs": [
        {
          "indexed": true,
          "internalType": "address",
          "name": "owner",
          "type": "address"
        },
        {
          "indexed": true,
          "internalType": "address",
          "name": "approved",
          "type": "address"
        },
        {
          "indexed": true,
          "internalType": "uint256",
          "name": "tokenId",
          "type": "uint256"
        }
      ],
      "name": "Approval",
      "type": "event"
    },
    {
      "anonymous": false,
      "inputs": [
        {
          "indexed": true,
          "internalType": "address",
          "name": "owner",
          "type": "address"
        },
        {
          "indexed": true,
          "internalType": "address",
          "name": "operator",
          "type": "address"
        },
        {
          "indexed": false,
          "internalType": "bool",
          "name": "approved",
          "type": "bool"
        }
      ],
      "name": "ApprovalForAll",
      "type": "event"
    },
    {
      "anonymous": false,
      "inputs": [
        {
          "indexed": true,
          "internalType": "uint256",
          "name": "venueTokenId",
          "type": "uint256"
        },
        {
          "indexed": true,
          "internalType": "uint256",
          "name": "artistTokenId",
          "type": "uint256"
        },
        {
          "indexed": true,
          "internalType": "address",
          "name": "artistWallet",
          "type": "address"
        }
      ],
      "name": "ArtistAgreementFinalized",
      "type": "event"
    },
    {
      "anonymous": false,
      "inputs": [
        {
          "indexed": false,
          "internalType": "uint256",
          "name": "_fromTokenId",
          "type": "uint256"
        },
        {
          "indexed": false,
          "internalType": "uint256",
          "name": "_toTokenId",
          "type": "uint256"
        }
      ],
      "name": "BatchMetadataUpdate",
      "type": "event"
    },
    {
      "anonymous": false,
      "inputs": [],
      "name": "EIP712DomainChanged",
      "type": "event"
    },
    {
      "anonymous": false,
      "inputs": [
        {
          "indexed": false,
          "internalType": "uint256",
          "name": "_tokenId",
          "type": "uint256"
        }
      ],
      "name": "MetadataUpdate",
      "type": "event"
    },
    {
      "anonymous": false,
      "inputs": [
        {
          "indexed": true,
          "internalType": "address",
          "name": "previousOwner",
          "type": "address"
        },
        {
          "indexed": true,
          "internalType": "address",
          "name": "newOwner",
          "type": "address"
        }
      ],
      "name": "OwnershipTransferred",
      "type": "event"
    },
    {
      "anonymous": false,
      "inputs": [
        {
          "indexed": true,
          "internalType": "uint256",
          "name": "tokenId",
          "type": "uint256"
        },
        {
          "indexed": false,
          "internalType": "uint256",
          "name": "amountUsdCents",
          "type": "uint256"
        },
        {
          "indexed": false,
          "internalType": "address",
          "name": "recorder",
          "type": "address"
        }
      ],
      "name": "PaymentRecorded",
      "type": "event"
    },
    {
      "anonymous": false,
      "inputs": [
        {
          "indexed": true,
          "internalType": "uint256",
          "name": "tokenId",
          "type": "uint256"
        },
        {
          "indexed": false,
          "internalType": "enum PerformanceAgreementNFT.Status",
          "name": "previous",
          "type": "uint8"
        },
        {
          "indexed": false,
          "internalType": "enum PerformanceAgreementNFT.Status",
          "name": "current",
          "type": "uint8"
        },
        {
          "indexed": false,
          "internalType": "address",
          "name": "actor",
          "type": "address"
        }
      ],
      "name": "StatusChanged",
      "type": "event"
    },
    {
      "anonymous": false,
      "inputs": [
        {
          "indexed": true,
          "internalType": "address",
          "name": "from",
          "type": "address"
        },
        {
          "indexed": true,
          "internalType": "address",
          "name": "to",
          "type": "address"
        },
        {
          "indexed": true,
          "internalType": "uint256",
          "name": "tokenId",
          "type": "uint256"
        }
      ],
      "name": "Transfer",
      "type": "event"
    },
    {
      "anonymous": false,
      "inputs": [
        {
          "indexed": true,
          "internalType": "uint256",
          "name": "venueTokenId",
          "type": "uint256"
        },
        {
          "indexed": true,
          "internalType": "address",
          "name": "venueWallet",
          "type": "address"
        },
        {
          "indexed": true,
          "internalType": "address",
          "name": "artistWallet",
          "type": "address"
        }
      ],
      "name": "VenueAgreementCreated",
      "type": "event"
    },
    {
      "inputs": [
        {
          "internalType": "address",
          "name": "to",
          "type": "address"
        },
        {
          "internalType": "uint256",
          "name": "tokenId",
          "type": "uint256"
        }
      ],
      "name": "approve",
      "outputs": [],
      "stateMutability": "nonpayable",
      "type": "function"
    },
    {
      "inputs": [
        {
          "internalType": "uint256",
          "name": "venueTokenId",
          "type": "uint256"
        },
        {
          "internalType": "bytes",
          "name": "artistSignature",
          "type": "bytes"
        }
      ],
      "name": "artistFinalizeAndMint",
      "outputs": [
        {
          "internalType": "uint256",
          "name": "artistTokenId",
          "type": "uint256"
        }
      ],
      "stateMutability": "nonpayable",
      "type": "function"
    },
    {
      "inputs": [
        {
          "internalType": "uint256",
          "name": "",
          "type": "uint256"
        }
      ],
      "name": "artistTokenOfVenue",
      "outputs": [
        {
          "internalType": "uint256",
          "name": "",
          "type": "uint256"
        }
      ],
      "stateMutability": "view",
      "type": "function"
    },
    {
      "inputs": [
        {
          "internalType": "address",
          "name": "owner",
          "type": "address"
        }
      ],
      "name": "balanceOf",
      "outputs": [
        {
          "internalType": "uint256",
          "name": "",
          "type": "uint256"
        }
      ],
      "stateMutability": "view",
      "type": "function"
    },
    {
      "inputs": [
        {
          "internalType": "string",
          "name": "venueName",
          "type": "string"
        },
        {
          "internalType": "string",
          "name": "venueAddress",
          "type": "string"
        },
        {
          "internalType": "uint64",
          "name": "startTime",
          "type": "uint64"
        },
        {
          "internalType": "uint32",
          "name": "durationMinutes",
          "type": "uint32"
        },
        {
          "internalType": "string",
          "name": "artistSocialHandle",
          "type": "string"
        },
        {
          "internalType": "string",
          "name": "venueSocialHandle",
          "type": "string"
        },
        {
          "internalType": "address",
          "name": "artistWallet",
          "type": "address"
        },
        {
          "internalType": "address",
          "name": "venueWallet",
          "type": "address"
        },
        {
          "internalType": "uint256",
          "name": "paymentAmountUsdCents",
          "type": "uint256"
        }
      ],
      "name": "createAgreement",
      "outputs": [
        {
          "internalType": "uint256",
          "name": "tokenId",
          "type": "uint256"
        }
      ],
      "stateMutability": "nonpayable",
      "type": "function"
    },
    {
      "inputs": [
        {
          "components": [
            {
              "internalType": "string",
              "name": "venueName",
              "type": "string"
            },
            {
              "internalType": "string",
              "name": "venueAddress",
              "type": "string"
            },
            {
              "internalType": "uint64",
              "name": "startTime",
              "type": "uint64"
            },
            {
              "internalType": "uint32",
              "name": "durationMinutes",
              "type": "uint32"
            },
            {
              "internalType": "string",
              "name": "artistSocialHandle",
              "type": "string"
            },
            {
              "internalType": "string",
              "name": "venueSocialHandle",
              "type": "string"
            },
            {
              "internalType": "address",
              "name": "artistWallet",
              "type": "address"
            },
            {
              "internalType": "address",
              "name": "venueWallet",
              "type": "address"
            },
            {
              "internalType": "uint256",
              "name": "paymentAmountUsdCents",
              "type": "uint256"
            }
          ],
          "internalType": "struct PerformanceAgreementNFT.AgreementInput",
          "name": "input",
          "type": "tuple"
        },
        {
          "internalType": "bytes",
          "name": "artistSignature",
          "type": "bytes"
        }
      ],
      "name": "createAgreementWithArtistSig",
      "outputs": [
        {
          "internalType": "uint256",
          "name": "tokenId",
          "type": "uint256"
        }
      ],
      "stateMutability": "nonpayable",
      "type": "function"
    },
    {
      "inputs": [
        {
          "components": [
            {
              "internalType": "string",
              "name": "venueName",
              "type": "string"
            },
            {
              "internalType": "string",
              "name": "venueAddress",
              "type": "string"
            },
            {
              "internalType": "uint64",
              "name": "startTime",
              "type": "uint64"
            },
            {
              "internalType": "uint32",
              "name": "durationMinutes",
              "type": "uint32"
            },
            {
              "internalType": "string",
              "name": "artistSocialHandle",
              "type": "string"
            },
            {
              "internalType": "string",
              "name": "venueSocialHandle",
              "type": "string"
            },
            {
              "internalType": "address",
              "name": "artistWallet",
              "type": "address"
            },
            {
              "internalType": "address",
              "name": "venueWallet",
              "type": "address"
            },
            {
              "internalType": "uint256",
              "name": "paymentAmountUsdCents",
              "type": "uint256"
            }
          ],
          "internalType": "struct PerformanceAgreementNFT.AgreementInput",
          "name": "input",
          "type": "tuple"
        }
      ],
      "name": "createVenueAgreement",
      "outputs": [
        {
          "internalType": "uint256",
          "name": "venueTokenId",
          "type": "uint256"
        }
      ],
      "stateMutability": "nonpayable",
      "type": "function"
    },
    {
      "inputs": [],
      "name": "eip712Domain",
      "outputs": [
        {
          "internalType": "bytes1",
          "name": "fields",
          "type": "bytes1"
        },
        {
          "internalType": "string",
          "name": "name",
          "type": "string"
        },
        {
          "internalType": "string",
          "name": "version",
          "type": "string"
        },
        {
          "internalType": "uint256",
          "name": "chainId",
          "type": "uint256"
        },
        {
          "internalType": "address",
          "name": "verifyingContract",
          "type": "address"
        },
        {
          "internalType": "bytes32",
          "name": "salt",
          "type": "bytes32"
        },
        {
          "internalType": "uint256[]",
          "name": "extensions",
          "type": "uint256[]"
        }
      ],
      "stateMutability": "view",
      "type": "function"
    },
    {
      "inputs": [
        {
          "internalType": "uint256",
          "name": "tokenId",
          "type": "uint256"
        }
      ],
      "name": "getAgreement",
      "outputs": [
        {
          "components": [
            {
              "internalType": "string",
              "name": "venueName",
              "type": "string"
            },
            {
              "internalType": "string",
              "name": "venueAddress",
              "type": "string"
            },
            {
              "internalType": "uint64",
              "name": "startTime",
              "type": "uint64"
            },
            {
              "internalType": "uint32",
              "name": "durationMinutes",
              "type": "uint32"
            },
            {
              "internalType": "string",
              "name": "artistSocialHandle",
              "type": "string"
            },
            {
              "internalType": "string",
              "name": "venueSocialHandle",
              "type": "string"
            },
            {
              "internalType": "address",
              "name": "artistWallet",
              "type": "address"
            },
            {
              "internalType": "address",
              "name": "venueWallet",
              "type": "address"
            },
            {
              "internalType": "uint256",
              "name": "paymentAmountUsdCents",
              "type": "uint256"
            },
            {
              "internalType": "enum PerformanceAgreementNFT.Status",
              "name": "status",
              "type": "uint8"
            },
            {
              "internalType": "bool",
              "name": "paymentRecorded",
              "type": "bool"
            }
          ],
          "internalType": "struct PerformanceAgreementNFT.Agreement",
          "name": "",
          "type": "tuple"
        }
      ],
      "stateMutability": "view",
      "type": "function"
    },
    {
      "inputs": [
        {
          "internalType": "uint256",
          "name": "tokenId",
          "type": "uint256"
        }
      ],
      "name": "getApproved",
      "outputs": [
        {
          "internalType": "address",
          "name": "",
          "type": "address"
        }
      ],
      "stateMutability": "view",
      "type": "function"
    },
    {
      "inputs": [
        {
          "internalType": "uint256",
          "name": "venueTokenId",
          "type": "uint256"
        }
      ],
      "name": "getArtistTokenForVenue",
      "outputs": [
        {
          "internalType": "uint256",
          "name": "",
          "type": "uint256"
        }
      ],
      "stateMutability": "view",
      "type": "function"
    },
    {
      "inputs": [
        {
          "internalType": "address",
          "name": "owner",
          "type": "address"
        },
        {
          "internalType": "address",
          "name": "operator",
          "type": "address"
        }
      ],
      "name": "isApprovedForAll",
      "outputs": [
        {
          "internalType": "bool",
          "name": "",
          "type": "bool"
        }
      ],
      "stateMutability": "view",
      "type": "function"
    },
    {
      "inputs": [
        {
          "internalType": "uint256",
          "name": "tokenId",
          "type": "uint256"
        }
      ],
      "name": "markCompleted",
      "outputs": [],
      "stateMutability": "nonpayable",
      "type": "function"
    },
    {
      "inputs": [],
      "name": "name",
      "outputs": [
        {
          "internalType": "string",
          "name": "",
          "type": "string"
        }
      ],
      "stateMutability": "view",
      "type": "function"
    },
    {
      "inputs": [],
      "name": "nextTokenId",
      "outputs": [
        {
          "internalType": "uint256",
          "name": "",
          "type": "uint256"
        }
      ],
      "stateMutability": "view",
      "type": "function"
    },
    {
      "inputs": [],
      "name": "owner",
      "outputs": [
        {
          "internalType": "address",
          "name": "",
          "type": "address"
        }
      ],
      "stateMutability": "view",
      "type": "function"
    },
    {
      "inputs": [
        {
          "internalType": "uint256",
          "name": "tokenId",
          "type": "uint256"
        }
      ],
      "name": "ownerOf",
      "outputs": [
        {
          "internalType": "address",
          "name": "",
          "type": "address"
        }
      ],
      "stateMutability": "view",
      "type": "function"
    },
    {
      "inputs": [
        {
          "internalType": "uint256",
          "name": "tokenId",
          "type": "uint256"
        }
      ],
      "name": "raiseDispute",
      "outputs": [],
      "stateMutability": "nonpayable",
      "type": "function"
    },
    {
      "inputs": [
        {
          "internalType": "uint256",
          "name": "tokenId",
          "type": "uint256"
        }
      ],
      "name": "recordPayment",
      "outputs": [],
      "stateMutability": "nonpayable",
      "type": "function"
    },
    {
      "inputs": [],
      "name": "renounceOwnership",
      "outputs": [],
      "stateMutability": "nonpayable",
      "type": "function"
    },
    {
      "inputs": [
        {
          "internalType": "uint256",
          "name": "tokenId",
          "type": "uint256"
        }
      ],
      "name": "resolveDispute",
      "outputs": [],
      "stateMutability": "nonpayable",
      "type": "function"
    },
    {
      "inputs": [
        {
          "internalType": "address",
          "name": "from",
          "type": "address"
        },
        {
          "internalType": "address",
          "name": "to",
          "type": "address"
        },
        {
          "internalType": "uint256",
          "name": "tokenId",
          "type": "uint256"
        }
      ],
      "name": "safeTransferFrom",
      "outputs": [],
      "stateMutability": "nonpayable",
      "type": "function"
    },
    {
      "inputs": [
        {
          "internalType": "address",
          "name": "from",
          "type": "address"
        },
        {
          "internalType": "address",
          "name": "to",
          "type": "address"
        },
        {
          "internalType": "uint256",
          "name": "tokenId",
          "type": "uint256"
        },
        {
          "internalType": "bytes",
          "name": "data",
          "type": "bytes"
        }
      ],
      "name": "safeTransferFrom",
      "outputs": [],
      "stateMutability": "nonpayable",
      "type": "function"
    },
    {
      "inputs": [
        {
          "internalType": "address",
          "name": "operator",
          "type": "address"
        },
        {
          "internalType": "bool",
          "name": "approved",
          "type": "bool"
        }
      ],
      "name": "setApprovalForAll",
      "outputs": [],
      "stateMutability": "nonpayable",
      "type": "function"
    },
    {
      "inputs": [
        {
          "internalType": "bytes4",
          "name": "interfaceId",
          "type": "bytes4"
        }
      ],
      "name": "supportsInterface",
      "outputs": [
        {
          "internalType": "bool",
          "name": "",
          "type": "bool"
        }
      ],
      "stateMutability": "view",
      "type": "function"
    },
    {
      "inputs": [],
      "name": "symbol",
      "outputs": [
        {
          "internalType": "string",
          "name": "",
          "type": "string"
        }
      ],
      "stateMutability": "view",
      "type": "function"
    },
    {
      "inputs": [
        {
          "internalType": "uint256",
          "name": "tokenId",
          "type": "uint256"
        }
      ],
      "name": "tokenURI",
      "outputs": [
        {
          "internalType": "string",
          "name": "",
          "type": "string"
        }
      ],
      "stateMutability": "view",
      "type": "function"
    },
    {
      "inputs": [
        {
          "internalType": "address",
          "name": "owner",
          "type": "address"
        }
      ],
      "name": "tokensOfOwner",
      "outputs": [
        {
          "internalType": "uint256[]",
          "name": "",
          "type": "uint256[]"
        }
      ],
      "stateMutability": "view",
      "type": "function"
    },
    {
      "inputs": [],
      "name": "totalMinted",
      "outputs": [
        {
          "internalType": "uint256",
          "name": "",
          "type": "uint256"
        }
      ],
      "stateMutability": "view",
      "type": "function"
    },
    {
      "inputs": [
        {
          "internalType": "address",
          "name": "from",
          "type": "address"
        },
        {
          "internalType": "address",
          "name": "to",
          "type": "address"
        },
        {
          "internalType": "uint256",
          "name": "tokenId",
          "type": "uint256"
        }
      ],
      "name": "transferFrom",
      "outputs": [],
      "stateMutability": "nonpayable",
      "type": "function"
    },
    {
      "inputs": [
        {
          "internalType": "address",
          "name": "newOwner",
          "type": "address"
        }
      ],
      "name": "transferOwnership",
      "outputs": [],
      "stateMutability": "nonpayable",
      "type": "function"
    },
    {
      "inputs": [
        {
          "internalType": "uint256",
          "name": "",
          "type": "uint256"
        }
      ],
      "name": "venueTokenOfArtistToken",
      "outputs": [
        {
          "internalType": "uint256",
          "name": "",
          "type": "uint256"
        }
      ],
      "stateMutability": "view",
      "type": "function"
    }
  ],
  "bytecode": "0x6040610160815234620004d95762000019610160620004de565b6017610160527f506572666f726d616e636541677265656d656e744e46540000000000000000006101805280516200005181620004de565b600181526020810191603160f81b83528051926200006f84620004de565b601484527f506572666f726d616e636541677265656d656e7400000000000000000000000060208501528151620000a681620004de565b6008815267504552464147524d60c01b602082015284516001600160401b038111620002d05760005495600187811c97168015620004ce575b6020881014620003c2578190601f9788811162000478575b50602090888311600114620003ef57600092620003e3575b50508160011b916000199060031b1c1916176000555b8051906001600160401b038211620002d057600154600181811c91168015620003d8575b6020821014620003c25786811162000377575b5060209582116001146200030a57948192939495600092620002fe575b50508160011b916000199060031b1c1916176001555b3315620002e65760078054336001600160a01b0319821681179092556001600160a01b03167f8be0079c531659141344cd1fd0a4f28419497f9722a3daafe3b4186f6b6457e0600080a3620001e6610160620004fa565b610120908152620001f784620006c1565b916101409283526101605160206101600120948560e05251902093610100948086524660a05284519060208201927f8b73c3c69bb8fe3d512ecc4cf759cc79239f7b179b0ffacaa9a75d522b39400f84528683015260608201524660808201523060a082015260a0815260c081019481861060018060401b03871117620002d0578590525190206080523060c0526001600d5561511793846200087a853960805184614aae015260a05184614b79015260c05184614a78015260e05184614afd01525183614b23015251826119510152518161197d0152f35b634e487b7160e01b600052604160045260246000fd5b8151631e4fbdf760e01b815260006004820152602490fd5b01519050388062000179565b601f19821695600160005260206000209160005b8881106200035e5750836001959697981062000344575b505050811b016001556200018f565b015160001960f88460031b161c1916905538808062000335565b919260206001819286850151815501940192016200031e565b600160005260206000208780850160051c82019260208610620003b8575b0160051c01905b818110620003ab57506200015c565b600081556001016200039c565b9250819262000395565b634e487b7160e01b600052602260045260246000fd5b90607f169062000149565b0151905038806200010f565b60008080527f290decd9548b62a8d60345a988386fc84ba6bc95484008f6362f93160ef3e5639350601f198516905b8181106200045f575090846001959493921062000445575b505050811b0160005562000125565b015160001960f88460031b161c1916905538808062000436565b929360206001819287860151815501950193016200041e565b9091506000805260206000208880850160051c82019260208610620004c4575b9085949392910160051c01905b818110620004b45750620000f7565b60008155849350600101620004a5565b9250819262000498565b96607f1696620000df565b600080fd5b604081019081106001600160401b03821117620002d057604052565b805160209081811015620005975750601f8251116200053657808251920151908083106200052757501790565b82600019910360031b1b161790565b90604051809263305a27a960e01b82528060048301528251908160248401526000935b8285106200057d575050604492506000838284010152601f80199101168101030190fd5b848101820151868601604401529381019385935062000559565b906001600160401b038211620002d057600854926001938481811c91168015620006b6575b83821014620003c257601f81116200067c575b5081601f841160011462000610575092829391839260009462000604575b50501b916000199060031b1c19161760085560ff90565b015192503880620005ed565b919083601f198116600860005284600020946000905b8883831062000661575050501062000647575b505050811b0160085560ff90565b015160001960f88460031b161c1916905538808062000639565b85870151885590960195948501948793509081019062000626565b600860005284601f84600020920160051c820191601f860160051c015b828110620006a9575050620005cf565b6000815501859062000699565b90607f1690620005bc565b8051602090818110156200074f5750601f825111620006ee57808251920151908083106200052757501790565b90604051809263305a27a960e01b82528060048301528251908160248401526000935b82851062000735575050604492506000838284010152601f80199101168101030190fd5b848101820151868601604401529381019385935062000711565b906001600160401b038211620002d057600954926001938481811c911680156200086e575b83821014620003c257601f811162000834575b5081601f8411600114620007c85750928293918392600094620007bc575b50501b916000199060031b1c19161760095560ff90565b015192503880620007a5565b919083601f198116600960005284600020946000905b88838310620008195750505010620007ff575b505050811b0160095560ff90565b015160001960f88460031b161c19169055388080620007f1565b858701518855909601959485019487935090810190620007de565b600960005284601f84600020920160051c820191601f860160051c015b8281106200086157505062000787565b6000815501859062000851565b90607f16906200077456fe608080604052600436101561001357600080fd5b60003560e01c90816301ffc9a714613aee5750806306fdde0314613a4b578063081812fc14613a0d578063095ea7b3146139265780630f0bca3b14612fea57806323b872dd14612fd35780632b95da66146127bf57806342842e0e146127915780634f9f6fe61461253f57806358b9949d146125135780635eb37a3114611b105780636352211e14611ae057806370a0823114611ab5578063715018a614611a5857806375794a3c14611a3a5780638462151c14611a0257806384b0196e146119385780638da5cb5b1461190f57806394f2fa0714610dcb57806395d89b41146118305780639ee5745614610fa6578063a22cb46514610f01578063a2309ff814610ec0578063a5c1674e14610df7578063b7a3a12814610dcb578063b88d4fde14610d5e578063c2b7b86814610cad578063c87b56dd14610689578063cac5c512146104e9578063e985e9c514610493578063f2fde38b1461040a5763fefa92911461017f57600080fd5b34610405576020806003193601126104055760043590816000526002815260018060a01b036101b681604060002054161515614728565b82600052600a82526102bb604060002091604051906101d482613c8a565b6040516101ec816101e58188613e09565b0382613cf7565b8252604051610202816101e58160018901613e09565b8583015263ffffffff60028501546001600160401b038116604085015260401c16606083015260405161023c816101e58160038901613e09565b6080830152604051610255816101e58160048901613e09565b60a0830152808060058601541660c08401908152816006870154169360e0810194855261014060ff600860078a0154996101009a8b860152015461029f8282166101208601614497565b60081c161515910152511633149182156103f7575b5050614768565b82600052600a82526040600020906008820190815460ff8116600581101590816103d357600181149182156103e9575b82156103c2575b50501561037d5760ff8160081c166103455761ff001916179055600701546040805191825233928201929092527feb79e24102009f0d7f1eb4227511a0c5c61db03f1560911df6ebc1710f0d82d19190a2005b60405162461bcd60e51b815260048101869052601060248201526f105b1c9958591e481c9958dbdc99195960821b6044820152606490fd5b60405162461bcd60e51b815260048101869052601a60248201527f496e76616c69642073746174757320666f72207061796d656e740000000000006044820152606490fd5b9091506103d35760041438806102f2565b634e487b7160e01b600052602160045260246000fd5b5060038114915060006102eb565b9091505116331438806102b4565b600080fd5b3461040557602036600319011261040557610423613bbb565b61042b613d6a565b6001600160a01b0390811690811561047a57600754826001600160601b0360a01b821617600755167f8be0079c531659141344cd1fd0a4f28419497f9722a3daafe3b4186f6b6457e0600080a3005b604051631e4fbdf760e01b815260006004820152602490fd5b34610405576040366003190112610405576104ac613bbb565b6104b4613bd1565b9060018060a01b03809116600052600560205260406000209116600052602052602060ff604060002054166040519015158152f35b34610405576020806003193601126104055760043590816000526002815261061a60018060a01b0361052381604060002054161515614728565b83600052600a83526040600020908060405161053e81613c8a565b60405161054f816101e58188613e09565b8152604051610565816101e58160018901613e09565b8682015263ffffffff60028501546001600160401b038116604084015260401c16606082015260405161059f816101e58160038901613e09565b60808201526040516105b8816101e58160048901613e09565b60a0820152816005850154169060c0810191825261014060ff6008856006890154169760e08501988952600781015461010086015201546105ff8282166101208601614497565b60081c1615159101525116331491821561067b575050614768565b81600052600a81526008604060002001805460ff81169060058210156103d3576000805160206150c2833981519152936060936001809361065b86156147a6565b60ff191617905561066f6040518094613c49565b820152336040820152a2005b9091505116331484806102b4565b34610405576020806003193601126104055760043560009081526002825260409020546106c0906001600160a01b03161515614728565b600435600052600a815260406000206008604051916106de83613c8a565b6040516106ef816101e58185613e09565b8352604051610705816101e58160018601613e09565b8484015263ffffffff60028201546001600160401b038116604086015260401c16606084015260405161073f816101e58160038601613e09565b6080840152604051610758816101e58160048601613e09565b60a084015260058101546001600160a01b0390811660c085015260068201541660e0840152600781015461010084015201549061079c60ff83166101208301614497565b60ff61014082019260081c16151582526107b7600435614c97565b81519284830151906107d56001600160401b03604086015116614c97565b916107e963ffffffff606087015116614c97565b60808601519360a08701519761080a60018060a01b0360c08a015116614dda565b60e0890151610821906001600160a01b0316614dda565b926101206108336101008c0151614c97565b9a01519160058310156103d3578c9b61084c8d94614f03565b985115610c8a5760405161085f81613cc1565b60048152637472756560e01b85820152995b6040519d8e9c8d828101607b60f81b90526021017f226e616d65223a22506572666f726d616e63652041677265656d656e7420230090528d81519260408492019201916108bd92613b73565b61088b60f21b908d01604081018290527f226465736372697074696f6e223a2241677265656d656e74206265747765656e60428201527f2061727469737420616e642076656e756520666f72206120706572666f726d6160628201526b1b98d948195d995b9d0b888b60a21b60828201526c113b32b73ab2a730b6b2911d1160991b608e8201528751919a8b98899793919290610962908390609b8401908c01613b73565b0186609b8201526f113b32b73ab2a0b2323932b9b9911d1160811b609d820152815191828960ad840192019161099792613b73565b018560ad8201526b1139ba30b93a2a34b6b2911d60a11b60af820152815191828860bb84019201916109c892613b73565b0197600b60fa1b988960bb8201527111323ab930ba34b7b726b4b73aba32b9911d60711b60bc820152815191828860ce8401920191610a0692613b73565b018860ce820152751130b93a34b9ba29b7b1b4b0b62430b7323632911d1160511b60cf820152815191828760e58401920191610a4192613b73565b018360e582015274113b32b73ab2a9b7b1b4b0b62430b7323632911d1160591b60e7820152815191828660fc8401920191610a7b92613b73565b018260fc8201526f1130b93a34b9ba2bb0b63632ba111d1160811b60fe8201528151918261010e95868401920191610ab292613b73565b01918201526e113b32b73ab2abb0b63632ba111d1160891b61011082015282519061011f93828d868401920191610ae892613b73565b019182015261012181017f227061796d656e74416d6f756e7455736443656e7473223a0000000000000000905286519061013997828b8a8401920191610b2d92613b73565b019086820152691139ba30ba3ab9911d1160b11b61013a82015282519061014493828a868401920191610b5f92613b73565b019182015271113830bcb6b2b73a2932b1b7b93232b2111d60711b610146820152815190610158928288858401920191610b9892613b73565b01908101607d60f81b905203908101825261015901610bb79082613cf7565b604051610bc381613cdc565b60408082527f4142434445464748494a4b4c4d4e4f505152535455565758595a616263646566848301527f6768696a6b6c6d6e6f707172737475767778797a303132333435363738392b2f90820152610c1b91614b9f565b9060405180928282017f646174613a6170706c69636174696f6e2f6a736f6e3b6261736536342c00000090528051908184603d8501920191610c5c92613b73565b810103601d81018352603d01610c729083613cf7565b6040519181839283528201610c8691613b96565b0390f35b604051610c9681613cc1565b600581526466616c736560d81b8582015299610871565b3461040557602036600319011261040557600435610cc9613d6a565b80600052600a6020526008604060002001805460ff811660058110156103d35760028103610d2a576000805160206150c283398151915292600360609360ff1916179055610d1a6040518092613c49565b60036020820152336040820152a2005b60405162461bcd60e51b815260206004820152600c60248201526b139bdd08191a5cdc1d5d195960a21b6044820152606490fd5b3461040557608036600319011261040557610d77613bbb565b610d7f613bd1565b90604435606435926001600160401b038411610405573660238501121561040557610db7610dc9943690602481600401359101613d33565b92610dc3838383613e9f565b33614079565b005b3461040557602036600319011261040557600435600052600b6020526020604060002054604051908152f35b346104055760208060031936011261040557600435908160005260028152610e3160018060a01b0361052381604060002054161515614728565b81600052600a815260086040600020019081549160ff83169260058410156103d35760018403610e87576060926000805160206150c283398151915294926002809360ff191617905561066f6040518094613c49565b60405162461bcd60e51b8152600481018490526011602482015270135d5cdd0818994818dbdb5c1b195d1959607a1b6044820152606490fd5b3461040557600036600319011261040557600d546000198101908111610eeb57602090604051908152f35b634e487b7160e01b600052601160045260246000fd5b3461040557604036600319011261040557610f1a613bbb565b60243590811515809203610405576001600160a01b0316908115610f8d57336000526005602052604060002082600052602052604060002060ff1981541660ff83161790556040519081527f17307eab39ab6107e8899845ad3d59bd9653f200f220920489ca2b5937696c3160203392a3005b604051630b61174360e31b815260048101839052602490fd5b3461040557600319602036820112610405576001600160401b036004351161040557610120906004353603011261040557610ff86001600160a01b03610ff060043560e4016147df565b1633146147f3565b6001600160a01b0361100e60043560c4016147df565b1615158061180c575b6110209061483f565b61102e60446004350161487a565b6201517f194201428111610eeb576001600160401b0361104f9216116143c6565b63ffffffff61106260646004350161488e565b161515806117e8575b61107490614407565b61108661010460043501351515614446565b600d5461109281614488565b600d556110a360048035018061489f565b906110b66004803560248101910161489f565b906110c560446004350161487a565b6110d360646004350161488e565b6110e56004803560848101910161489f565b90916110f96004803560a48101910161489f565b94909560043560c40161110b906147df565b9761111a60e4600435016147df565b996040519b6111288d613c8a565b369061113392613d33565b8b52369061114092613d33565b60208a01526001600160401b0316604089015263ffffffff166060880152369061116992613d33565b6080860152369061117992613d33565b60a08401526001600160a01b0390811660c08401521660e08201526101046004350135610100820152600061012082018190526101408201819052828152600a6020526040902081518051909391906001600160401b03811161159e576111e08254613dcf565b601f81116117a4575b50602094601f821160011461173e57948192939495600092611733575b50508160011b916000199060031b1c19161781555b60208301519283516001600160401b03811161159e5761123e6001840154613dcf565b601f81116116ec575b506020601f821160011461167d578192939495600092611672575b50508160011b916000199060031b1c19161760018301555b600282016001600160401b0360408301511681549063ffffffff60401b606085015160401b16916001600160601b0319161717905560808101519283516001600160401b03811161159e576112d26003850154613dcf565b601f811161162b575b50602094601f82116001146115bf579481929394956000926115b4575b50508160011b916000199060031b1c19161760038401555b60a08201519283516001600160401b03811161159e576113336004830154613dcf565b601f8111611557575b506020601f82116001146114e657819060089495966000926114db575b50508160011b916000199060031b1c19161760048201555b60c0840151600582810180546001600160a01b039384166001600160a01b03199182161790915560e08701516006850180549190941691161790915561010085015160078301556101208501519492909101908410156103d3576101406113f6926113de602096846144a3565b0151815461ff00191690151560081b61ff0016179055565b61140d8161140860e4600435016147df565b6144fa565b61141b60c4600435016147df565b61142960e4600435016147df565b826000805160206150a283398151915261144760048035018061489f565b9361148061145960446004350161487a565b6040516001600160a01b0393841698909316969293849360043561010401359291856144bb565b0390a461149160e4600435016147df565b906114a060c4600435016147df565b604051926001600160a01b039182169116827f1e92dcb5e27e13ce75edfb7aaf28acbb217ee613a8cd01746f730a86a0fc0e5c600080a48152f35b015190508680611359565b601f198216956004840160005260206000209660005b81811061153f575091600895969791846001959410611526575b505050811b016004820155611371565b015160001960f88460031b161c19169055868080611516565b838301518955600190980197602093840193016114fc565b600483016000526020600020601f830160051c810160208410611597575b601f830160051c8201811061158b57505061133c565b60008155600101611575565b5080611575565b634e487b7160e01b600052604160045260246000fd5b0151905085806112f8565b601f198216956003860160005260206000209160005b888110611613575083600195969798106115fa575b505050811b016003840155611310565b015160001960f88460031b161c191690558580806115ea565b919260206001819286850151815501940192016115d5565b600385016000526020600020601f830160051c81016020841061166b575b601f830160051c8201811061165f5750506112db565b60008155600101611649565b5080611649565b015190508580611262565b6001840160005260206000209060005b601f19841681106116d4575060019394959683601f198116106116bb575b505050811b01600183015561127a565b015160001960f88460031b161c191690558580806116ab565b9091602060018192858b01518155019301910161168d565b600184016000526020600020601f830160051c81016020841061172c575b601f830160051c82018110611720575050611247565b6000815560010161170a565b508061170a565b015190508580611206565b601f198216958360005260206000209160005b88811061178c57508360019596979810611773575b505050811b01815561121b565b015160001960f88460031b161c19169055858080611766565b91926020600181928685015181550194019201611751565b826000526020600020601f830160051c8101602084106117e1575b601f830160051c820181106117d55750506111e9565b600081556001016117bf565b50806117bf565b506110746105a063ffffffff61180260646004350161488e565b161115905061106b565b506110206001600160a01b0361182660043560e4016147df565b1615159050611017565b34610405576000366003190112610405576040516000600180549061185482613dcf565b808552918181169081156118e8575060011461188f575b610c868461187b81860382613cf7565b604051918291602083526020830190613b96565b600081815292507fb10e2d527612073b26eecdfd717e6a320cf44b4afac2b0732d9fcbe2b7fa0cf65b8284106118d057505050810160200161187b8261186b565b805460208587018101919091529093019281016118b8565b60ff191660208087019190915292151560051b8501909201925061187b915083905061186b565b34610405576000366003190112610405576007546040516001600160a01b039091168152602090f35b34610405576000366003190112610405576119d36119757f00000000000000000000000000000000000000000000000000000000000000006141de565b610c866119a17f00000000000000000000000000000000000000000000000000000000000000006142da565b6119e1604051916119b183613ca6565b60008352604051958695600f60f81b875260e0602088015260e0870190613b96565b908582036040870152613b96565b90466060850152306080850152600060a085015283820360c0850152613c56565b3461040557602036600319011261040557610c86611a26611a21613bbb565b614fd7565b604051918291602083526020830190613c56565b34610405576000366003190112610405576020600d54604051908152f35b3461040557600036600319011261040557611a71613d6a565b600780546001600160a01b031981169091556000906001600160a01b03167f8be0079c531659141344cd1fd0a4f28419497f9722a3daafe3b4186f6b6457e08280a3005b34610405576020366003190112610405576020611ad8611ad3613bbb565b613d96565b604051908152f35b34610405576020366003190112610405576020611afe60043561403e565b6040516001600160a01b039091168152f35b3461040557600319604036820112610405576001600160401b0360043511610405576101209060043536030112610405576024356001600160401b03811161040557611b60903690600401613be7565b90611b7a6001600160a01b03610ff060043560e4016147df565b6001600160a01b03611b9060043560c4016147df565b161515806124ef575b611ba29061483f565b611bb060446004350161487a565b6201517f194201428111610eeb576001600160401b03611bd19216116143c6565b63ffffffff611be460646004350161488e565b161515806124cb575b611bf690614407565b611c0861010460043501351515614446565b611c1660048035018061489f565b3690611c2192613d33565b8051906020012060043560240160043560040190611c3e9161489f565b3690611c4992613d33565b80519060200120600435604401611c5f9061487a565b611c6d60646004350161488e565b611c7f6004803560848101910161489f565b3690611c8a92613d33565b8051906020012060043560a40160043560040190611ca79161489f565b3690611cb292613d33565b805190602001209060043560c401611cc9906147df565b92611cd860e4600435016147df565b946040519660208801987fa0a878e5693a37f578742a15a4cb856f692aae1e9fd056facc2c1eda5a9856198a52604089015260608801526001600160401b0316608087015263ffffffff1660a086015260c085015260e0840152600160a01b6001900316610100830152600160a01b600190031661012082015260043561010401356101408201526101408152611d6e81613c8a565b519020611d7a90614a4f565b913690611d8692613d33565b611d8f91614914565b611d98916149e0565b6001600160a01b03611dae60c4600435016147df565b611dc3926001600160a01b03169116146148d1565b600d54611dcf81614488565b600d55611de060048035018061489f565b90611df36004803560248101910161489f565b90611e0260446004350161487a565b611e1060646004350161488e565b611e226004803560848101910161489f565b9091611e366004803560a48101910161489f565b94909560043560c401611e48906147df565b97611e5760e4600435016147df565b996040519b611e658d613c8a565b3690611e7092613d33565b8b523690611e7d92613d33565b60208a01526001600160401b0316604089015263ffffffff1660608801523690611ea692613d33565b60808601523690611eb692613d33565b60a08401526001600160a01b0390811660c08401521660e08201526101046004350135610100820152600061012082018190526101408201819052828152600a6020526040902081518051909391906001600160401b03811161159e57611f1d8254613dcf565b601f8111612487575b50602094601f821160011461242157948192939495600092612416575b50508160011b916000199060031b1c19161781555b60208301519283516001600160401b03811161159e57611f7b6001840154613dcf565b601f81116123cf575b506020601f8211600114612360578192939495600092612355575b50508160011b916000199060031b1c19161760018301555b600282016001600160401b0360408301511681549063ffffffff60401b606085015160401b16916001600160601b0319161717905560808101519283516001600160401b03811161159e5761200f6003850154613dcf565b601f811161230e575b50602094601f82116001146122a257948192939495600092612297575b50508160011b916000199060031b1c19161760038401555b60a08201519283516001600160401b03811161159e576120706004830154613dcf565b601f8111612250575b506020601f82116001146121df57819060089495966000926121d4575b50508160011b916000199060031b1c19161760048201555b60c0840151600582810180546001600160a01b039384166001600160a01b03199182161790915560e08701516006850180549190941691161790915561010085015160078301556101208501519492909101908410156103d35761014061211b926113de602096846144a3565b61212d8161140860c4600435016147df565b61213b60c4600435016147df565b61214960e4600435016147df565b826000805160206150a283398151915261216760048035018061489f565b9361217961145960446004350161487a565b0390a461218a60e4600435016147df565b9061219960c4600435016147df565b604051926001600160a01b039182169116827f9fbbd042184db7e95eaea0fdb4bb4a737167f1aaccd0d365742157ece5453102600080a48152f35b015190508680612096565b601f198216956004840160005260206000209660005b81811061223857509160089596979184600195941061221f575b505050811b0160048201556120ae565b015160001960f88460031b161c1916905586808061220f565b838301518955600190980197602093840193016121f5565b600483016000526020600020601f830160051c810160208410612290575b601f830160051c82018110612284575050612079565b6000815560010161226e565b508061226e565b015190508580612035565b601f198216956003860160005260206000209160005b8881106122f6575083600195969798106122dd575b505050811b01600384015561204d565b015160001960f88460031b161c191690558580806122cd565b919260206001819286850151815501940192016122b8565b600385016000526020600020601f830160051c81016020841061234e575b601f830160051c82018110612342575050612018565b6000815560010161232c565b508061232c565b015190508580611f9f565b6001840160005260206000209060005b601f19841681106123b7575060019394959683601f1981161061239e575b505050811b016001830155611fb7565b015160001960f88460031b161c1916905585808061238e565b9091602060018192858b015181550193019101612370565b600184016000526020600020601f830160051c81016020841061240f575b601f830160051c82018110612403575050611f84565b600081556001016123ed565b50806123ed565b015190508580611f43565b601f198216958360005260206000209160005b88811061246f57508360019596979810612456575b505050811b018155611f58565b015160001960f88460031b161c19169055858080612449565b91926020600181928685015181550194019201612434565b826000526020600020601f830160051c8101602084106124c4575b601f830160051c820181106124b8575050611f26565b600081556001016124a2565b50806124a2565b50611bf66105a063ffffffff6124e560646004350161488e565b1611159050611bed565b50611ba26001600160a01b0361250960043560e4016147df565b1615159050611b99565b3461040557602036600319011261040557600435600052600c6020526020604060002054604051908152f35b3461040557602036600319011261040557600435600061014060405161256481613c8a565b606081526060602082015282604082015282606082015260606080820152606060a08201528260c08201528260e0820152826101008201528261012082015201528060005260026020526125c660018060a01b03604060002054161515614728565b600052600a602052604060002060ff6008604051926125e484613c8a565b6040516125f5816101e58185613e09565b845260405161260b816101e58160018601613e09565b602085015263ffffffff60028201546001600160401b038116604087015260401c166060850152604051612646816101e58160038601613e09565b608085015260405161265f816101e58160048601613e09565b60a085015260058101546001600160a01b0390811660c086015260068201541660e0850152600781015461010085015201546126a18282166101208501614497565b60081c16151561014082015260405180916020825261014061273f6126d483516101606020870152610180860190613b96565b61272a6126f3602086015192601f1993848983030160408a0152613b96565b6001600160401b03604087015116606088015263ffffffff60608701511660808801526080860151838883030160a0890152613b96565b9060a0850151908683030160c0870152613b96565b9160018060a01b0360c08201511660e085015260018060a01b0360e08201511661010085015261010081015161012085015261278361012082015183860190613c49565b015115156101608301520390f35b3461040557610dc96127a236613c14565b90604051926127b084613ca6565b60008452610dc3838383613e9f565b3461040557610120366003190112610405576004356001600160401b038111610405576127f0903690600401613be7565b906024356001600160401b03811161040557612810903690600401613be7565b9290916001600160401b0360443516604435036104055760643563ffffffff81168103610405576084356001600160401b03811161040557612856903690600401613be7565b9060a4356001600160401b03811161040557612876903690600401613be7565b909390929060c4356001600160a01b03811690036104055760e4356001600160a01b03811690036104055760c4356001600160a01b031615612f995760e4356001600160a01b031615612f6057426201517f19810111610eeb576128ec426201517f19016044356001600160401b0316116143c6565b63ffffffff8116151580612f4e575b61290490614407565b612912610104351515614446565b600d549761291f89614488565b600d556040519961292f8b613c8a565b61293a368a8a613d33565b8b52369061294792613d33565b60208a01526044356001600160401b031660408a015263ffffffff166060890152369061297392613d33565b6080870152369061298392613d33565b60a08501526001600160a01b0360c435811660c086015260e4351660e085015261010435610100850152600061012085018190526101408501819052838152600a6020526040902084518051906001600160401b03821161159e5781906129ea8454613dcf565b601f8111612efe575b50602090601f8311600114612e9857600092612e8d575b50508160011b916000199060031b1c19161781555b60208501518051906001600160401b03821161159e578190612a446001850154613dcf565b601f8111612e3a575b50602090601f8311600114612dc857600092612dbd575b50508160011b916000199060031b1c19161760018201555b600281016001600160401b0360408701511681549063ffffffff60401b606089015160401b16916001600160601b0319161717905560808501518051906001600160401b03821161159e578190612ad66003850154613dcf565b601f8111612d6a575b50602090601f8311600114612cfd57600092612cf2575b50508160011b916000199060031b1c19161760038201555b60a08501518051906001600160401b03821161159e57612b316004840154613dcf565b601f8111612cab575b50602090601f8311600114612c3a57600893929160009183612c2f575b50508160011b916000199060031b1c19161760048201555b60c0860151600582810180546001600160a01b039384166001600160a01b03199182161790915560e08901516006850180549190941691161790915561010087015160078301556101208701519692909101908610156103d357610140612bdc926113de602098846144a3565b612be683336144fa565b826000805160206150a283398151915260405180612c2460018060a01b0360e435169660018060a01b0360c4351696610104359160443591856144bb565b0390a4604051908152f35b015190508880612b57565b90601f198316916004850160005260206000209260005b818110612c935750916001939185600897969410612c7a575b505050811b016004820155612b6f565b015160001960f88460031b161c19169055888080612c6a565b92936020600181928786015181550195019301612c51565b600484016000526020600020601f840160051c810160208510612ceb575b601f830160051c82018110612cdf575050612b3a565b60008155600101612cc9565b5080612cc9565b015190508780612af6565b600385016000908152602081209350601f198516905b818110612d525750908460019594939210612d39575b505050811b016003820155612b0e565b015160001960f88460031b161c19169055878080612d29565b92936020600181928786015181550195019301612d13565b909150600384016000526020600020601f840160051c810160208510612db6575b90849392915b601f830160051c82018110612da7575050612adf565b60008155859450600101612d91565b5080612d8b565b015190508780612a64565b9250600184016000526020600020906000935b601f1984168510612e1f576001945083601f19811610612e06575b505050811b016001820155612a7c565b015160001960f88460031b161c19169055878080612df6565b81810151835560209485019460019093019290910190612ddb565b909150600184016000526020600020601f840160051c810160208510612e86575b90849392915b601f830160051c82018110612e77575050612a4d565b60008155859450600101612e61565b5080612e5b565b015190508780612a0a565b6000858152602081209350601f198516905b818110612ee65750908460019594939210612ecd575b505050811b018155612a1f565b015160001960f88460031b161c19169055878080612ec0565b92936020600181928786015181550195019301612eaa565b909150836000526020600020601f840160051c810160208510612f47575b90849392915b601f830160051c82018110612f385750506129f3565b60008155859450600101612f22565b5080612f1c565b506105a063ffffffff821611156128fb565b60405162461bcd60e51b815260206004820152601160248201527056656e75652077616c6c6574207a65726f60781b6044820152606490fd5b60405162461bcd60e51b81526020600482015260126024820152714172746973742077616c6c6574207a65726f60701b6044820152606490fd5b3461040557610dc9612fe436613c14565b91613e9f565b34610405576040366003190112610405576024356001600160401b0381116104055761301a903690600401613be7565b6004356000908152600260205260409020546001600160a01b0316156138e157600435600052600b6020526040600020546138a857600435600052600a60205260406000209160ff60088401541660058110156103d35761307b90156147a6565b60018060a01b03600584015416916040517f8b6c53ab6ef8e9b984d822751bf77e8b0e3994d04ebb43872b023f72947866ed60208201526004356040820152836060820152606081528060808101106001600160401b0360808301111761159e57613110849261310a61312895613102856080613119970160405260208151910120614a4f565b923691613d33565b90614914565b909291926149e0565b6001600160a01b0316146148d1565b330361386357600d5461313a81614488565b600d556002820154600583015460068401546007850154604051959390926001600160a01b0392831692169063ffffffff9061317588613c8a565b604051613186816101e5818a613e09565b885260405161319c816101e58160018b01613e09565b60208901526001600160401b038116604089015260401c1660608701526040516131cd816101e58160038901613e09565b60808701526040516131e6816101e58160048901613e09565b60a087015260c086015260e08501526101008401526004610120840152600061014084015281600052600a60205260406000209280518051906001600160401b03821161159e5781906132398754613dcf565b601f8111613813575b50602090601f83116001146137a75760009261379c575b50508160011b916000199060031b1c19161784555b60208101518051906001600160401b03821161159e5781906132936001880154613dcf565b601f8111613749575b50602090601f83116001146136d7576000926136cc575b50508160011b916000199060031b1c19161760018501555b600284016001600160401b0360408301511681549063ffffffff60401b606085015160401b16916001600160601b0319161717905560808101518051906001600160401b03821161159e5781906133256003880154613dcf565b601f8111613679575b50602090601f8311600114613607576000926135fc575b50508160011b916000199060031b1c19161760038501555b60a08101518051906001600160401b03821161159e5781906133826004880154613dcf565b601f81116135a9575b50602090601f83116001146135375760009261352c575b50508160011b916000199060031b1c19161760048501555b60c0810151600585810180546001600160a01b039384166001600160a01b03199182161790915560e0840151600688018054919094169116179091556101008201516007860155610120820151908110156103d357610140613426926113de60086020980193846144a3565b60088101805460ff19166004908117909155356000818152600b85526040808220859055848252600c8652902055600581015461346d9083906001600160a01b03166144fa565b60018060a01b036005820154169081836000805160206150a28339815191526134c460018060a01b03600686015416946001600160401b036002820154166007820154604051938493606085526060850190613e09565b918b84015260408301520390a46040519080836004357fab88eb4d65ee140b2c9d2227cc573ee7a37d5887bce8fead7fff0d78ba20b1bb600080a46000825260048483015260408201526000805160206150c2833981519152606060043592a2604051908152f35b0151905086806133a2565b9250600487016000526020600020906000935b601f198416851061358e576001945083601f19811610613575575b505050811b0160048501556133ba565b015160001960f88460031b161c19169055868080613565565b8181015183556020948501946001909301929091019061354a565b909150600487016000526020600020601f840160051c8101602085106135f5575b90849392915b601f830160051c820181106135e657505061338b565b600081558594506001016135d0565b50806135ca565b015190508680613345565b9250600387016000526020600020906000935b601f198416851061365e576001945083601f19811610613645575b505050811b01600385015561335d565b015160001960f88460031b161c19169055868080613635565b8181015183556020948501946001909301929091019061361a565b909150600387016000526020600020601f840160051c8101602085106136c5575b90849392915b601f830160051c820181106136b657505061332e565b600081558594506001016136a0565b508061369a565b0151905086806132b3565b9250600187016000526020600020906000935b601f198416851061372e576001945083601f19811610613715575b505050811b0160018501556132cb565b015160001960f88460031b161c19169055868080613705565b818101518355602094850194600190930192909101906136ea565b909150600187016000526020600020601f840160051c810160208510613795575b90849392915b601f830160051c8201811061378657505061329c565b60008155859450600101613770565b508061376a565b015190508680613259565b9250866000526020600020906000935b601f19841685106137f8576001945083601f198116106137df575b505050811b01845561326e565b015160001960f88460031b161c191690558680806137d2565b818101518355602094850194600190930192909101906137b7565b909150866000526020600020601f840160051c81016020851061385c575b90849392915b601f830160051c8201811061384d575050613242565b60008155859450600101613837565b5080613831565b60405162461bcd60e51b815260206004820152601860248201527f43616c6c6572206e6f74206172746973742077616c6c657400000000000000006044820152606490fd5b60405162461bcd60e51b8152602060048201526011602482015270105b1c9958591e48199a5b985b1a5e9959607a1b6044820152606490fd5b60405162461bcd60e51b815260206004820152601760248201527f56656e756520746f6b656e206e6f6e6578697374656e740000000000000000006044820152606490fd5b346104055760403660031901126104055761393f613bbb565b60243561394b8161403e565b331515806139fa575b806139cd575b6139b5576001600160a01b039283169282918491167f8c5be1e5ebec7d5bd14f71427d1e84f3dd0314c0f7b2291e5b200ac8c7c3b925600080a4600090815260046020526040902080546001600160a01b0319169091179055005b60405163a9fbf51f60e01b8152336004820152602490fd5b5060018060a01b038116600052600560205260406000203360005260205260ff604060002054161561395a565b506001600160a01b038116331415613954565b3461040557602036600319011261040557600435613a2a8161403e565b506000526004602052602060018060a01b0360406000205416604051908152f35b346104055760003660031901126104055760405160008054613a6c81613dcf565b808452906001908181169081156118e85750600114613a9557610c868461187b81860382613cf7565b600080805292507f290decd9548b62a8d60345a988386fc84ba6bc95484008f6362f93160ef3e5635b828410613ad657505050810160200161187b8261186b565b80546020858701810191909152909301928101613abe565b34610405576020366003190112610405576004359063ffffffff60e01b821680920361040557602091632483248360e11b8114908115613b30575b5015158152f35b6380ac58cd60e01b811491508115613b62575b8115613b51575b5083613b29565b6301ffc9a760e01b14905083613b4a565b635b5e139f60e01b81149150613b43565b60005b838110613b865750506000910152565b8181015183820152602001613b76565b90602091613baf81518092818552858086019101613b73565b601f01601f1916010190565b600435906001600160a01b038216820361040557565b602435906001600160a01b038216820361040557565b9181601f84011215610405578235916001600160401b038311610405576020838186019501011161040557565b6060906003190112610405576001600160a01b0390600435828116810361040557916024359081168103610405579060443590565b9060058210156103d35752565b90815180825260208080930193019160005b828110613c76575050505090565b835185529381019392810192600101613c68565b61016081019081106001600160401b0382111761159e57604052565b602081019081106001600160401b0382111761159e57604052565b604081019081106001600160401b0382111761159e57604052565b606081019081106001600160401b0382111761159e57604052565b90601f801991011681019081106001600160401b0382111761159e57604052565b6001600160401b03811161159e57601f01601f191660200190565b929192613d3f82613d18565b91613d4d6040519384613cf7565b829481845281830111610405578281602093846000960137010152565b6007546001600160a01b03163303613d7e57565b60405163118cdaa760e01b8152336004820152602490fd5b6001600160a01b03168015613db657600052600360205260406000205490565b6040516322718ad960e21b815260006004820152602490fd5b90600182811c92168015613dff575b6020831014613de957565b634e487b7160e01b600052602260045260246000fd5b91607f1691613dde565b9060009291805491613e1a83613dcf565b918282526001938481169081600014613e7c5750600114613e3c575b50505050565b90919394506000526020928360002092846000945b838610613e68575050505001019038808080613e36565b805485870183015294019385908201613e51565b9294505050602093945060ff191683830152151560051b01019038808080613e36565b6001600160a01b03918216929091831561402557600092828452826020956002875260409684888820541696879133151580613f8f575b509060027fddf252ad1be2c89b69c2b068fc378daa952ba7f163c4a11628f55a4df523b3ef9284613f5c575b858352600381528b8320805460010190558683525289812080546001600160a01b0319168517905580a41692838303613f3b5750505050565b6064945051926364283d7b60e01b8452600484015260248301526044820152fd5b600087815260046020526040902080546001600160a01b0319169055848352600381528b83208054600019019055613f02565b91939450915080613fe4575b15613fab57859291879138613ed6565b878688613fc8576024915190637e27328960e01b82526004820152fd5b604491519063177e802f60e01b82523360048301526024820152fd5b503387148015614009575b80613f9b5750858252600481523385898420541614613f9b565b5086825260058152878220338352815260ff8883205416613fef565b604051633250574960e11b815260006004820152602490fd5b6000818152600260205260409020546001600160a01b0316908115614061575090565b60249060405190637e27328960e01b82526004820152fd5b90939192833b61408b575b5050505050565b604051630a85bd0160e11b8082526001600160a01b0393841660048301529583166024820152604481019190915260806064820152949216926020929185906140d8906084830190613b96565b039483816000978189895af1869181614183575b5061414d575050503d600014614144573d61410681613d18565b906141146040519283613cf7565b81528093823d92013e5b8251928361413f57604051633250574960e11b815260048101849052602490fd5b019050fd5b6060925061411e565b919450915063ffffffff60e01b160361416b57503880808080614084565b60249060405190633250574960e11b82526004820152fd5b9091508481813d83116141c0575b61419b8183613cf7565b810103126141bc57516001600160e01b0319811681036141bc5790386140ec565b8680fd5b503d614191565b6001600160401b03811161159e5760051b60200190565b60ff811461421c5760ff811690601f821161420a576040519161420083613cc1565b8252602082015290565b604051632cd44ac360e21b8152600490fd5b5060405160085481600061422f83613dcf565b808352926001908181169081156142b85750600114614259575b5061425692500382613cf7565b90565b6008600090815291507ff3f7a9fe364faab93b216da50a3214154f22a0a2b415b23a84c8169e8b636ee35b84831061429d5750614256935050810160200138614249565b81935090816020925483858901015201910190918492614284565b90506020925061425694915060ff191682840152151560051b82010138614249565b60ff81146142fc5760ff811690601f821161420a576040519161420083613cc1565b5060405160095481600061430f83613dcf565b808352926001908181169081156142b85750600114614335575061425692500382613cf7565b6009600090815291507f6e1540171b6c0c960b71a7020d9f60077f6af931a8bbf590da0223dacf75c7af5b8483106143795750614256935050810160200138614249565b81935090816020925483858901015201910190918492614360565b9061439e82613d18565b6143ab6040519182613cf7565b82815280926143bc601f1991613d18565b0190602036910137565b156143cd57565b60405162461bcd60e51b815260206004820152601260248201527114dd185c9d081d1a5b59481d1bdbc81bdb1960721b6044820152606490fd5b1561440e57565b60405162461bcd60e51b815260206004820152601060248201526f24b73b30b634b210323ab930ba34b7b760811b6044820152606490fd5b1561444d57565b60405162461bcd60e51b815260206004820152601360248201527205061796d656e74206d757374206265203e203606c1b6044820152606490fd5b6000198114610eeb5760010190565b60058210156103d35752565b9060058110156103d35760ff80198354169116179055565b906080836040946001600160401b03939897969860608652816060870152838601376000828286010152601f8019910116830101951660208201520152565b6040805161450781613ca6565b6000808252936001600160a01b0384811694909290851561471057828752602093600285528588205416838782151592836146dd575b818b5260038852888b2080546001019055828b5260028852888b2080546001600160a01b031916831790557fddf252ad1be2c89b69c2b068fc378daa952ba7f163c4a11628f55a4df523b3ef8b80a46146c5573b61459e575b505050505050565b826145dc918596979894955180938192630a85bd0160e11b968784523360048501528c60248501526044840152608060648401526084830190613b96565b03818a8a5af1879181614681575b5061464a575050503d600014614641573d61460481613d18565b9061461184519283613cf7565b81528094823d92013e5b8351938461463b578251633250574960e11b815260048101859052602490fd5b84925001fd5b6060935061461b565b919550915063ffffffff60e01b160361466a575050388080808080614596565b602492505190633250574960e11b82526004820152fd5b9091508481813d83116146be575b6146998183613cf7565b810103126146ba57516001600160e01b0319811681036146ba5790386145ea565b8780fd5b503d61468f565b84516339e3563760e11b815260048101889052602490fd5b600083815260046020526040902080546001600160a01b0319169055808b5260038852888b20805460001901905561453d565b8451633250574960e11b815260048101889052602490fd5b1561472f57565b60405162461bcd60e51b81526020600482015260116024820152702737b732bc34b9ba32b73a103a37b5b2b760791b6044820152606490fd5b1561476f57565b60405162461bcd60e51b815260206004820152600f60248201526e139bdd081c185c9d1a58da5c185b9d608a1b6044820152606490fd5b156147ad57565b60405162461bcd60e51b815260206004820152600a6024820152694261642073746174757360b01b6044820152606490fd5b356001600160a01b03811681036104055790565b156147fa57565b60405162461bcd60e51b815260206004820152601760248201527f43616c6c6572206e6f742076656e75652077616c6c65740000000000000000006044820152606490fd5b1561484657565b60405162461bcd60e51b815260206004820152600c60248201526b5a65726f206164647265737360a01b6044820152606490fd5b356001600160401b03811681036104055790565b3563ffffffff811681036104055790565b903590601e198136030182121561040557018035906001600160401b0382116104055760200191813603831361040557565b156148d857565b60405162461bcd60e51b815260206004820152601460248201527342616420617274697374207369676e617475726560601b6044820152606490fd5b81519190604183036149455761493e92506020820151906060604084015193015160001a90614950565b9192909190565b505060009160029190565b91907f7fffffffffffffffffffffffffffffff5d576e7357a4501ddfe92f46681b20a084116149d457926020929160ff608095604051948552168484015260408301526060820152600092839182805260015afa156149c85780516001600160a01b038116156149bf57918190565b50809160019190565b604051903d90823e3d90fd5b50505060009160039190565b60048110156103d357806149f2575050565b60018103614a0c5760405163f645eedf60e01b8152600490fd5b60028103614a2d5760405163fce698f760e01b815260048101839052602490fd5b600314614a375750565b602490604051906335e2f38360e21b82526004820152fd5b604290614a5a614a75565b906040519161190160f01b8352600283015260228201522090565b307f00000000000000000000000000000000000000000000000000000000000000006001600160a01b03161480614b76575b15614ad0577f000000000000000000000000000000000000000000000000000000000000000090565b60405160208101907f8b73c3c69bb8fe3d512ecc4cf759cc79239f7b179b0ffacaa9a75d522b39400f82527f000000000000000000000000000000000000000000000000000000000000000060408201527f000000000000000000000000000000000000000000000000000000000000000060608201524660808201523060a082015260a0815260c081018181106001600160401b0382111761159e5760405251902090565b507f00000000000000000000000000000000000000000000000000000000000000004614614aa7565b805115614c82578051600291828201809211610eeb576003918290046001600160fe1b0381168103610eeb57614bd8908495941b614394565b936020850193829183518401906020820192835194600085525b838110614c31575050505052510680600114614c1e57600214614c13575090565b603d90600019015390565b50603d9081600019820153600119015390565b87600491999293949901918251600190603f9082828260121c16880101518453828282600c1c16880101518385015382828260061c1688010151888501531685010151898201530197929190614bf2565b5050604051614c9081613ca6565b6000815290565b806000917a184f03e93ff9f4daa797ed6e38ed64bf6a1f01000000000000000080821015614dcc575b506d04ee2d6d415b85acef810000000080831015614dbd575b50662386f26fc1000080831015614dae575b506305f5e10080831015614d9f575b5061271080831015614d90575b506064821015614d80575b600a80921015614d76575b600190816021614d2e828701614394565b95860101905b614d40575b5050505090565b600019019083906f181899199a1a9b1b9c1cb0b131b232b360811b8282061a835304918215614d7157919082614d34565b614d39565b9160010191614d1d565b9190606460029104910191614d12565b60049193920491019138614d07565b60089193920491019138614cfa565b60109193920491019138614ceb565b60209193920491019138614cd9565b604093508104915038614cc0565b604051906001600160a01b031680614df183613cdc565b602a835260208084016040368237845115614ec85760309053835190600191821015614ec85790607860218601536029915b818311614e5457505050614e35575090565b6044906040519063e22e27eb60e01b8252600482015260146024820152fd5b909192600f81166010811015614eb3578651851015614eb3576f181899199a1a9b1b9c1cb0b131b232b360811b901a86850183015360041c928015614e9e57600019019190614e23565b60246000634e487b7160e01b81526011600452fd5b60246000634e487b7160e01b81526032600452fd5b634e487b7160e01b600052603260045260246000fd5b60405190614eeb82613cc1565b600982526814d8da19591d5b195960ba1b6020830152565b60058110156103d3578015614fce5760018114614fa85760028114614f835760038114614f5e57600414614f3957614256614ede565b604051614f4581613cc1565b6009815268119a5b985b1a5e995960ba1b602082015290565b50604051614f6b81613cc1565b600881526714995cdbdb1d995960c21b602082015290565b50604051614f9081613cc1565b6008815267111a5cdc1d5d195960c21b602082015290565b50604051614fb581613cc1565b600981526810dbdb5c1b195d195960ba1b602082015290565b50614256614ede565b600d54600019810191908211610eeb57614ff081613d96565b614ff9816141c7565b91604061500881519485613cf7565b828452601f19615017846141c7565b0191602092368487013783156150985760009160015b87811115615041575b505050505050905090565b600081815260028652829020546001600160a01b0384811691161461506f575b61506a90614488565b61502d565b61507884614488565b938751811015614ec85785829160051b8901015285840361506157615036565b5050505090509056fe0763e2255b3b46191fc14c005e2188d8639d751a03006384eafac51fd64e910fbe978056736fa4b5d6ef48bade11edc88bb6fe9193a2efe99ed9e5b0b41ade9ea264697066735822122059a2f7ed0e6eacea502ac55f89d1898db47253e9100f81d514aa2823288a622b64736f6c63430008140033",
  "linkReferences": {},
  "deployedLinkReferences": {}
}